{
	"abstract-contract.sol": {
		"Member": {
			"abi": [
				{
					"inputs": [],
					"name": "returnAge",
					"outputs": [
						{
							"internalType": "uint256",
							"name": "",
							"type": "uint256"
						}
					],
					"stateMutability": "view",
					"type": "function"
				},
				{
					"inputs": [],
					"name": "setName",
					"outputs": [
						{
							"internalType": "string",
							"name": "",
							"type": "string"
						}
					],
					"stateMutability": "nonpayable",
					"type": "function"
				}
			],
			"devdoc": {
				"kind": "dev",
				"methods": {},
				"version": 1
			},
			"evm": {
				"assembly": "    /* \"abstract-contract.sol\":858:1141  contract Member... */\n  mstore(0x40, 0x80)\n    /* \"abstract-contract.sol\":908:910  38 */\n  0x26\n    /* \"abstract-contract.sol\":897:910  uint age = 38 */\n  0x01\n  sstore\n    /* \"abstract-contract.sol\":858:1141  contract Member... */\n  callvalue\n  dup1\n  iszero\n  tag_1\n  jumpi\n  0x00\n  dup1\n  revert\ntag_1:\n  pop\n  dataSize(sub_0)\n  dup1\n  dataOffset(sub_0)\n  0x00\n  codecopy\n  0x00\n  return\nstop\n\nsub_0: assembly {\n        /* \"abstract-contract.sol\":858:1141  contract Member... */\n      mstore(0x40, 0x80)\n      callvalue\n      dup1\n      iszero\n      tag_1\n      jumpi\n      0x00\n      dup1\n      revert\n    tag_1:\n      pop\n      jumpi(tag_2, lt(calldatasize, 0x04))\n      shr(0xe0, calldataload(0x00))\n      dup1\n      0x2bf0f81c\n      eq\n      tag_3\n      jumpi\n      dup1\n      0x52446f53\n      eq\n      tag_4\n      jumpi\n    tag_2:\n      0x00\n      dup1\n      revert\n        /* \"abstract-contract.sol\":997:1055  function setName() public virtual returns(string memory){} */\n    tag_3:\n      tag_5\n      tag_6\n      jump\t// in\n    tag_5:\n      mload(0x40)\n      tag_7\n      swap2\n      swap1\n      tag_8\n      jump\t// in\n    tag_7:\n      mload(0x40)\n      dup1\n      swap2\n      sub\n      swap1\n      return\n        /* \"abstract-contract.sol\":1061:1139  function returnAge() public view returns(uint)... */\n    tag_4:\n      tag_9\n      tag_10\n      jump\t// in\n    tag_9:\n      mload(0x40)\n      tag_11\n      swap2\n      swap1\n      tag_12\n      jump\t// in\n    tag_11:\n      mload(0x40)\n      dup1\n      swap2\n      sub\n      swap1\n      return\n        /* \"abstract-contract.sol\":997:1055  function setName() public virtual returns(string memory){} */\n    tag_6:\n        /* \"abstract-contract.sol\":1039:1052  string memory */\n      0x60\n        /* \"abstract-contract.sol\":997:1055  function setName() public virtual returns(string memory){} */\n      swap1\n      jump\t// out\n        /* \"abstract-contract.sol\":1061:1139  function returnAge() public view returns(uint)... */\n    tag_10:\n        /* \"abstract-contract.sol\":1102:1106  uint */\n      0x00\n        /* \"abstract-contract.sol\":1129:1132  age */\n      sload(0x01)\n        /* \"abstract-contract.sol\":1122:1132  return age */\n      swap1\n      pop\n        /* \"abstract-contract.sol\":1061:1139  function returnAge() public view returns(uint)... */\n      swap1\n      jump\t// out\n        /* \"#utility.yul\":7:106   */\n    tag_15:\n        /* \"#utility.yul\":59:65   */\n      0x00\n        /* \"#utility.yul\":93:98   */\n      dup2\n        /* \"#utility.yul\":87:99   */\n      mload\n        /* \"#utility.yul\":77:99   */\n      swap1\n      pop\n        /* \"#utility.yul\":7:106   */\n      swap2\n      swap1\n      pop\n      jump\t// out\n        /* \"#utility.yul\":112:281   */\n    tag_16:\n        /* \"#utility.yul\":196:207   */\n      0x00\n        /* \"#utility.yul\":230:236   */\n      dup3\n        /* \"#utility.yul\":225:228   */\n      dup3\n        /* \"#utility.yul\":218:237   */\n      mstore\n        /* \"#utility.yul\":270:274   */\n      0x20\n        /* \"#utility.yul\":265:268   */\n      dup3\n        /* \"#utility.yul\":261:275   */\n      add\n        /* \"#utility.yul\":246:275   */\n      swap1\n      pop\n        /* \"#utility.yul\":112:281   */\n      swap3\n      swap2\n      pop\n      pop\n      jump\t// out\n        /* \"#utility.yul\":287:533   */\n    tag_17:\n        /* \"#utility.yul\":368:369   */\n      0x00\n        /* \"#utility.yul\":378:491   */\n    tag_26:\n        /* \"#utility.yul\":392:398   */\n      dup4\n        /* \"#utility.yul\":389:390   */\n      dup2\n        /* \"#utility.yul\":386:399   */\n      lt\n        /* \"#utility.yul\":378:491   */\n      iszero\n      tag_28\n      jumpi\n        /* \"#utility.yul\":477:478   */\n      dup1\n        /* \"#utility.yul\":472:475   */\n      dup3\n        /* \"#utility.yul\":468:479   */\n      add\n        /* \"#utility.yul\":462:480   */\n      mload\n        /* \"#utility.yul\":458:459   */\n      dup2\n        /* \"#utility.yul\":453:456   */\n      dup5\n        /* \"#utility.yul\":449:460   */\n      add\n        /* \"#utility.yul\":442:481   */\n      mstore\n        /* \"#utility.yul\":414:416   */\n      0x20\n        /* \"#utility.yul\":411:412   */\n      dup2\n        /* \"#utility.yul\":407:417   */\n      add\n        /* \"#utility.yul\":402:417   */\n      swap1\n      pop\n        /* \"#utility.yul\":378:491   */\n      jump(tag_26)\n    tag_28:\n        /* \"#utility.yul\":525:526   */\n      0x00\n        /* \"#utility.yul\":516:522   */\n      dup5\n        /* \"#utility.yul\":511:514   */\n      dup5\n        /* \"#utility.yul\":507:523   */\n      add\n        /* \"#utility.yul\":500:527   */\n      mstore\n        /* \"#utility.yul\":349:533   */\n      pop\n        /* \"#utility.yul\":287:533   */\n      pop\n      pop\n      pop\n      jump\t// out\n        /* \"#utility.yul\":539:641   */\n    tag_18:\n        /* \"#utility.yul\":580:586   */\n      0x00\n        /* \"#utility.yul\":631:633   */\n      0x1f\n        /* \"#utility.yul\":627:634   */\n      not\n        /* \"#utility.yul\":622:624   */\n      0x1f\n        /* \"#utility.yul\":615:620   */\n      dup4\n        /* \"#utility.yul\":611:625   */\n      add\n        /* \"#utility.yul\":607:635   */\n      and\n        /* \"#utility.yul\":597:635   */\n      swap1\n      pop\n        /* \"#utility.yul\":539:641   */\n      swap2\n      swap1\n      pop\n      jump\t// out\n        /* \"#utility.yul\":647:1024   */\n    tag_19:\n        /* \"#utility.yul\":735:738   */\n      0x00\n        /* \"#utility.yul\":763:802   */\n      tag_31\n        /* \"#utility.yul\":796:801   */\n      dup3\n        /* \"#utility.yul\":763:802   */\n      tag_15\n      jump\t// in\n    tag_31:\n        /* \"#utility.yul\":818:889   */\n      tag_32\n        /* \"#utility.yul\":882:888   */\n      dup2\n        /* \"#utility.yul\":877:880   */\n      dup6\n        /* \"#utility.yul\":818:889   */\n      tag_16\n      jump\t// in\n    tag_32:\n        /* \"#utility.yul\":811:889   */\n      swap4\n      pop\n        /* \"#utility.yul\":898:963   */\n      tag_33\n        /* \"#utility.yul\":956:962   */\n      dup2\n        /* \"#utility.yul\":951:954   */\n      dup6\n        /* \"#utility.yul\":944:948   */\n      0x20\n        /* \"#utility.yul\":937:942   */\n      dup7\n        /* \"#utility.yul\":933:949   */\n      add\n        /* \"#utility.yul\":898:963   */\n      tag_17\n      jump\t// in\n    tag_33:\n        /* \"#utility.yul\":988:1017   */\n      tag_34\n        /* \"#utility.yul\":1010:1016   */\n      dup2\n        /* \"#utility.yul\":988:1017   */\n      tag_18\n      jump\t// in\n    tag_34:\n        /* \"#utility.yul\":983:986   */\n      dup5\n        /* \"#utility.yul\":979:1018   */\n      add\n        /* \"#utility.yul\":972:1018   */\n      swap2\n      pop\n        /* \"#utility.yul\":739:1024   */\n      pop\n        /* \"#utility.yul\":647:1024   */\n      swap3\n      swap2\n      pop\n      pop\n      jump\t// out\n        /* \"#utility.yul\":1030:1343   */\n    tag_8:\n        /* \"#utility.yul\":1143:1147   */\n      0x00\n        /* \"#utility.yul\":1181:1183   */\n      0x20\n        /* \"#utility.yul\":1170:1179   */\n      dup3\n        /* \"#utility.yul\":1166:1184   */\n      add\n        /* \"#utility.yul\":1158:1184   */\n      swap1\n      pop\n        /* \"#utility.yul\":1230:1239   */\n      dup2\n        /* \"#utility.yul\":1224:1228   */\n      dup2\n        /* \"#utility.yul\":1220:1240   */\n      sub\n        /* \"#utility.yul\":1216:1217   */\n      0x00\n        /* \"#utility.yul\":1205:1214   */\n      dup4\n        /* \"#utility.yul\":1201:1218   */\n      add\n        /* \"#utility.yul\":1194:1241   */\n      mstore\n        /* \"#utility.yul\":1258:1336   */\n      tag_36\n        /* \"#utility.yul\":1331:1335   */\n      dup2\n        /* \"#utility.yul\":1322:1328   */\n      dup5\n        /* \"#utility.yul\":1258:1336   */\n      tag_19\n      jump\t// in\n    tag_36:\n        /* \"#utility.yul\":1250:1336   */\n      swap1\n      pop\n        /* \"#utility.yul\":1030:1343   */\n      swap3\n      swap2\n      pop\n      pop\n      jump\t// out\n        /* \"#utility.yul\":1349:1426   */\n    tag_20:\n        /* \"#utility.yul\":1386:1393   */\n      0x00\n        /* \"#utility.yul\":1415:1420   */\n      dup2\n        /* \"#utility.yul\":1404:1420   */\n      swap1\n      pop\n        /* \"#utility.yul\":1349:1426   */\n      swap2\n      swap1\n      pop\n      jump\t// out\n        /* \"#utility.yul\":1432:1550   */\n    tag_21:\n        /* \"#utility.yul\":1519:1543   */\n      tag_39\n        /* \"#utility.yul\":1537:1542   */\n      dup2\n        /* \"#utility.yul\":1519:1543   */\n      tag_20\n      jump\t// in\n    tag_39:\n        /* \"#utility.yul\":1514:1517   */\n      dup3\n        /* \"#utility.yul\":1507:1544   */\n      mstore\n        /* \"#utility.yul\":1432:1550   */\n      pop\n      pop\n      jump\t// out\n        /* \"#utility.yul\":1556:1778   */\n    tag_12:\n        /* \"#utility.yul\":1649:1653   */\n      0x00\n        /* \"#utility.yul\":1687:1689   */\n      0x20\n        /* \"#utility.yul\":1676:1685   */\n      dup3\n        /* \"#utility.yul\":1672:1690   */\n      add\n        /* \"#utility.yul\":1664:1690   */\n      swap1\n      pop\n        /* \"#utility.yul\":1700:1771   */\n      tag_41\n        /* \"#utility.yul\":1768:1769   */\n      0x00\n        /* \"#utility.yul\":1757:1766   */\n      dup4\n        /* \"#utility.yul\":1753:1770   */\n      add\n        /* \"#utility.yul\":1744:1750   */\n      dup5\n        /* \"#utility.yul\":1700:1771   */\n      tag_21\n      jump\t// in\n    tag_41:\n        /* \"#utility.yul\":1556:1778   */\n      swap3\n      swap2\n      pop\n      pop\n      jump\t// out\n\n    auxdata: 0xa264697066735822122048cf2e3ec9726105b8faa73d6fd6ff588ca762569118600063000f773ebda70264736f6c63430008110033\n}\n",
				"bytecode": {
					"linkReferences": {},
					"object": "6080604052602660015534801561001557600080fd5b506101a2806100256000396000f3fe608060405234801561001057600080fd5b50600436106100365760003560e01c80632bf0f81c1461003b57806352446f5314610059575b600080fd5b610043610077565b6040516100509190610116565b60405180910390f35b61006161007c565b60405161006e9190610151565b60405180910390f35b606090565b6000600154905090565b600081519050919050565b600082825260208201905092915050565b60005b838110156100c05780820151818401526020810190506100a5565b60008484015250505050565b6000601f19601f8301169050919050565b60006100e882610086565b6100f28185610091565b93506101028185602086016100a2565b61010b816100cc565b840191505092915050565b6000602082019050818103600083015261013081846100dd565b905092915050565b6000819050919050565b61014b81610138565b82525050565b60006020820190506101666000830184610142565b9291505056fea264697066735822122048cf2e3ec9726105b8faa73d6fd6ff588ca762569118600063000f773ebda70264736f6c63430008110033",
					"opcodes": "PUSH1 0x80 PUSH1 0x40 MSTORE PUSH1 0x26 PUSH1 0x1 SSTORE CALLVALUE DUP1 ISZERO PUSH2 0x15 JUMPI PUSH1 0x0 DUP1 REVERT JUMPDEST POP PUSH2 0x1A2 DUP1 PUSH2 0x25 PUSH1 0x0 CODECOPY PUSH1 0x0 RETURN INVALID PUSH1 0x80 PUSH1 0x40 MSTORE CALLVALUE DUP1 ISZERO PUSH2 0x10 JUMPI PUSH1 0x0 DUP1 REVERT JUMPDEST POP PUSH1 0x4 CALLDATASIZE LT PUSH2 0x36 JUMPI PUSH1 0x0 CALLDATALOAD PUSH1 0xE0 SHR DUP1 PUSH4 0x2BF0F81C EQ PUSH2 0x3B JUMPI DUP1 PUSH4 0x52446F53 EQ PUSH2 0x59 JUMPI JUMPDEST PUSH1 0x0 DUP1 REVERT JUMPDEST PUSH2 0x43 PUSH2 0x77 JUMP JUMPDEST PUSH1 0x40 MLOAD PUSH2 0x50 SWAP2 SWAP1 PUSH2 0x116 JUMP JUMPDEST PUSH1 0x40 MLOAD DUP1 SWAP2 SUB SWAP1 RETURN JUMPDEST PUSH2 0x61 PUSH2 0x7C JUMP JUMPDEST PUSH1 0x40 MLOAD PUSH2 0x6E SWAP2 SWAP1 PUSH2 0x151 JUMP JUMPDEST PUSH1 0x40 MLOAD DUP1 SWAP2 SUB SWAP1 RETURN JUMPDEST PUSH1 0x60 SWAP1 JUMP JUMPDEST PUSH1 0x0 PUSH1 0x1 SLOAD SWAP1 POP SWAP1 JUMP JUMPDEST PUSH1 0x0 DUP2 MLOAD SWAP1 POP SWAP2 SWAP1 POP JUMP JUMPDEST PUSH1 0x0 DUP3 DUP3 MSTORE PUSH1 0x20 DUP3 ADD SWAP1 POP SWAP3 SWAP2 POP POP JUMP JUMPDEST PUSH1 0x0 JUMPDEST DUP4 DUP2 LT ISZERO PUSH2 0xC0 JUMPI DUP1 DUP3 ADD MLOAD DUP2 DUP5 ADD MSTORE PUSH1 0x20 DUP2 ADD SWAP1 POP PUSH2 0xA5 JUMP JUMPDEST PUSH1 0x0 DUP5 DUP5 ADD MSTORE POP POP POP POP JUMP JUMPDEST PUSH1 0x0 PUSH1 0x1F NOT PUSH1 0x1F DUP4 ADD AND SWAP1 POP SWAP2 SWAP1 POP JUMP JUMPDEST PUSH1 0x0 PUSH2 0xE8 DUP3 PUSH2 0x86 JUMP JUMPDEST PUSH2 0xF2 DUP2 DUP6 PUSH2 0x91 JUMP JUMPDEST SWAP4 POP PUSH2 0x102 DUP2 DUP6 PUSH1 0x20 DUP7 ADD PUSH2 0xA2 JUMP JUMPDEST PUSH2 0x10B DUP2 PUSH2 0xCC JUMP JUMPDEST DUP5 ADD SWAP2 POP POP SWAP3 SWAP2 POP POP JUMP JUMPDEST PUSH1 0x0 PUSH1 0x20 DUP3 ADD SWAP1 POP DUP2 DUP2 SUB PUSH1 0x0 DUP4 ADD MSTORE PUSH2 0x130 DUP2 DUP5 PUSH2 0xDD JUMP JUMPDEST SWAP1 POP SWAP3 SWAP2 POP POP JUMP JUMPDEST PUSH1 0x0 DUP2 SWAP1 POP SWAP2 SWAP1 POP JUMP JUMPDEST PUSH2 0x14B DUP2 PUSH2 0x138 JUMP JUMPDEST DUP3 MSTORE POP POP JUMP JUMPDEST PUSH1 0x0 PUSH1 0x20 DUP3 ADD SWAP1 POP PUSH2 0x166 PUSH1 0x0 DUP4 ADD DUP5 PUSH2 0x142 JUMP JUMPDEST SWAP3 SWAP2 POP POP JUMP INVALID LOG2 PUSH5 0x6970667358 0x22 SLT KECCAK256 BASEFEE 0xCF 0x2E RETURNDATACOPY 0xC9 PUSH19 0x6105B8FAA73D6FD6FF588CA762569118600063 STOP 0xF PUSH24 0x3EBDA70264736F6C63430008110033000000000000000000 "
				},
				"gasEstimates": {
					"creation": {
						"codeDepositCost": "83600",
						"executionCost": "22241",
						"totalCost": "105841"
					},
					"external": {
						"returnAge()": "2437",
						"setName()": "infinite"
					}
				},
				"methodIdentifiers": {
					"returnAge()": "52446f53",
					"setName()": "2bf0f81c"
				}
			},
			"storageLayout": {
				"storage": [
					{
						"astId": 22,
						"contract": "abstract-contract.sol:Member",
						"label": "name",
						"offset": 0,
						"slot": "0",
						"type": "t_string_storage"
					},
					{
						"astId": 25,
						"contract": "abstract-contract.sol:Member",
						"label": "age",
						"offset": 0,
						"slot": "1",
						"type": "t_uint256"
					}
				],
				"types": {
					"t_string_storage": {
						"encoding": "bytes",
						"label": "string",
						"numberOfBytes": "32"
					},
					"t_uint256": {
						"encoding": "inplace",
						"label": "uint256",
						"numberOfBytes": "32"
					}
				}
			},
			"userdoc": {
				"kind": "user",
				"methods": {},
				"version": 1
			}
		}
	}
}