{
	"advance-libraries.sol": {
		"test": {
			"abi": [
				{
					"inputs": [],
					"stateMutability": "nonpayable",
					"type": "constructor"
				},
				{
					"inputs": [
						{
							"internalType": "uint256",
							"name": "val",
							"type": "uint256"
						}
					],
					"name": "isValuePresent",
					"outputs": [
						{
							"internalType": "uint256",
							"name": "",
							"type": "uint256"
						}
					],
					"stateMutability": "view",
					"type": "function"
				}
			],
			"devdoc": {
				"kind": "dev",
				"methods": {},
				"version": 1
			},
			"evm": {
				"assembly": "    /* \"advance-libraries.sol\":1040:1350  contract test... */\n  mstore(0x40, 0x80)\n    /* \"advance-libraries.sol\":1077:1176  constructor() public... */\n  callvalue\n  dup1\n  iszero\n  tag_1\n  jumpi\n  0x00\n  dup1\n  revert\ntag_1:\n  pop\n    /* \"advance-libraries.sol\":1112:1128  data=[1,2,3,4,5] */\n  mload(0x40)\n  dup1\n  0xa0\n  add\n  0x40\n  mstore\n  dup1\n    /* \"advance-libraries.sol\":1118:1119  1 */\n  0x01\n    /* \"advance-libraries.sol\":1112:1128  data=[1,2,3,4,5] */\n  0xff\n  and\n  dup2\n  mstore\n  0x20\n  add\n    /* \"advance-libraries.sol\":1120:1121  2 */\n  0x02\n    /* \"advance-libraries.sol\":1112:1128  data=[1,2,3,4,5] */\n  0xff\n  and\n  dup2\n  mstore\n  0x20\n  add\n    /* \"advance-libraries.sol\":1122:1123  3 */\n  0x03\n    /* \"advance-libraries.sol\":1112:1128  data=[1,2,3,4,5] */\n  0xff\n  and\n  dup2\n  mstore\n  0x20\n  add\n    /* \"advance-libraries.sol\":1124:1125  4 */\n  0x04\n    /* \"advance-libraries.sol\":1112:1128  data=[1,2,3,4,5] */\n  0xff\n  and\n  dup2\n  mstore\n  0x20\n  add\n    /* \"advance-libraries.sol\":1126:1127  5 */\n  0x05\n    /* \"advance-libraries.sol\":1112:1128  data=[1,2,3,4,5] */\n  0xff\n  and\n  dup2\n  mstore\n  pop\n    /* \"advance-libraries.sol\":1112:1116  data */\n  0x00\n    /* \"advance-libraries.sol\":1112:1128  data=[1,2,3,4,5] */\n  swap1\n  0x05\n  tag_4\n  swap3\n  swap2\n  swap1\n  tag_5\n  jump\t// in\ntag_4:\n  pop\n    /* \"advance-libraries.sol\":1040:1350  contract test... */\n  jump(tag_6)\ntag_5:\n  dup3\n  dup1\n  sload\n  dup3\n  dup3\n  sstore\n  swap1\n  0x00\n  mstore\n  keccak256(0x00, 0x20)\n  swap1\n  dup2\n  add\n  swap3\n  dup3\n  iszero\n  tag_7\n  jumpi\n  swap2\n  0x20\n  mul\n  dup3\n  add\ntag_8:\n  dup3\n  dup2\n  gt\n  iszero\n  tag_9\n  jumpi\n  dup3\n  mload\n  dup3\n  swap1\n  0xff\n  and\n  swap1\n  sstore\n  swap2\n  0x20\n  add\n  swap2\n  swap1\n  0x01\n  add\n  swap1\n  jump(tag_8)\ntag_9:\ntag_7:\n  pop\n  swap1\n  pop\n  tag_10\n  swap2\n  swap1\n  tag_11\n  jump\t// in\ntag_10:\n  pop\n  swap1\n  jump\t// out\ntag_11:\ntag_12:\n  dup1\n  dup3\n  gt\n  iszero\n  tag_13\n  jumpi\n  0x00\n  dup2\n  0x00\n  swap1\n  sstore\n  pop\n  0x01\n  add\n  jump(tag_12)\ntag_13:\n  pop\n  swap1\n  jump\t// out\ntag_6:\n  dataSize(sub_0)\n  dup1\n  dataOffset(sub_0)\n  0x00\n  codecopy\n  0x00\n  return\nstop\n\nsub_0: assembly {\n        /* \"advance-libraries.sol\":1040:1350  contract test... */\n      mstore(0x40, 0x80)\n      callvalue\n      dup1\n      iszero\n      tag_1\n      jumpi\n      0x00\n      dup1\n      revert\n    tag_1:\n      pop\n      jumpi(tag_2, lt(calldatasize, 0x04))\n      shr(0xe0, calldataload(0x00))\n      dup1\n      0x061d2800\n      eq\n      tag_3\n      jumpi\n    tag_2:\n      0x00\n      dup1\n      revert\n        /* \"advance-libraries.sol\":1182:1348  function isValuePresent(uint val) external view returns(uint)... */\n    tag_3:\n      tag_4\n      0x04\n      dup1\n      calldatasize\n      sub\n      dup2\n      add\n      swap1\n      tag_5\n      swap2\n      swap1\n      tag_6\n      jump\t// in\n    tag_5:\n      tag_7\n      jump\t// in\n    tag_4:\n      mload(0x40)\n      tag_8\n      swap2\n      swap1\n      tag_9\n      jump\t// in\n    tag_8:\n      mload(0x40)\n      dup1\n      swap2\n      sub\n      swap1\n      return\n    tag_7:\n        /* \"advance-libraries.sol\":1238:1242  uint */\n      0x00\n        /* \"advance-libraries.sol\":1258:1268  uint value */\n      dup1\n        /* \"advance-libraries.sol\":1269:1272  val */\n      dup3\n        /* \"advance-libraries.sol\":1258:1272  uint value=val */\n      swap1\n      pop\n        /* \"advance-libraries.sol\":1281:1291  uint index */\n      0x00\n        /* \"advance-libraries.sol\":1294:1300  Search */\n      linkerSymbol(\"a956e2737745171a6b4b03a840edab1207b42c32b3565d60bfde73f6a7f0eb74\")\n        /* \"advance-libraries.sol\":1294:1308  Search.indexOf */\n      0x24fef5c8\n        /* \"advance-libraries.sol\":1309:1313  data */\n      0x00\n        /* \"advance-libraries.sol\":1314:1319  value */\n      dup5\n        /* \"advance-libraries.sol\":1294:1320  Search.indexOf(data,value) */\n      mload(0x40)\n      dup4\n      0xffffffff\n      and\n      0xe0\n      shl\n      dup2\n      mstore\n      0x04\n      add\n      tag_11\n      swap3\n      swap2\n      swap1\n      tag_12\n      jump\t// in\n    tag_11:\n      0x20\n      mload(0x40)\n      dup1\n      dup4\n      sub\n      dup2\n      dup7\n      gas\n      delegatecall\n      iszero\n      dup1\n      iszero\n      tag_14\n      jumpi\n      returndatasize\n      0x00\n      dup1\n      returndatacopy\n      revert(0x00, returndatasize)\n    tag_14:\n      pop\n      pop\n      pop\n      pop\n      mload(0x40)\n      returndatasize\n      not(0x1f)\n      0x1f\n      dup3\n      add\n      and\n      dup3\n      add\n      dup1\n      0x40\n      mstore\n      pop\n      dup2\n      add\n      swap1\n      tag_15\n      swap2\n      swap1\n      tag_16\n      jump\t// in\n    tag_15:\n        /* \"advance-libraries.sol\":1281:1320  uint index = Search.indexOf(data,value) */\n      swap1\n      pop\n        /* \"advance-libraries.sol\":1336:1341  index */\n      dup1\n        /* \"advance-libraries.sol\":1329:1341  return index */\n      swap3\n      pop\n      pop\n      pop\n        /* \"advance-libraries.sol\":1182:1348  function isValuePresent(uint val) external view returns(uint)... */\n      swap2\n      swap1\n      pop\n      jump\t// out\n        /* \"#utility.yul\":88:205   */\n    tag_18:\n        /* \"#utility.yul\":197:198   */\n      0x00\n        /* \"#utility.yul\":194:195   */\n      dup1\n        /* \"#utility.yul\":187:199   */\n      revert\n        /* \"#utility.yul\":334:411   */\n    tag_20:\n        /* \"#utility.yul\":371:378   */\n      0x00\n        /* \"#utility.yul\":400:405   */\n      dup2\n        /* \"#utility.yul\":389:405   */\n      swap1\n      pop\n        /* \"#utility.yul\":334:411   */\n      swap2\n      swap1\n      pop\n      jump\t// out\n        /* \"#utility.yul\":417:539   */\n    tag_21:\n        /* \"#utility.yul\":490:514   */\n      tag_33\n        /* \"#utility.yul\":508:513   */\n      dup2\n        /* \"#utility.yul\":490:514   */\n      tag_20\n      jump\t// in\n    tag_33:\n        /* \"#utility.yul\":483:488   */\n      dup2\n        /* \"#utility.yul\":480:515   */\n      eq\n        /* \"#utility.yul\":470:533   */\n      tag_34\n      jumpi\n        /* \"#utility.yul\":529:530   */\n      0x00\n        /* \"#utility.yul\":526:527   */\n      dup1\n        /* \"#utility.yul\":519:531   */\n      revert\n        /* \"#utility.yul\":470:533   */\n    tag_34:\n        /* \"#utility.yul\":417:539   */\n      pop\n      jump\t// out\n        /* \"#utility.yul\":545:684   */\n    tag_22:\n        /* \"#utility.yul\":591:596   */\n      0x00\n        /* \"#utility.yul\":629:635   */\n      dup2\n        /* \"#utility.yul\":616:636   */\n      calldataload\n        /* \"#utility.yul\":607:636   */\n      swap1\n      pop\n        /* \"#utility.yul\":645:678   */\n      tag_36\n        /* \"#utility.yul\":672:677   */\n      dup2\n        /* \"#utility.yul\":645:678   */\n      tag_21\n      jump\t// in\n    tag_36:\n        /* \"#utility.yul\":545:684   */\n      swap3\n      swap2\n      pop\n      pop\n      jump\t// out\n        /* \"#utility.yul\":690:1019   */\n    tag_6:\n        /* \"#utility.yul\":749:755   */\n      0x00\n        /* \"#utility.yul\":798:800   */\n      0x20\n        /* \"#utility.yul\":786:795   */\n      dup3\n        /* \"#utility.yul\":777:784   */\n      dup5\n        /* \"#utility.yul\":773:796   */\n      sub\n        /* \"#utility.yul\":769:801   */\n      slt\n        /* \"#utility.yul\":766:885   */\n      iszero\n      tag_38\n      jumpi\n        /* \"#utility.yul\":804:883   */\n      tag_39\n      tag_18\n      jump\t// in\n    tag_39:\n        /* \"#utility.yul\":766:885   */\n    tag_38:\n        /* \"#utility.yul\":924:925   */\n      0x00\n        /* \"#utility.yul\":949:1002   */\n      tag_40\n        /* \"#utility.yul\":994:1001   */\n      dup5\n        /* \"#utility.yul\":985:991   */\n      dup3\n        /* \"#utility.yul\":974:983   */\n      dup6\n        /* \"#utility.yul\":970:992   */\n      add\n        /* \"#utility.yul\":949:1002   */\n      tag_22\n      jump\t// in\n    tag_40:\n        /* \"#utility.yul\":939:1002   */\n      swap2\n      pop\n        /* \"#utility.yul\":895:1012   */\n      pop\n        /* \"#utility.yul\":690:1019   */\n      swap3\n      swap2\n      pop\n      pop\n      jump\t// out\n        /* \"#utility.yul\":1025:1143   */\n    tag_23:\n        /* \"#utility.yul\":1112:1136   */\n      tag_42\n        /* \"#utility.yul\":1130:1135   */\n      dup2\n        /* \"#utility.yul\":1112:1136   */\n      tag_20\n      jump\t// in\n    tag_42:\n        /* \"#utility.yul\":1107:1110   */\n      dup3\n        /* \"#utility.yul\":1100:1137   */\n      mstore\n        /* \"#utility.yul\":1025:1143   */\n      pop\n      pop\n      jump\t// out\n        /* \"#utility.yul\":1149:1371   */\n    tag_9:\n        /* \"#utility.yul\":1242:1246   */\n      0x00\n        /* \"#utility.yul\":1280:1282   */\n      0x20\n        /* \"#utility.yul\":1269:1278   */\n      dup3\n        /* \"#utility.yul\":1265:1283   */\n      add\n        /* \"#utility.yul\":1257:1283   */\n      swap1\n      pop\n        /* \"#utility.yul\":1293:1364   */\n      tag_44\n        /* \"#utility.yul\":1361:1362   */\n      0x00\n        /* \"#utility.yul\":1350:1359   */\n      dup4\n        /* \"#utility.yul\":1346:1363   */\n      add\n        /* \"#utility.yul\":1337:1343   */\n      dup5\n        /* \"#utility.yul\":1293:1364   */\n      tag_23\n      jump\t// in\n    tag_44:\n        /* \"#utility.yul\":1149:1371   */\n      swap3\n      swap2\n      pop\n      pop\n      jump\t// out\n        /* \"#utility.yul\":1377:1506   */\n    tag_24:\n        /* \"#utility.yul\":1494:1499   */\n      dup1\n        /* \"#utility.yul\":1489:1492   */\n      dup3\n        /* \"#utility.yul\":1482:1500   */\n      mstore\n        /* \"#utility.yul\":1377:1506   */\n      pop\n      pop\n      jump\t// out\n        /* \"#utility.yul\":1512:1638   */\n    tag_25:\n        /* \"#utility.yul\":1607:1631   */\n      tag_47\n        /* \"#utility.yul\":1625:1630   */\n      dup2\n        /* \"#utility.yul\":1607:1631   */\n      tag_20\n      jump\t// in\n    tag_47:\n        /* \"#utility.yul\":1602:1605   */\n      dup3\n        /* \"#utility.yul\":1595:1632   */\n      mstore\n        /* \"#utility.yul\":1512:1638   */\n      pop\n      pop\n      jump\t// out\n        /* \"#utility.yul\":1644:2044   */\n    tag_12:\n        /* \"#utility.yul\":1795:1799   */\n      0x00\n        /* \"#utility.yul\":1833:1835   */\n      0x40\n        /* \"#utility.yul\":1822:1831   */\n      dup3\n        /* \"#utility.yul\":1818:1836   */\n      add\n        /* \"#utility.yul\":1810:1836   */\n      swap1\n      pop\n        /* \"#utility.yul\":1846:1947   */\n      tag_49\n        /* \"#utility.yul\":1944:1945   */\n      0x00\n        /* \"#utility.yul\":1933:1942   */\n      dup4\n        /* \"#utility.yul\":1929:1946   */\n      add\n        /* \"#utility.yul\":1920:1926   */\n      dup6\n        /* \"#utility.yul\":1846:1947   */\n      tag_24\n      jump\t// in\n    tag_49:\n        /* \"#utility.yul\":1957:2037   */\n      tag_50\n        /* \"#utility.yul\":2033:2035   */\n      0x20\n        /* \"#utility.yul\":2022:2031   */\n      dup4\n        /* \"#utility.yul\":2018:2036   */\n      add\n        /* \"#utility.yul\":2009:2015   */\n      dup5\n        /* \"#utility.yul\":1957:2037   */\n      tag_25\n      jump\t// in\n    tag_50:\n        /* \"#utility.yul\":1644:2044   */\n      swap4\n      swap3\n      pop\n      pop\n      pop\n      jump\t// out\n        /* \"#utility.yul\":2050:2193   */\n    tag_26:\n        /* \"#utility.yul\":2107:2112   */\n      0x00\n        /* \"#utility.yul\":2138:2144   */\n      dup2\n        /* \"#utility.yul\":2132:2145   */\n      mload\n        /* \"#utility.yul\":2123:2145   */\n      swap1\n      pop\n        /* \"#utility.yul\":2154:2187   */\n      tag_52\n        /* \"#utility.yul\":2181:2186   */\n      dup2\n        /* \"#utility.yul\":2154:2187   */\n      tag_21\n      jump\t// in\n    tag_52:\n        /* \"#utility.yul\":2050:2193   */\n      swap3\n      swap2\n      pop\n      pop\n      jump\t// out\n        /* \"#utility.yul\":2199:2550   */\n    tag_16:\n        /* \"#utility.yul\":2269:2275   */\n      0x00\n        /* \"#utility.yul\":2318:2320   */\n      0x20\n        /* \"#utility.yul\":2306:2315   */\n      dup3\n        /* \"#utility.yul\":2297:2304   */\n      dup5\n        /* \"#utility.yul\":2293:2316   */\n      sub\n        /* \"#utility.yul\":2289:2321   */\n      slt\n        /* \"#utility.yul\":2286:2405   */\n      iszero\n      tag_54\n      jumpi\n        /* \"#utility.yul\":2324:2403   */\n      tag_55\n      tag_18\n      jump\t// in\n    tag_55:\n        /* \"#utility.yul\":2286:2405   */\n    tag_54:\n        /* \"#utility.yul\":2444:2445   */\n      0x00\n        /* \"#utility.yul\":2469:2533   */\n      tag_56\n        /* \"#utility.yul\":2525:2532   */\n      dup5\n        /* \"#utility.yul\":2516:2522   */\n      dup3\n        /* \"#utility.yul\":2505:2514   */\n      dup6\n        /* \"#utility.yul\":2501:2523   */\n      add\n        /* \"#utility.yul\":2469:2533   */\n      tag_26\n      jump\t// in\n    tag_56:\n        /* \"#utility.yul\":2459:2533   */\n      swap2\n      pop\n        /* \"#utility.yul\":2415:2543   */\n      pop\n        /* \"#utility.yul\":2199:2550   */\n      swap3\n      swap2\n      pop\n      pop\n      jump\t// out\n\n    auxdata: 0xa2646970667358221220d30b32596a265859c5c8d7751e143dd01864b6b9db6baec202567696bd2d3b5164736f6c63430008110033\n}\n",
				"bytecode": {
					"linkReferences": {
						"advance-libraries.sol": {
							"Search": [
								{
									"length": 20,
									"start": 330
								}
							]
						}
					},
					"object": "608060405234801561001057600080fd5b506040518060a00160405280600160ff168152602001600260ff168152602001600360ff168152602001600460ff168152602001600560ff16815250600090600561005c929190610062565b506100d1565b8280548282559060005260206000209081019282156100a3579160200282015b828111156100a2578251829060ff16905591602001919060010190610082565b5b5090506100b091906100b4565b5090565b5b808211156100cd5760008160009055506001016100b5565b5090565b610238806100e06000396000f3fe608060405234801561001057600080fd5b506004361061002b5760003560e01c8063061d280014610030575b600080fd5b61004a6004803603810190610045919061012a565b610060565b6040516100579190610166565b60405180910390f35b600080829050600073__$a956e2737745171a6b4b03a840edab1207$__6324fef5c86000846040518363ffffffff1660e01b81526004016100a2929190610197565b602060405180830381865af41580156100bf573d6000803e3d6000fd5b505050506040513d601f19601f820116820180604052508101906100e391906101d5565b90508092505050919050565b600080fd5b6000819050919050565b610107816100f4565b811461011257600080fd5b50565b600081359050610124816100fe565b92915050565b6000602082840312156101405761013f6100ef565b5b600061014e84828501610115565b91505092915050565b610160816100f4565b82525050565b600060208201905061017b6000830184610157565b92915050565b8082525050565b610191816100f4565b82525050565b60006040820190506101ac6000830185610181565b6101b96020830184610188565b9392505050565b6000815190506101cf816100fe565b92915050565b6000602082840312156101eb576101ea6100ef565b5b60006101f9848285016101c0565b9150509291505056fea2646970667358221220d30b32596a265859c5c8d7751e143dd01864b6b9db6baec202567696bd2d3b5164736f6c63430008110033",
					"opcodes": "PUSH1 0x80 PUSH1 0x40 MSTORE CALLVALUE DUP1 ISZERO PUSH2 0x10 JUMPI PUSH1 0x0 DUP1 REVERT JUMPDEST POP PUSH1 0x40 MLOAD DUP1 PUSH1 0xA0 ADD PUSH1 0x40 MSTORE DUP1 PUSH1 0x1 PUSH1 0xFF AND DUP2 MSTORE PUSH1 0x20 ADD PUSH1 0x2 PUSH1 0xFF AND DUP2 MSTORE PUSH1 0x20 ADD PUSH1 0x3 PUSH1 0xFF AND DUP2 MSTORE PUSH1 0x20 ADD PUSH1 0x4 PUSH1 0xFF AND DUP2 MSTORE PUSH1 0x20 ADD PUSH1 0x5 PUSH1 0xFF AND DUP2 MSTORE POP PUSH1 0x0 SWAP1 PUSH1 0x5 PUSH2 0x5C SWAP3 SWAP2 SWAP1 PUSH2 0x62 JUMP JUMPDEST POP PUSH2 0xD1 JUMP JUMPDEST DUP3 DUP1 SLOAD DUP3 DUP3 SSTORE SWAP1 PUSH1 0x0 MSTORE PUSH1 0x20 PUSH1 0x0 KECCAK256 SWAP1 DUP2 ADD SWAP3 DUP3 ISZERO PUSH2 0xA3 JUMPI SWAP2 PUSH1 0x20 MUL DUP3 ADD JUMPDEST DUP3 DUP2 GT ISZERO PUSH2 0xA2 JUMPI DUP3 MLOAD DUP3 SWAP1 PUSH1 0xFF AND SWAP1 SSTORE SWAP2 PUSH1 0x20 ADD SWAP2 SWAP1 PUSH1 0x1 ADD SWAP1 PUSH2 0x82 JUMP JUMPDEST JUMPDEST POP SWAP1 POP PUSH2 0xB0 SWAP2 SWAP1 PUSH2 0xB4 JUMP JUMPDEST POP SWAP1 JUMP JUMPDEST JUMPDEST DUP1 DUP3 GT ISZERO PUSH2 0xCD JUMPI PUSH1 0x0 DUP2 PUSH1 0x0 SWAP1 SSTORE POP PUSH1 0x1 ADD PUSH2 0xB5 JUMP JUMPDEST POP SWAP1 JUMP JUMPDEST PUSH2 0x238 DUP1 PUSH2 0xE0 PUSH1 0x0 CODECOPY PUSH1 0x0 RETURN INVALID PUSH1 0x80 PUSH1 0x40 MSTORE CALLVALUE DUP1 ISZERO PUSH2 0x10 JUMPI PUSH1 0x0 DUP1 REVERT JUMPDEST POP PUSH1 0x4 CALLDATASIZE LT PUSH2 0x2B JUMPI PUSH1 0x0 CALLDATALOAD PUSH1 0xE0 SHR DUP1 PUSH4 0x61D2800 EQ PUSH2 0x30 JUMPI JUMPDEST PUSH1 0x0 DUP1 REVERT JUMPDEST PUSH2 0x4A PUSH1 0x4 DUP1 CALLDATASIZE SUB DUP2 ADD SWAP1 PUSH2 0x45 SWAP2 SWAP1 PUSH2 0x12A JUMP JUMPDEST PUSH2 0x60 JUMP JUMPDEST PUSH1 0x40 MLOAD PUSH2 0x57 SWAP2 SWAP1 PUSH2 0x166 JUMP JUMPDEST PUSH1 0x40 MLOAD DUP1 SWAP2 SUB SWAP1 RETURN JUMPDEST PUSH1 0x0 DUP1 DUP3 SWAP1 POP PUSH1 0x0 PUSH20 0x0 PUSH4 0x24FEF5C8 PUSH1 0x0 DUP5 PUSH1 0x40 MLOAD DUP4 PUSH4 0xFFFFFFFF AND PUSH1 0xE0 SHL DUP2 MSTORE PUSH1 0x4 ADD PUSH2 0xA2 SWAP3 SWAP2 SWAP1 PUSH2 0x197 JUMP JUMPDEST PUSH1 0x20 PUSH1 0x40 MLOAD DUP1 DUP4 SUB DUP2 DUP7 GAS DELEGATECALL ISZERO DUP1 ISZERO PUSH2 0xBF JUMPI RETURNDATASIZE PUSH1 0x0 DUP1 RETURNDATACOPY RETURNDATASIZE PUSH1 0x0 REVERT JUMPDEST POP POP POP POP PUSH1 0x40 MLOAD RETURNDATASIZE PUSH1 0x1F NOT PUSH1 0x1F DUP3 ADD AND DUP3 ADD DUP1 PUSH1 0x40 MSTORE POP DUP2 ADD SWAP1 PUSH2 0xE3 SWAP2 SWAP1 PUSH2 0x1D5 JUMP JUMPDEST SWAP1 POP DUP1 SWAP3 POP POP POP SWAP2 SWAP1 POP JUMP JUMPDEST PUSH1 0x0 DUP1 REVERT JUMPDEST PUSH1 0x0 DUP2 SWAP1 POP SWAP2 SWAP1 POP JUMP JUMPDEST PUSH2 0x107 DUP2 PUSH2 0xF4 JUMP JUMPDEST DUP2 EQ PUSH2 0x112 JUMPI PUSH1 0x0 DUP1 REVERT JUMPDEST POP JUMP JUMPDEST PUSH1 0x0 DUP2 CALLDATALOAD SWAP1 POP PUSH2 0x124 DUP2 PUSH2 0xFE JUMP JUMPDEST SWAP3 SWAP2 POP POP JUMP JUMPDEST PUSH1 0x0 PUSH1 0x20 DUP3 DUP5 SUB SLT ISZERO PUSH2 0x140 JUMPI PUSH2 0x13F PUSH2 0xEF JUMP JUMPDEST JUMPDEST PUSH1 0x0 PUSH2 0x14E DUP5 DUP3 DUP6 ADD PUSH2 0x115 JUMP JUMPDEST SWAP2 POP POP SWAP3 SWAP2 POP POP JUMP JUMPDEST PUSH2 0x160 DUP2 PUSH2 0xF4 JUMP JUMPDEST DUP3 MSTORE POP POP JUMP JUMPDEST PUSH1 0x0 PUSH1 0x20 DUP3 ADD SWAP1 POP PUSH2 0x17B PUSH1 0x0 DUP4 ADD DUP5 PUSH2 0x157 JUMP JUMPDEST SWAP3 SWAP2 POP POP JUMP JUMPDEST DUP1 DUP3 MSTORE POP POP JUMP JUMPDEST PUSH2 0x191 DUP2 PUSH2 0xF4 JUMP JUMPDEST DUP3 MSTORE POP POP JUMP JUMPDEST PUSH1 0x0 PUSH1 0x40 DUP3 ADD SWAP1 POP PUSH2 0x1AC PUSH1 0x0 DUP4 ADD DUP6 PUSH2 0x181 JUMP JUMPDEST PUSH2 0x1B9 PUSH1 0x20 DUP4 ADD DUP5 PUSH2 0x188 JUMP JUMPDEST SWAP4 SWAP3 POP POP POP JUMP JUMPDEST PUSH1 0x0 DUP2 MLOAD SWAP1 POP PUSH2 0x1CF DUP2 PUSH2 0xFE JUMP JUMPDEST SWAP3 SWAP2 POP POP JUMP JUMPDEST PUSH1 0x0 PUSH1 0x20 DUP3 DUP5 SUB SLT ISZERO PUSH2 0x1EB JUMPI PUSH2 0x1EA PUSH2 0xEF JUMP JUMPDEST JUMPDEST PUSH1 0x0 PUSH2 0x1F9 DUP5 DUP3 DUP6 ADD PUSH2 0x1C0 JUMP JUMPDEST SWAP2 POP POP SWAP3 SWAP2 POP POP JUMP INVALID LOG2 PUSH5 0x6970667358 0x22 SLT KECCAK256 0xD3 SIGNEXTEND ORIGIN MSIZE PUSH11 0x265859C5C8D7751E143DD0 XOR PUSH5 0xB6B9DB6BAE 0xC2 MUL JUMP PUSH23 0x96BD2D3B5164736F6C6343000811003300000000000000 "
				},
				"gasEstimates": {
					"creation": {
						"codeDepositCost": "113600",
						"executionCost": "infinite",
						"totalCost": "infinite"
					},
					"external": {
						"isValuePresent(uint256)": "infinite"
					}
				},
				"methodIdentifiers": {
					"isValuePresent(uint256)": "061d2800"
				}
			},
			"storageLayout": {
				"storage": [
					{
						"astId": 37,
						"contract": "advance-libraries.sol:test",
						"label": "data",
						"offset": 0,
						"slot": "0",
						"type": "t_array(t_uint256)dyn_storage"
					}
				],
				"types": {
					"t_array(t_uint256)dyn_storage": {
						"base": "t_uint256",
						"encoding": "dynamic_array",
						"label": "uint256[]",
						"numberOfBytes": "32"
					},
					"t_uint256": {
						"encoding": "inplace",
						"label": "uint256",
						"numberOfBytes": "32"
					}
				}
			},
			"userdoc": {
				"kind": "user",
				"methods": {},
				"version": 1
			}
		}
	}
}