{
	"restricted-access-pattern.sol": {
		"RestrictedAccess": {
			"abi": [
				{
					"inputs": [
						{
							"internalType": "address",
							"name": "_newOwner",
							"type": "address"
						}
					],
					"name": "ForceOwnerChange",
					"outputs": [],
					"stateMutability": "payable",
					"type": "function"
				},
				{
					"inputs": [
						{
							"internalType": "address",
							"name": "newAddress",
							"type": "address"
						}
					],
					"name": "chnageOwnerAddress",
					"outputs": [],
					"stateMutability": "nonpayable",
					"type": "function"
				},
				{
					"inputs": [],
					"name": "creationTime",
					"outputs": [
						{
							"internalType": "uint256",
							"name": "",
							"type": "uint256"
						}
					],
					"stateMutability": "view",
					"type": "function"
				},
				{
					"inputs": [],
					"name": "disown",
					"outputs": [],
					"stateMutability": "nonpayable",
					"type": "function"
				},
				{
					"inputs": [],
					"name": "owner",
					"outputs": [
						{
							"internalType": "address",
							"name": "",
							"type": "address"
						}
					],
					"stateMutability": "view",
					"type": "function"
				}
			],
			"devdoc": {
				"kind": "dev",
				"methods": {},
				"version": 1
			},
			"evm": {
				"assembly": "    /* \"restricted-access-pattern.sol\":578:2532  contract RestrictedAccess... */\n  mstore(0x40, 0x80)\n    /* \"restricted-access-pattern.sol\":633:643  msg.sender */\n  caller\n    /* \"restricted-access-pattern.sol\":610:643  address public owner = msg.sender */\n  0x00\n  dup1\n  0x0100\n  exp\n  dup2\n  sload\n  dup2\n  0xffffffffffffffffffffffffffffffffffffffff\n  mul\n  not\n  and\n  swap1\n  dup4\n  0xffffffffffffffffffffffffffffffffffffffff\n  and\n  mul\n  or\n  swap1\n  sstore\n  pop\n    /* \"restricted-access-pattern.sol\":676:691  block.timestamp */\n  timestamp\n    /* \"restricted-access-pattern.sol\":649:691  uint public creationTime = block.timestamp */\n  0x01\n  sstore\n    /* \"restricted-access-pattern.sol\":578:2532  contract RestrictedAccess... */\n  callvalue\n  dup1\n  iszero\n  tag_1\n  jumpi\n  0x00\n  dup1\n  revert\ntag_1:\n  pop\n  dataSize(sub_0)\n  dup1\n  dataOffset(sub_0)\n  0x00\n  codecopy\n  0x00\n  return\nstop\n\nsub_0: assembly {\n        /* \"restricted-access-pattern.sol\":578:2532  contract RestrictedAccess... */\n      mstore(0x40, 0x80)\n      jumpi(tag_1, lt(calldatasize, 0x04))\n      shr(0xe0, calldataload(0x00))\n      dup1\n      0x1e9bf0da\n      eq\n      tag_2\n      jumpi\n      dup1\n      0x8da5cb5b\n      eq\n      tag_3\n      jumpi\n      dup1\n      0xd79f1d1f\n      eq\n      tag_4\n      jumpi\n      dup1\n      0xd8270dce\n      eq\n      tag_5\n      jumpi\n      dup1\n      0xeb880148\n      eq\n      tag_6\n      jumpi\n    tag_1:\n      0x00\n      dup1\n      revert\n        /* \"restricted-access-pattern.sol\":1698:1806  function disown() onlyBy(owner) onlyAfter(creationTime+5 seconds) public  ... */\n    tag_2:\n      callvalue\n      dup1\n      iszero\n      tag_7\n      jumpi\n      0x00\n      dup1\n      revert\n    tag_7:\n      pop\n      tag_8\n      tag_9\n      jump\t// in\n    tag_8:\n      stop\n        /* \"restricted-access-pattern.sol\":610:643  address public owner = msg.sender */\n    tag_3:\n      callvalue\n      dup1\n      iszero\n      tag_10\n      jumpi\n      0x00\n      dup1\n      revert\n    tag_10:\n      pop\n      tag_11\n      tag_12\n      jump\t// in\n    tag_11:\n      mload(0x40)\n      tag_13\n      swap2\n      swap1\n      tag_14\n      jump\t// in\n    tag_13:\n      mload(0x40)\n      dup1\n      swap2\n      sub\n      swap1\n      return\n        /* \"restricted-access-pattern.sol\":1381:1490  function chnageOwnerAddress(address newAddress) onlyBy(owner) public ... */\n    tag_4:\n      callvalue\n      dup1\n      iszero\n      tag_15\n      jumpi\n      0x00\n      dup1\n      revert\n    tag_15:\n      pop\n      tag_16\n      0x04\n      dup1\n      calldatasize\n      sub\n      dup2\n      add\n      swap1\n      tag_17\n      swap2\n      swap1\n      tag_18\n      jump\t// in\n    tag_17:\n      tag_19\n      jump\t// in\n    tag_16:\n      stop\n        /* \"restricted-access-pattern.sol\":649:691  uint public creationTime = block.timestamp */\n    tag_5:\n      callvalue\n      dup1\n      iszero\n      tag_20\n      jumpi\n      0x00\n      dup1\n      revert\n    tag_20:\n      pop\n      tag_21\n      tag_22\n      jump\t// in\n    tag_21:\n      mload(0x40)\n      tag_23\n      swap2\n      swap1\n      tag_24\n      jump\t// in\n    tag_23:\n      mload(0x40)\n      dup1\n      swap2\n      sub\n      swap1\n      return\n        /* \"restricted-access-pattern.sol\":2415:2530  function ForceOwnerChange(address _newOwner) payable public cost(200 ether) ... */\n    tag_6:\n      tag_25\n      0x04\n      dup1\n      calldatasize\n      sub\n      dup2\n      add\n      swap1\n      tag_26\n      swap2\n      swap1\n      tag_18\n      jump\t// in\n    tag_26:\n      tag_27\n      jump\t// in\n    tag_25:\n      stop\n        /* \"restricted-access-pattern.sol\":1698:1806  function disown() onlyBy(owner) onlyAfter(creationTime+5 seconds) public  ... */\n    tag_9:\n        /* \"restricted-access-pattern.sol\":1723:1728  owner */\n      0x00\n      dup1\n      sload\n      swap1\n      0x0100\n      exp\n      swap1\n      div\n      0xffffffffffffffffffffffffffffffffffffffff\n      and\n        /* \"restricted-access-pattern.sol\":999:1007  _account */\n      dup1\n        /* \"restricted-access-pattern.sol\":985:1007  msg.sender == _account */\n      0xffffffffffffffffffffffffffffffffffffffff\n      and\n        /* \"restricted-access-pattern.sol\":985:995  msg.sender */\n      caller\n        /* \"restricted-access-pattern.sol\":985:1007  msg.sender == _account */\n      0xffffffffffffffffffffffffffffffffffffffff\n      and\n      eq\n        /* \"restricted-access-pattern.sol\":977:1033  require(msg.sender == _account, 'sender not authorized') */\n      tag_29\n      jumpi\n      mload(0x40)\n      0x08c379a000000000000000000000000000000000000000000000000000000000\n      dup2\n      mstore\n      0x04\n      add\n      tag_30\n      swap1\n      tag_31\n      jump\t// in\n    tag_30:\n      mload(0x40)\n      dup1\n      swap2\n      sub\n      swap1\n      revert\n    tag_29:\n        /* \"restricted-access-pattern.sol\":1753:1762  5 seconds */\n      0x05\n        /* \"restricted-access-pattern.sol\":1740:1752  creationTime */\n      sload(0x01)\n        /* \"restricted-access-pattern.sol\":1740:1762  creationTime+5 seconds */\n      tag_32\n      swap2\n      swap1\n      tag_33\n      jump\t// in\n    tag_32:\n        /* \"restricted-access-pattern.sol\":1134:1139  _time */\n      dup1\n        /* \"restricted-access-pattern.sol\":1116:1131  block.timestamp */\n      timestamp\n        /* \"restricted-access-pattern.sol\":1116:1139  block.timestamp>= _time */\n      lt\n      iszero\n        /* \"restricted-access-pattern.sol\":1108:1173  require(block.timestamp>= _time, 'function is called too early!') */\n      tag_35\n      jumpi\n      mload(0x40)\n      0x08c379a000000000000000000000000000000000000000000000000000000000\n      dup2\n      mstore\n      0x04\n      add\n      tag_36\n      swap1\n      tag_37\n      jump\t// in\n    tag_36:\n      mload(0x40)\n      dup1\n      swap2\n      sub\n      swap1\n      revert\n    tag_35:\n        /* \"restricted-access-pattern.sol\":1794:1799  owner */\n      0x00\n      dup1\n        /* \"restricted-access-pattern.sol\":1787:1799  delete owner */\n      0x0100\n      exp\n      dup2\n      sload\n      swap1\n      0xffffffffffffffffffffffffffffffffffffffff\n      mul\n      not\n      and\n      swap1\n      sstore\n        /* \"restricted-access-pattern.sol\":1043:1044  _ */\n      pop\n        /* \"restricted-access-pattern.sol\":1698:1806  function disown() onlyBy(owner) onlyAfter(creationTime+5 seconds) public  ... */\n      pop\n      jump\t// out\n        /* \"restricted-access-pattern.sol\":610:643  address public owner = msg.sender */\n    tag_12:\n      0x00\n      dup1\n      sload\n      swap1\n      0x0100\n      exp\n      swap1\n      div\n      0xffffffffffffffffffffffffffffffffffffffff\n      and\n      dup2\n      jump\t// out\n        /* \"restricted-access-pattern.sol\":1381:1490  function chnageOwnerAddress(address newAddress) onlyBy(owner) public ... */\n    tag_19:\n        /* \"restricted-access-pattern.sol\":1436:1441  owner */\n      0x00\n      dup1\n      sload\n      swap1\n      0x0100\n      exp\n      swap1\n      div\n      0xffffffffffffffffffffffffffffffffffffffff\n      and\n        /* \"restricted-access-pattern.sol\":999:1007  _account */\n      dup1\n        /* \"restricted-access-pattern.sol\":985:1007  msg.sender == _account */\n      0xffffffffffffffffffffffffffffffffffffffff\n      and\n        /* \"restricted-access-pattern.sol\":985:995  msg.sender */\n      caller\n        /* \"restricted-access-pattern.sol\":985:1007  msg.sender == _account */\n      0xffffffffffffffffffffffffffffffffffffffff\n      and\n      eq\n        /* \"restricted-access-pattern.sol\":977:1033  require(msg.sender == _account, 'sender not authorized') */\n      tag_40\n      jumpi\n      mload(0x40)\n      0x08c379a000000000000000000000000000000000000000000000000000000000\n      dup2\n      mstore\n      0x04\n      add\n      tag_41\n      swap1\n      tag_31\n      jump\t// in\n    tag_41:\n      mload(0x40)\n      dup1\n      swap2\n      sub\n      swap1\n      revert\n    tag_40:\n        /* \"restricted-access-pattern.sol\":1473:1483  newAddress */\n      dup2\n        /* \"restricted-access-pattern.sol\":1465:1470  owner */\n      0x00\n      dup1\n        /* \"restricted-access-pattern.sol\":1465:1483  owner = newAddress */\n      0x0100\n      exp\n      dup2\n      sload\n      dup2\n      0xffffffffffffffffffffffffffffffffffffffff\n      mul\n      not\n      and\n      swap1\n      dup4\n      0xffffffffffffffffffffffffffffffffffffffff\n      and\n      mul\n      or\n      swap1\n      sstore\n      pop\n        /* \"restricted-access-pattern.sol\":1381:1490  function chnageOwnerAddress(address newAddress) onlyBy(owner) public ... */\n      pop\n      pop\n      jump\t// out\n        /* \"restricted-access-pattern.sol\":649:691  uint public creationTime = block.timestamp */\n    tag_22:\n      sload(0x01)\n      dup2\n      jump\t// out\n        /* \"restricted-access-pattern.sol\":2415:2530  function ForceOwnerChange(address _newOwner) payable public cost(200 ether) ... */\n    tag_27:\n        /* \"restricted-access-pattern.sol\":2480:2489  200 ether */\n      0x0ad78ebc5ac6200000\n        /* \"restricted-access-pattern.sol\":1258:1265  _amount */\n      dup1\n        /* \"restricted-access-pattern.sol\":1247:1256  msg.value */\n      callvalue\n        /* \"restricted-access-pattern.sol\":1247:1265  msg.value>=_amount */\n      lt\n      iszero\n        /* \"restricted-access-pattern.sol\":1239:1296  require(msg.value>=_amount,'Not enough Ether provided!!') */\n      tag_44\n      jumpi\n      mload(0x40)\n      0x08c379a000000000000000000000000000000000000000000000000000000000\n      dup2\n      mstore\n      0x04\n      add\n      tag_45\n      swap1\n      tag_46\n      jump\t// in\n    tag_45:\n      mload(0x40)\n      dup1\n      swap2\n      sub\n      swap1\n      revert\n    tag_44:\n        /* \"restricted-access-pattern.sol\":2514:2523  _newOwner */\n      dup2\n        /* \"restricted-access-pattern.sol\":2506:2511  owner */\n      0x00\n      dup1\n        /* \"restricted-access-pattern.sol\":2506:2523  owner = _newOwner */\n      0x0100\n      exp\n      dup2\n      sload\n      dup2\n      0xffffffffffffffffffffffffffffffffffffffff\n      mul\n      not\n      and\n      swap1\n      dup4\n      0xffffffffffffffffffffffffffffffffffffffff\n      and\n      mul\n      or\n      swap1\n      sstore\n      pop\n        /* \"restricted-access-pattern.sol\":2415:2530  function ForceOwnerChange(address _newOwner) payable public cost(200 ether) ... */\n      pop\n      pop\n      jump\t// out\n        /* \"#utility.yul\":7:133   */\n    tag_48:\n        /* \"#utility.yul\":44:51   */\n      0x00\n        /* \"#utility.yul\":84:126   */\n      0xffffffffffffffffffffffffffffffffffffffff\n        /* \"#utility.yul\":77:82   */\n      dup3\n        /* \"#utility.yul\":73:127   */\n      and\n        /* \"#utility.yul\":62:127   */\n      swap1\n      pop\n        /* \"#utility.yul\":7:133   */\n      swap2\n      swap1\n      pop\n      jump\t// out\n        /* \"#utility.yul\":139:235   */\n    tag_49:\n        /* \"#utility.yul\":176:183   */\n      0x00\n        /* \"#utility.yul\":205:229   */\n      tag_69\n        /* \"#utility.yul\":223:228   */\n      dup3\n        /* \"#utility.yul\":205:229   */\n      tag_48\n      jump\t// in\n    tag_69:\n        /* \"#utility.yul\":194:229   */\n      swap1\n      pop\n        /* \"#utility.yul\":139:235   */\n      swap2\n      swap1\n      pop\n      jump\t// out\n        /* \"#utility.yul\":241:359   */\n    tag_50:\n        /* \"#utility.yul\":328:352   */\n      tag_71\n        /* \"#utility.yul\":346:351   */\n      dup2\n        /* \"#utility.yul\":328:352   */\n      tag_49\n      jump\t// in\n    tag_71:\n        /* \"#utility.yul\":323:326   */\n      dup3\n        /* \"#utility.yul\":316:353   */\n      mstore\n        /* \"#utility.yul\":241:359   */\n      pop\n      pop\n      jump\t// out\n        /* \"#utility.yul\":365:587   */\n    tag_14:\n        /* \"#utility.yul\":458:462   */\n      0x00\n        /* \"#utility.yul\":496:498   */\n      0x20\n        /* \"#utility.yul\":485:494   */\n      dup3\n        /* \"#utility.yul\":481:499   */\n      add\n        /* \"#utility.yul\":473:499   */\n      swap1\n      pop\n        /* \"#utility.yul\":509:580   */\n      tag_73\n        /* \"#utility.yul\":577:578   */\n      0x00\n        /* \"#utility.yul\":566:575   */\n      dup4\n        /* \"#utility.yul\":562:579   */\n      add\n        /* \"#utility.yul\":553:559   */\n      dup5\n        /* \"#utility.yul\":509:580   */\n      tag_50\n      jump\t// in\n    tag_73:\n        /* \"#utility.yul\":365:587   */\n      swap3\n      swap2\n      pop\n      pop\n      jump\t// out\n        /* \"#utility.yul\":674:791   */\n    tag_52:\n        /* \"#utility.yul\":783:784   */\n      0x00\n        /* \"#utility.yul\":780:781   */\n      dup1\n        /* \"#utility.yul\":773:785   */\n      revert\n        /* \"#utility.yul\":920:1042   */\n    tag_54:\n        /* \"#utility.yul\":993:1017   */\n      tag_78\n        /* \"#utility.yul\":1011:1016   */\n      dup2\n        /* \"#utility.yul\":993:1017   */\n      tag_49\n      jump\t// in\n    tag_78:\n        /* \"#utility.yul\":986:991   */\n      dup2\n        /* \"#utility.yul\":983:1018   */\n      eq\n        /* \"#utility.yul\":973:1036   */\n      tag_79\n      jumpi\n        /* \"#utility.yul\":1032:1033   */\n      0x00\n        /* \"#utility.yul\":1029:1030   */\n      dup1\n        /* \"#utility.yul\":1022:1034   */\n      revert\n        /* \"#utility.yul\":973:1036   */\n    tag_79:\n        /* \"#utility.yul\":920:1042   */\n      pop\n      jump\t// out\n        /* \"#utility.yul\":1048:1187   */\n    tag_55:\n        /* \"#utility.yul\":1094:1099   */\n      0x00\n        /* \"#utility.yul\":1132:1138   */\n      dup2\n        /* \"#utility.yul\":1119:1139   */\n      calldataload\n        /* \"#utility.yul\":1110:1139   */\n      swap1\n      pop\n        /* \"#utility.yul\":1148:1181   */\n      tag_81\n        /* \"#utility.yul\":1175:1180   */\n      dup2\n        /* \"#utility.yul\":1148:1181   */\n      tag_54\n      jump\t// in\n    tag_81:\n        /* \"#utility.yul\":1048:1187   */\n      swap3\n      swap2\n      pop\n      pop\n      jump\t// out\n        /* \"#utility.yul\":1193:1522   */\n    tag_18:\n        /* \"#utility.yul\":1252:1258   */\n      0x00\n        /* \"#utility.yul\":1301:1303   */\n      0x20\n        /* \"#utility.yul\":1289:1298   */\n      dup3\n        /* \"#utility.yul\":1280:1287   */\n      dup5\n        /* \"#utility.yul\":1276:1299   */\n      sub\n        /* \"#utility.yul\":1272:1304   */\n      slt\n        /* \"#utility.yul\":1269:1388   */\n      iszero\n      tag_83\n      jumpi\n        /* \"#utility.yul\":1307:1386   */\n      tag_84\n      tag_52\n      jump\t// in\n    tag_84:\n        /* \"#utility.yul\":1269:1388   */\n    tag_83:\n        /* \"#utility.yul\":1427:1428   */\n      0x00\n        /* \"#utility.yul\":1452:1505   */\n      tag_85\n        /* \"#utility.yul\":1497:1504   */\n      dup5\n        /* \"#utility.yul\":1488:1494   */\n      dup3\n        /* \"#utility.yul\":1477:1486   */\n      dup6\n        /* \"#utility.yul\":1473:1495   */\n      add\n        /* \"#utility.yul\":1452:1505   */\n      tag_55\n      jump\t// in\n    tag_85:\n        /* \"#utility.yul\":1442:1505   */\n      swap2\n      pop\n        /* \"#utility.yul\":1398:1515   */\n      pop\n        /* \"#utility.yul\":1193:1522   */\n      swap3\n      swap2\n      pop\n      pop\n      jump\t// out\n        /* \"#utility.yul\":1528:1605   */\n    tag_56:\n        /* \"#utility.yul\":1565:1572   */\n      0x00\n        /* \"#utility.yul\":1594:1599   */\n      dup2\n        /* \"#utility.yul\":1583:1599   */\n      swap1\n      pop\n        /* \"#utility.yul\":1528:1605   */\n      swap2\n      swap1\n      pop\n      jump\t// out\n        /* \"#utility.yul\":1611:1729   */\n    tag_57:\n        /* \"#utility.yul\":1698:1722   */\n      tag_88\n        /* \"#utility.yul\":1716:1721   */\n      dup2\n        /* \"#utility.yul\":1698:1722   */\n      tag_56\n      jump\t// in\n    tag_88:\n        /* \"#utility.yul\":1693:1696   */\n      dup3\n        /* \"#utility.yul\":1686:1723   */\n      mstore\n        /* \"#utility.yul\":1611:1729   */\n      pop\n      pop\n      jump\t// out\n        /* \"#utility.yul\":1735:1957   */\n    tag_24:\n        /* \"#utility.yul\":1828:1832   */\n      0x00\n        /* \"#utility.yul\":1866:1868   */\n      0x20\n        /* \"#utility.yul\":1855:1864   */\n      dup3\n        /* \"#utility.yul\":1851:1869   */\n      add\n        /* \"#utility.yul\":1843:1869   */\n      swap1\n      pop\n        /* \"#utility.yul\":1879:1950   */\n      tag_90\n        /* \"#utility.yul\":1947:1948   */\n      0x00\n        /* \"#utility.yul\":1936:1945   */\n      dup4\n        /* \"#utility.yul\":1932:1949   */\n      add\n        /* \"#utility.yul\":1923:1929   */\n      dup5\n        /* \"#utility.yul\":1879:1950   */\n      tag_57\n      jump\t// in\n    tag_90:\n        /* \"#utility.yul\":1735:1957   */\n      swap3\n      swap2\n      pop\n      pop\n      jump\t// out\n        /* \"#utility.yul\":1963:2132   */\n    tag_58:\n        /* \"#utility.yul\":2047:2058   */\n      0x00\n        /* \"#utility.yul\":2081:2087   */\n      dup3\n        /* \"#utility.yul\":2076:2079   */\n      dup3\n        /* \"#utility.yul\":2069:2088   */\n      mstore\n        /* \"#utility.yul\":2121:2125   */\n      0x20\n        /* \"#utility.yul\":2116:2119   */\n      dup3\n        /* \"#utility.yul\":2112:2126   */\n      add\n        /* \"#utility.yul\":2097:2126   */\n      swap1\n      pop\n        /* \"#utility.yul\":1963:2132   */\n      swap3\n      swap2\n      pop\n      pop\n      jump\t// out\n        /* \"#utility.yul\":2138:2309   */\n    tag_59:\n        /* \"#utility.yul\":2278:2301   */\n      0x73656e646572206e6f7420617574686f72697a65640000000000000000000000\n        /* \"#utility.yul\":2274:2275   */\n      0x00\n        /* \"#utility.yul\":2266:2272   */\n      dup3\n        /* \"#utility.yul\":2262:2276   */\n      add\n        /* \"#utility.yul\":2255:2302   */\n      mstore\n        /* \"#utility.yul\":2138:2309   */\n      pop\n      jump\t// out\n        /* \"#utility.yul\":2315:2681   */\n    tag_60:\n        /* \"#utility.yul\":2457:2460   */\n      0x00\n        /* \"#utility.yul\":2478:2545   */\n      tag_94\n        /* \"#utility.yul\":2542:2544   */\n      0x15\n        /* \"#utility.yul\":2537:2540   */\n      dup4\n        /* \"#utility.yul\":2478:2545   */\n      tag_58\n      jump\t// in\n    tag_94:\n        /* \"#utility.yul\":2471:2545   */\n      swap2\n      pop\n        /* \"#utility.yul\":2554:2647   */\n      tag_95\n        /* \"#utility.yul\":2643:2646   */\n      dup3\n        /* \"#utility.yul\":2554:2647   */\n      tag_59\n      jump\t// in\n    tag_95:\n        /* \"#utility.yul\":2672:2674   */\n      0x20\n        /* \"#utility.yul\":2667:2670   */\n      dup3\n        /* \"#utility.yul\":2663:2675   */\n      add\n        /* \"#utility.yul\":2656:2675   */\n      swap1\n      pop\n        /* \"#utility.yul\":2315:2681   */\n      swap2\n      swap1\n      pop\n      jump\t// out\n        /* \"#utility.yul\":2687:3106   */\n    tag_31:\n        /* \"#utility.yul\":2853:2857   */\n      0x00\n        /* \"#utility.yul\":2891:2893   */\n      0x20\n        /* \"#utility.yul\":2880:2889   */\n      dup3\n        /* \"#utility.yul\":2876:2894   */\n      add\n        /* \"#utility.yul\":2868:2894   */\n      swap1\n      pop\n        /* \"#utility.yul\":2940:2949   */\n      dup2\n        /* \"#utility.yul\":2934:2938   */\n      dup2\n        /* \"#utility.yul\":2930:2950   */\n      sub\n        /* \"#utility.yul\":2926:2927   */\n      0x00\n        /* \"#utility.yul\":2915:2924   */\n      dup4\n        /* \"#utility.yul\":2911:2928   */\n      add\n        /* \"#utility.yul\":2904:2951   */\n      mstore\n        /* \"#utility.yul\":2968:3099   */\n      tag_97\n        /* \"#utility.yul\":3094:3098   */\n      dup2\n        /* \"#utility.yul\":2968:3099   */\n      tag_60\n      jump\t// in\n    tag_97:\n        /* \"#utility.yul\":2960:3099   */\n      swap1\n      pop\n        /* \"#utility.yul\":2687:3106   */\n      swap2\n      swap1\n      pop\n      jump\t// out\n        /* \"#utility.yul\":3112:3292   */\n    tag_61:\n        /* \"#utility.yul\":3160:3237   */\n      0x4e487b7100000000000000000000000000000000000000000000000000000000\n        /* \"#utility.yul\":3157:3158   */\n      0x00\n        /* \"#utility.yul\":3150:3238   */\n      mstore\n        /* \"#utility.yul\":3257:3261   */\n      0x11\n        /* \"#utility.yul\":3254:3255   */\n      0x04\n        /* \"#utility.yul\":3247:3262   */\n      mstore\n        /* \"#utility.yul\":3281:3285   */\n      0x24\n        /* \"#utility.yul\":3278:3279   */\n      0x00\n        /* \"#utility.yul\":3271:3286   */\n      revert\n        /* \"#utility.yul\":3298:3489   */\n    tag_33:\n        /* \"#utility.yul\":3338:3341   */\n      0x00\n        /* \"#utility.yul\":3357:3377   */\n      tag_100\n        /* \"#utility.yul\":3375:3376   */\n      dup3\n        /* \"#utility.yul\":3357:3377   */\n      tag_56\n      jump\t// in\n    tag_100:\n        /* \"#utility.yul\":3352:3377   */\n      swap2\n      pop\n        /* \"#utility.yul\":3391:3411   */\n      tag_101\n        /* \"#utility.yul\":3409:3410   */\n      dup4\n        /* \"#utility.yul\":3391:3411   */\n      tag_56\n      jump\t// in\n    tag_101:\n        /* \"#utility.yul\":3386:3411   */\n      swap3\n      pop\n        /* \"#utility.yul\":3434:3435   */\n      dup3\n        /* \"#utility.yul\":3431:3432   */\n      dup3\n        /* \"#utility.yul\":3427:3436   */\n      add\n        /* \"#utility.yul\":3420:3436   */\n      swap1\n      pop\n        /* \"#utility.yul\":3455:3458   */\n      dup1\n        /* \"#utility.yul\":3452:3453   */\n      dup3\n        /* \"#utility.yul\":3449:3459   */\n      gt\n        /* \"#utility.yul\":3446:3482   */\n      iszero\n      tag_102\n      jumpi\n        /* \"#utility.yul\":3462:3480   */\n      tag_103\n      tag_61\n      jump\t// in\n    tag_103:\n        /* \"#utility.yul\":3446:3482   */\n    tag_102:\n        /* \"#utility.yul\":3298:3489   */\n      swap3\n      swap2\n      pop\n      pop\n      jump\t// out\n        /* \"#utility.yul\":3495:3674   */\n    tag_62:\n        /* \"#utility.yul\":3635:3666   */\n      0x66756e6374696f6e2069732063616c6c656420746f6f206561726c7921000000\n        /* \"#utility.yul\":3631:3632   */\n      0x00\n        /* \"#utility.yul\":3623:3629   */\n      dup3\n        /* \"#utility.yul\":3619:3633   */\n      add\n        /* \"#utility.yul\":3612:3667   */\n      mstore\n        /* \"#utility.yul\":3495:3674   */\n      pop\n      jump\t// out\n        /* \"#utility.yul\":3680:4046   */\n    tag_63:\n        /* \"#utility.yul\":3822:3825   */\n      0x00\n        /* \"#utility.yul\":3843:3910   */\n      tag_106\n        /* \"#utility.yul\":3907:3909   */\n      0x1d\n        /* \"#utility.yul\":3902:3905   */\n      dup4\n        /* \"#utility.yul\":3843:3910   */\n      tag_58\n      jump\t// in\n    tag_106:\n        /* \"#utility.yul\":3836:3910   */\n      swap2\n      pop\n        /* \"#utility.yul\":3919:4012   */\n      tag_107\n        /* \"#utility.yul\":4008:4011   */\n      dup3\n        /* \"#utility.yul\":3919:4012   */\n      tag_62\n      jump\t// in\n    tag_107:\n        /* \"#utility.yul\":4037:4039   */\n      0x20\n        /* \"#utility.yul\":4032:4035   */\n      dup3\n        /* \"#utility.yul\":4028:4040   */\n      add\n        /* \"#utility.yul\":4021:4040   */\n      swap1\n      pop\n        /* \"#utility.yul\":3680:4046   */\n      swap2\n      swap1\n      pop\n      jump\t// out\n        /* \"#utility.yul\":4052:4471   */\n    tag_37:\n        /* \"#utility.yul\":4218:4222   */\n      0x00\n        /* \"#utility.yul\":4256:4258   */\n      0x20\n        /* \"#utility.yul\":4245:4254   */\n      dup3\n        /* \"#utility.yul\":4241:4259   */\n      add\n        /* \"#utility.yul\":4233:4259   */\n      swap1\n      pop\n        /* \"#utility.yul\":4305:4314   */\n      dup2\n        /* \"#utility.yul\":4299:4303   */\n      dup2\n        /* \"#utility.yul\":4295:4315   */\n      sub\n        /* \"#utility.yul\":4291:4292   */\n      0x00\n        /* \"#utility.yul\":4280:4289   */\n      dup4\n        /* \"#utility.yul\":4276:4293   */\n      add\n        /* \"#utility.yul\":4269:4316   */\n      mstore\n        /* \"#utility.yul\":4333:4464   */\n      tag_109\n        /* \"#utility.yul\":4459:4463   */\n      dup2\n        /* \"#utility.yul\":4333:4464   */\n      tag_63\n      jump\t// in\n    tag_109:\n        /* \"#utility.yul\":4325:4464   */\n      swap1\n      pop\n        /* \"#utility.yul\":4052:4471   */\n      swap2\n      swap1\n      pop\n      jump\t// out\n        /* \"#utility.yul\":4477:4654   */\n    tag_64:\n        /* \"#utility.yul\":4617:4646   */\n      0x4e6f7420656e6f7567682045746865722070726f766964656421210000000000\n        /* \"#utility.yul\":4613:4614   */\n      0x00\n        /* \"#utility.yul\":4605:4611   */\n      dup3\n        /* \"#utility.yul\":4601:4615   */\n      add\n        /* \"#utility.yul\":4594:4647   */\n      mstore\n        /* \"#utility.yul\":4477:4654   */\n      pop\n      jump\t// out\n        /* \"#utility.yul\":4660:5026   */\n    tag_65:\n        /* \"#utility.yul\":4802:4805   */\n      0x00\n        /* \"#utility.yul\":4823:4890   */\n      tag_112\n        /* \"#utility.yul\":4887:4889   */\n      0x1b\n        /* \"#utility.yul\":4882:4885   */\n      dup4\n        /* \"#utility.yul\":4823:4890   */\n      tag_58\n      jump\t// in\n    tag_112:\n        /* \"#utility.yul\":4816:4890   */\n      swap2\n      pop\n        /* \"#utility.yul\":4899:4992   */\n      tag_113\n        /* \"#utility.yul\":4988:4991   */\n      dup3\n        /* \"#utility.yul\":4899:4992   */\n      tag_64\n      jump\t// in\n    tag_113:\n        /* \"#utility.yul\":5017:5019   */\n      0x20\n        /* \"#utility.yul\":5012:5015   */\n      dup3\n        /* \"#utility.yul\":5008:5020   */\n      add\n        /* \"#utility.yul\":5001:5020   */\n      swap1\n      pop\n        /* \"#utility.yul\":4660:5026   */\n      swap2\n      swap1\n      pop\n      jump\t// out\n        /* \"#utility.yul\":5032:5451   */\n    tag_46:\n        /* \"#utility.yul\":5198:5202   */\n      0x00\n        /* \"#utility.yul\":5236:5238   */\n      0x20\n        /* \"#utility.yul\":5225:5234   */\n      dup3\n        /* \"#utility.yul\":5221:5239   */\n      add\n        /* \"#utility.yul\":5213:5239   */\n      swap1\n      pop\n        /* \"#utility.yul\":5285:5294   */\n      dup2\n        /* \"#utility.yul\":5279:5283   */\n      dup2\n        /* \"#utility.yul\":5275:5295   */\n      sub\n        /* \"#utility.yul\":5271:5272   */\n      0x00\n        /* \"#utility.yul\":5260:5269   */\n      dup4\n        /* \"#utility.yul\":5256:5273   */\n      add\n        /* \"#utility.yul\":5249:5296   */\n      mstore\n        /* \"#utility.yul\":5313:5444   */\n      tag_115\n        /* \"#utility.yul\":5439:5443   */\n      dup2\n        /* \"#utility.yul\":5313:5444   */\n      tag_65\n      jump\t// in\n    tag_115:\n        /* \"#utility.yul\":5305:5444   */\n      swap1\n      pop\n        /* \"#utility.yul\":5032:5451   */\n      swap2\n      swap1\n      pop\n      jump\t// out\n\n    auxdata: 0xa26469706673582212208a1ca5e24c37277928cd380a120ad446ddb213a4266eb48a685372b359ab8c1c64736f6c63430008110033\n}\n",
				"bytecode": {
					"linkReferences": {},
					"object": "6080604052336000806101000a81548173ffffffffffffffffffffffffffffffffffffffff021916908373ffffffffffffffffffffffffffffffffffffffff1602179055504260015534801561005457600080fd5b50610674806100646000396000f3fe60806040526004361061004a5760003560e01c80631e9bf0da1461004f5780638da5cb5b14610066578063d79f1d1f14610091578063d8270dce146100ba578063eb880148146100e5575b600080fd5b34801561005b57600080fd5b50610064610101565b005b34801561007257600080fd5b5061007b61020a565b60405161008891906103d9565b60405180910390f35b34801561009d57600080fd5b506100b860048036038101906100b39190610425565b61022e565b005b3480156100c657600080fd5b506100cf610301565b6040516100dc919061046b565b60405180910390f35b6100ff60048036038101906100fa9190610425565b610307565b005b60008054906101000a900473ffffffffffffffffffffffffffffffffffffffff168073ffffffffffffffffffffffffffffffffffffffff163373ffffffffffffffffffffffffffffffffffffffff1614610190576040517f08c379a0000000000000000000000000000000000000000000000000000000008152600401610187906104e3565b60405180910390fd5b600560015461019f9190610532565b804210156101e2576040517f08c379a00000000000000000000000000000000000000000000000000000000081526004016101d9906105b2565b60405180910390fd5b6000806101000a81549073ffffffffffffffffffffffffffffffffffffffff02191690555050565b60008054906101000a900473ffffffffffffffffffffffffffffffffffffffff1681565b60008054906101000a900473ffffffffffffffffffffffffffffffffffffffff168073ffffffffffffffffffffffffffffffffffffffff163373ffffffffffffffffffffffffffffffffffffffff16146102bd576040517f08c379a00000000000000000000000000000000000000000000000000000000081526004016102b4906104e3565b60405180910390fd5b816000806101000a81548173ffffffffffffffffffffffffffffffffffffffff021916908373ffffffffffffffffffffffffffffffffffffffff1602179055505050565b60015481565b680ad78ebc5ac620000080341015610354576040517f08c379a000000000000000000000000000000000000000000000000000000000815260040161034b9061061e565b60405180910390fd5b816000806101000a81548173ffffffffffffffffffffffffffffffffffffffff021916908373ffffffffffffffffffffffffffffffffffffffff1602179055505050565b600073ffffffffffffffffffffffffffffffffffffffff82169050919050565b60006103c382610398565b9050919050565b6103d3816103b8565b82525050565b60006020820190506103ee60008301846103ca565b92915050565b600080fd5b610402816103b8565b811461040d57600080fd5b50565b60008135905061041f816103f9565b92915050565b60006020828403121561043b5761043a6103f4565b5b600061044984828501610410565b91505092915050565b6000819050919050565b61046581610452565b82525050565b6000602082019050610480600083018461045c565b92915050565b600082825260208201905092915050565b7f73656e646572206e6f7420617574686f72697a65640000000000000000000000600082015250565b60006104cd601583610486565b91506104d882610497565b602082019050919050565b600060208201905081810360008301526104fc816104c0565b9050919050565b7f4e487b7100000000000000000000000000000000000000000000000000000000600052601160045260246000fd5b600061053d82610452565b915061054883610452565b92508282019050808211156105605761055f610503565b5b92915050565b7f66756e6374696f6e2069732063616c6c656420746f6f206561726c7921000000600082015250565b600061059c601d83610486565b91506105a782610566565b602082019050919050565b600060208201905081810360008301526105cb8161058f565b9050919050565b7f4e6f7420656e6f7567682045746865722070726f766964656421210000000000600082015250565b6000610608601b83610486565b9150610613826105d2565b602082019050919050565b60006020820190508181036000830152610637816105fb565b905091905056fea26469706673582212208a1ca5e24c37277928cd380a120ad446ddb213a4266eb48a685372b359ab8c1c64736f6c63430008110033",
					"opcodes": "PUSH1 0x80 PUSH1 0x40 MSTORE CALLER PUSH1 0x0 DUP1 PUSH2 0x100 EXP DUP2 SLOAD DUP2 PUSH20 0xFFFFFFFFFFFFFFFFFFFFFFFFFFFFFFFFFFFFFFFF MUL NOT AND SWAP1 DUP4 PUSH20 0xFFFFFFFFFFFFFFFFFFFFFFFFFFFFFFFFFFFFFFFF AND MUL OR SWAP1 SSTORE POP TIMESTAMP PUSH1 0x1 SSTORE CALLVALUE DUP1 ISZERO PUSH2 0x54 JUMPI PUSH1 0x0 DUP1 REVERT JUMPDEST POP PUSH2 0x674 DUP1 PUSH2 0x64 PUSH1 0x0 CODECOPY PUSH1 0x0 RETURN INVALID PUSH1 0x80 PUSH1 0x40 MSTORE PUSH1 0x4 CALLDATASIZE LT PUSH2 0x4A JUMPI PUSH1 0x0 CALLDATALOAD PUSH1 0xE0 SHR DUP1 PUSH4 0x1E9BF0DA EQ PUSH2 0x4F JUMPI DUP1 PUSH4 0x8DA5CB5B EQ PUSH2 0x66 JUMPI DUP1 PUSH4 0xD79F1D1F EQ PUSH2 0x91 JUMPI DUP1 PUSH4 0xD8270DCE EQ PUSH2 0xBA JUMPI DUP1 PUSH4 0xEB880148 EQ PUSH2 0xE5 JUMPI JUMPDEST PUSH1 0x0 DUP1 REVERT JUMPDEST CALLVALUE DUP1 ISZERO PUSH2 0x5B JUMPI PUSH1 0x0 DUP1 REVERT JUMPDEST POP PUSH2 0x64 PUSH2 0x101 JUMP JUMPDEST STOP JUMPDEST CALLVALUE DUP1 ISZERO PUSH2 0x72 JUMPI PUSH1 0x0 DUP1 REVERT JUMPDEST POP PUSH2 0x7B PUSH2 0x20A JUMP JUMPDEST PUSH1 0x40 MLOAD PUSH2 0x88 SWAP2 SWAP1 PUSH2 0x3D9 JUMP JUMPDEST PUSH1 0x40 MLOAD DUP1 SWAP2 SUB SWAP1 RETURN JUMPDEST CALLVALUE DUP1 ISZERO PUSH2 0x9D JUMPI PUSH1 0x0 DUP1 REVERT JUMPDEST POP PUSH2 0xB8 PUSH1 0x4 DUP1 CALLDATASIZE SUB DUP2 ADD SWAP1 PUSH2 0xB3 SWAP2 SWAP1 PUSH2 0x425 JUMP JUMPDEST PUSH2 0x22E JUMP JUMPDEST STOP JUMPDEST CALLVALUE DUP1 ISZERO PUSH2 0xC6 JUMPI PUSH1 0x0 DUP1 REVERT JUMPDEST POP PUSH2 0xCF PUSH2 0x301 JUMP JUMPDEST PUSH1 0x40 MLOAD PUSH2 0xDC SWAP2 SWAP1 PUSH2 0x46B JUMP JUMPDEST PUSH1 0x40 MLOAD DUP1 SWAP2 SUB SWAP1 RETURN JUMPDEST PUSH2 0xFF PUSH1 0x4 DUP1 CALLDATASIZE SUB DUP2 ADD SWAP1 PUSH2 0xFA SWAP2 SWAP1 PUSH2 0x425 JUMP JUMPDEST PUSH2 0x307 JUMP JUMPDEST STOP JUMPDEST PUSH1 0x0 DUP1 SLOAD SWAP1 PUSH2 0x100 EXP SWAP1 DIV PUSH20 0xFFFFFFFFFFFFFFFFFFFFFFFFFFFFFFFFFFFFFFFF AND DUP1 PUSH20 0xFFFFFFFFFFFFFFFFFFFFFFFFFFFFFFFFFFFFFFFF AND CALLER PUSH20 0xFFFFFFFFFFFFFFFFFFFFFFFFFFFFFFFFFFFFFFFF AND EQ PUSH2 0x190 JUMPI PUSH1 0x40 MLOAD PUSH32 0x8C379A000000000000000000000000000000000000000000000000000000000 DUP2 MSTORE PUSH1 0x4 ADD PUSH2 0x187 SWAP1 PUSH2 0x4E3 JUMP JUMPDEST PUSH1 0x40 MLOAD DUP1 SWAP2 SUB SWAP1 REVERT JUMPDEST PUSH1 0x5 PUSH1 0x1 SLOAD PUSH2 0x19F SWAP2 SWAP1 PUSH2 0x532 JUMP JUMPDEST DUP1 TIMESTAMP LT ISZERO PUSH2 0x1E2 JUMPI PUSH1 0x40 MLOAD PUSH32 0x8C379A000000000000000000000000000000000000000000000000000000000 DUP2 MSTORE PUSH1 0x4 ADD PUSH2 0x1D9 SWAP1 PUSH2 0x5B2 JUMP JUMPDEST PUSH1 0x40 MLOAD DUP1 SWAP2 SUB SWAP1 REVERT JUMPDEST PUSH1 0x0 DUP1 PUSH2 0x100 EXP DUP2 SLOAD SWAP1 PUSH20 0xFFFFFFFFFFFFFFFFFFFFFFFFFFFFFFFFFFFFFFFF MUL NOT AND SWAP1 SSTORE POP POP JUMP JUMPDEST PUSH1 0x0 DUP1 SLOAD SWAP1 PUSH2 0x100 EXP SWAP1 DIV PUSH20 0xFFFFFFFFFFFFFFFFFFFFFFFFFFFFFFFFFFFFFFFF AND DUP2 JUMP JUMPDEST PUSH1 0x0 DUP1 SLOAD SWAP1 PUSH2 0x100 EXP SWAP1 DIV PUSH20 0xFFFFFFFFFFFFFFFFFFFFFFFFFFFFFFFFFFFFFFFF AND DUP1 PUSH20 0xFFFFFFFFFFFFFFFFFFFFFFFFFFFFFFFFFFFFFFFF AND CALLER PUSH20 0xFFFFFFFFFFFFFFFFFFFFFFFFFFFFFFFFFFFFFFFF AND EQ PUSH2 0x2BD JUMPI PUSH1 0x40 MLOAD PUSH32 0x8C379A000000000000000000000000000000000000000000000000000000000 DUP2 MSTORE PUSH1 0x4 ADD PUSH2 0x2B4 SWAP1 PUSH2 0x4E3 JUMP JUMPDEST PUSH1 0x40 MLOAD DUP1 SWAP2 SUB SWAP1 REVERT JUMPDEST DUP2 PUSH1 0x0 DUP1 PUSH2 0x100 EXP DUP2 SLOAD DUP2 PUSH20 0xFFFFFFFFFFFFFFFFFFFFFFFFFFFFFFFFFFFFFFFF MUL NOT AND SWAP1 DUP4 PUSH20 0xFFFFFFFFFFFFFFFFFFFFFFFFFFFFFFFFFFFFFFFF AND MUL OR SWAP1 SSTORE POP POP POP JUMP JUMPDEST PUSH1 0x1 SLOAD DUP2 JUMP JUMPDEST PUSH9 0xAD78EBC5AC6200000 DUP1 CALLVALUE LT ISZERO PUSH2 0x354 JUMPI PUSH1 0x40 MLOAD PUSH32 0x8C379A000000000000000000000000000000000000000000000000000000000 DUP2 MSTORE PUSH1 0x4 ADD PUSH2 0x34B SWAP1 PUSH2 0x61E JUMP JUMPDEST PUSH1 0x40 MLOAD DUP1 SWAP2 SUB SWAP1 REVERT JUMPDEST DUP2 PUSH1 0x0 DUP1 PUSH2 0x100 EXP DUP2 SLOAD DUP2 PUSH20 0xFFFFFFFFFFFFFFFFFFFFFFFFFFFFFFFFFFFFFFFF MUL NOT AND SWAP1 DUP4 PUSH20 0xFFFFFFFFFFFFFFFFFFFFFFFFFFFFFFFFFFFFFFFF AND MUL OR SWAP1 SSTORE POP POP POP JUMP JUMPDEST PUSH1 0x0 PUSH20 0xFFFFFFFFFFFFFFFFFFFFFFFFFFFFFFFFFFFFFFFF DUP3 AND SWAP1 POP SWAP2 SWAP1 POP JUMP JUMPDEST PUSH1 0x0 PUSH2 0x3C3 DUP3 PUSH2 0x398 JUMP JUMPDEST SWAP1 POP SWAP2 SWAP1 POP JUMP JUMPDEST PUSH2 0x3D3 DUP2 PUSH2 0x3B8 JUMP JUMPDEST DUP3 MSTORE POP POP JUMP JUMPDEST PUSH1 0x0 PUSH1 0x20 DUP3 ADD SWAP1 POP PUSH2 0x3EE PUSH1 0x0 DUP4 ADD DUP5 PUSH2 0x3CA JUMP JUMPDEST SWAP3 SWAP2 POP POP JUMP JUMPDEST PUSH1 0x0 DUP1 REVERT JUMPDEST PUSH2 0x402 DUP2 PUSH2 0x3B8 JUMP JUMPDEST DUP2 EQ PUSH2 0x40D JUMPI PUSH1 0x0 DUP1 REVERT JUMPDEST POP JUMP JUMPDEST PUSH1 0x0 DUP2 CALLDATALOAD SWAP1 POP PUSH2 0x41F DUP2 PUSH2 0x3F9 JUMP JUMPDEST SWAP3 SWAP2 POP POP JUMP JUMPDEST PUSH1 0x0 PUSH1 0x20 DUP3 DUP5 SUB SLT ISZERO PUSH2 0x43B JUMPI PUSH2 0x43A PUSH2 0x3F4 JUMP JUMPDEST JUMPDEST PUSH1 0x0 PUSH2 0x449 DUP5 DUP3 DUP6 ADD PUSH2 0x410 JUMP JUMPDEST SWAP2 POP POP SWAP3 SWAP2 POP POP JUMP JUMPDEST PUSH1 0x0 DUP2 SWAP1 POP SWAP2 SWAP1 POP JUMP JUMPDEST PUSH2 0x465 DUP2 PUSH2 0x452 JUMP JUMPDEST DUP3 MSTORE POP POP JUMP JUMPDEST PUSH1 0x0 PUSH1 0x20 DUP3 ADD SWAP1 POP PUSH2 0x480 PUSH1 0x0 DUP4 ADD DUP5 PUSH2 0x45C JUMP JUMPDEST SWAP3 SWAP2 POP POP JUMP JUMPDEST PUSH1 0x0 DUP3 DUP3 MSTORE PUSH1 0x20 DUP3 ADD SWAP1 POP SWAP3 SWAP2 POP POP JUMP JUMPDEST PUSH32 0x73656E646572206E6F7420617574686F72697A65640000000000000000000000 PUSH1 0x0 DUP3 ADD MSTORE POP JUMP JUMPDEST PUSH1 0x0 PUSH2 0x4CD PUSH1 0x15 DUP4 PUSH2 0x486 JUMP JUMPDEST SWAP2 POP PUSH2 0x4D8 DUP3 PUSH2 0x497 JUMP JUMPDEST PUSH1 0x20 DUP3 ADD SWAP1 POP SWAP2 SWAP1 POP JUMP JUMPDEST PUSH1 0x0 PUSH1 0x20 DUP3 ADD SWAP1 POP DUP2 DUP2 SUB PUSH1 0x0 DUP4 ADD MSTORE PUSH2 0x4FC DUP2 PUSH2 0x4C0 JUMP JUMPDEST SWAP1 POP SWAP2 SWAP1 POP JUMP JUMPDEST PUSH32 0x4E487B7100000000000000000000000000000000000000000000000000000000 PUSH1 0x0 MSTORE PUSH1 0x11 PUSH1 0x4 MSTORE PUSH1 0x24 PUSH1 0x0 REVERT JUMPDEST PUSH1 0x0 PUSH2 0x53D DUP3 PUSH2 0x452 JUMP JUMPDEST SWAP2 POP PUSH2 0x548 DUP4 PUSH2 0x452 JUMP JUMPDEST SWAP3 POP DUP3 DUP3 ADD SWAP1 POP DUP1 DUP3 GT ISZERO PUSH2 0x560 JUMPI PUSH2 0x55F PUSH2 0x503 JUMP JUMPDEST JUMPDEST SWAP3 SWAP2 POP POP JUMP JUMPDEST PUSH32 0x66756E6374696F6E2069732063616C6C656420746F6F206561726C7921000000 PUSH1 0x0 DUP3 ADD MSTORE POP JUMP JUMPDEST PUSH1 0x0 PUSH2 0x59C PUSH1 0x1D DUP4 PUSH2 0x486 JUMP JUMPDEST SWAP2 POP PUSH2 0x5A7 DUP3 PUSH2 0x566 JUMP JUMPDEST PUSH1 0x20 DUP3 ADD SWAP1 POP SWAP2 SWAP1 POP JUMP JUMPDEST PUSH1 0x0 PUSH1 0x20 DUP3 ADD SWAP1 POP DUP2 DUP2 SUB PUSH1 0x0 DUP4 ADD MSTORE PUSH2 0x5CB DUP2 PUSH2 0x58F JUMP JUMPDEST SWAP1 POP SWAP2 SWAP1 POP JUMP JUMPDEST PUSH32 0x4E6F7420656E6F7567682045746865722070726F766964656421210000000000 PUSH1 0x0 DUP3 ADD MSTORE POP JUMP JUMPDEST PUSH1 0x0 PUSH2 0x608 PUSH1 0x1B DUP4 PUSH2 0x486 JUMP JUMPDEST SWAP2 POP PUSH2 0x613 DUP3 PUSH2 0x5D2 JUMP JUMPDEST PUSH1 0x20 DUP3 ADD SWAP1 POP SWAP2 SWAP1 POP JUMP JUMPDEST PUSH1 0x0 PUSH1 0x20 DUP3 ADD SWAP1 POP DUP2 DUP2 SUB PUSH1 0x0 DUP4 ADD MSTORE PUSH2 0x637 DUP2 PUSH2 0x5FB JUMP JUMPDEST SWAP1 POP SWAP2 SWAP1 POP JUMP INVALID LOG2 PUSH5 0x6970667358 0x22 SLT KECCAK256 DUP11 SHR 0xA5 0xE2 0x4C CALLDATACOPY 0x27 PUSH26 0x28CD380A120AD446DDB213A4266EB48A685372B359AB8C1C6473 PUSH16 0x6C634300081100330000000000000000 "
				},
				"gasEstimates": {
					"creation": {
						"codeDepositCost": "330400",
						"executionCost": "46739",
						"totalCost": "377139"
					},
					"external": {
						"ForceOwnerChange(address)": "24794",
						"chnageOwnerAddress(address)": "26916",
						"creationTime()": "2473",
						"disown()": "infinite",
						"owner()": "2511"
					}
				},
				"methodIdentifiers": {
					"ForceOwnerChange(address)": "eb880148",
					"chnageOwnerAddress(address)": "d79f1d1f",
					"creationTime()": "d8270dce",
					"disown()": "1e9bf0da",
					"owner()": "8da5cb5b"
				}
			},
			"storageLayout": {
				"storage": [
					{
						"astId": 5,
						"contract": "restricted-access-pattern.sol:RestrictedAccess",
						"label": "owner",
						"offset": 0,
						"slot": "0",
						"type": "t_address"
					},
					{
						"astId": 9,
						"contract": "restricted-access-pattern.sol:RestrictedAccess",
						"label": "creationTime",
						"offset": 0,
						"slot": "1",
						"type": "t_uint256"
					}
				],
				"types": {
					"t_address": {
						"encoding": "inplace",
						"label": "address",
						"numberOfBytes": "20"
					},
					"t_uint256": {
						"encoding": "inplace",
						"label": "uint256",
						"numberOfBytes": "32"
					}
				}
			},
			"userdoc": {
				"kind": "user",
				"methods": {},
				"version": 1
			}
		}
	}
}