{
	"advance-assembly.sol": {
		"LearnAssembly": {
			"abi": [
				{
					"inputs": [],
					"name": "addToEVM",
					"outputs": [],
					"stateMutability": "nonpayable",
					"type": "function"
				},
				{
					"inputs": [],
					"name": "addToEVM2",
					"outputs": [
						{
							"internalType": "bool",
							"name": "",
							"type": "bool"
						}
					],
					"stateMutability": "view",
					"type": "function"
				},
				{
					"inputs": [],
					"name": "addToEVM3",
					"outputs": [],
					"stateMutability": "view",
					"type": "function"
				}
			],
			"devdoc": {
				"kind": "dev",
				"methods": {},
				"version": 1
			},
			"evm": {
				"assembly": "    /* \"advance-assembly.sol\":411:2729  contract LearnAssembly... */\n  mstore(0x40, 0x80)\n  callvalue\n  dup1\n  iszero\n  tag_1\n  jumpi\n  0x00\n  dup1\n  revert\ntag_1:\n  pop\n  dataSize(sub_0)\n  dup1\n  dataOffset(sub_0)\n  0x00\n  codecopy\n  0x00\n  return\nstop\n\nsub_0: assembly {\n        /* \"advance-assembly.sol\":411:2729  contract LearnAssembly... */\n      mstore(0x40, 0x80)\n      callvalue\n      dup1\n      iszero\n      tag_1\n      jumpi\n      0x00\n      dup1\n      revert\n    tag_1:\n      pop\n      jumpi(tag_2, lt(calldatasize, 0x04))\n      shr(0xe0, calldataload(0x00))\n      dup1\n      0x4691c58f\n      eq\n      tag_3\n      jumpi\n      dup1\n      0x4fee737f\n      eq\n      tag_4\n      jumpi\n      dup1\n      0xdadf8fee\n      eq\n      tag_5\n      jumpi\n    tag_2:\n      0x00\n      dup1\n      revert\n        /* \"advance-assembly.sol\":2191:2727  function addToEVM3() external view... */\n    tag_3:\n      tag_6\n      tag_7\n      jump\t// in\n    tag_6:\n      stop\n        /* \"advance-assembly.sol\":1352:1655  function addToEVM2() public view returns(bool)... */\n    tag_4:\n      tag_8\n      tag_9\n      jump\t// in\n    tag_8:\n      mload(0x40)\n      tag_10\n      swap2\n      swap1\n      tag_11\n      jump\t// in\n    tag_10:\n      mload(0x40)\n      dup1\n      swap2\n      sub\n      swap1\n      return\n        /* \"advance-assembly.sol\":440:1282  function addToEVM() external... */\n    tag_5:\n      tag_12\n      tag_13\n      jump\t// in\n    tag_12:\n      stop\n        /* \"advance-assembly.sol\":2191:2727  function addToEVM3() external view... */\n    tag_7:\n        /* \"advance-assembly.sol\":2249:2266  bytes memory data */\n      0x00\n        /* \"advance-assembly.sol\":2279:2281  10 */\n      0x0a\n        /* \"advance-assembly.sol\":2269:2282  new bytes(10) */\n      0xffffffffffffffff\n      dup2\n      gt\n      iszero\n      tag_15\n      jumpi\n      tag_16\n      tag_17\n      jump\t// in\n    tag_16:\n    tag_15:\n      mload(0x40)\n      swap1\n      dup1\n      dup3\n      mstore\n      dup1\n      0x1f\n      add\n      not(0x1f)\n      and\n      0x20\n      add\n      dup3\n      add\n      0x40\n      mstore\n      dup1\n      iszero\n      tag_18\n      jumpi\n      dup2\n      0x20\n      add\n      0x01\n      dup3\n      mul\n      dup1\n      calldatasize\n      dup4\n      calldatacopy\n      dup1\n      dup3\n      add\n      swap2\n      pop\n      pop\n      swap1\n      pop\n    tag_18:\n      pop\n        /* \"advance-assembly.sol\":2249:2282  bytes memory data = new bytes(10) */\n      swap1\n      pop\n        /* \"advance-assembly.sol\":2477:2492  bytes32 dataB32 */\n      0x00\n        /* \"advance-assembly.sol\":2634:2636  32 */\n      0x20\n        /* \"advance-assembly.sol\":2629:2633  data */\n      dup3\n        /* \"advance-assembly.sol\":2625:2637  add(data,32) */\n      add\n        /* \"advance-assembly.sol\":2619:2638  mload(add(data,32)) */\n      mload\n        /* \"advance-assembly.sol\":2610:2638  dataB32:=mload(add(data,32)) */\n      swap1\n      pop\n        /* \"advance-assembly.sol\":2519:2721  {... */\n      pop\n      pop\n        /* \"advance-assembly.sol\":2191:2727  function addToEVM3() external view... */\n      jump\t// out\n        /* \"advance-assembly.sol\":1352:1655  function addToEVM2() public view returns(bool)... */\n    tag_9:\n        /* \"advance-assembly.sol\":1393:1397  bool */\n      0x00\n        /* \"advance-assembly.sol\":1415:1424  uint size */\n      dup1\n        /* \"advance-assembly.sol\":1434:1446  address addr */\n      0x00\n        /* \"advance-assembly.sol\":1580:1584  addr */\n      dup1\n        /* \"advance-assembly.sol\":1568:1585  extcodesize(addr) */\n      extcodesize\n        /* \"advance-assembly.sol\":1560:1585  size := extcodesize(addr) */\n      swap2\n      pop\n        /* \"advance-assembly.sol\":1612:1613  0 */\n      0x00\n        /* \"advance-assembly.sol\":1607:1611  size */\n      dup3\n        /* \"advance-assembly.sol\":1607:1613  size>0 */\n      gt\n        /* \"advance-assembly.sol\":1604:1647  if(size>0){return true;}else{return false;} */\n      iszero\n      tag_20\n      jumpi\n        /* \"advance-assembly.sol\":1622:1626  true */\n      0x01\n        /* \"advance-assembly.sol\":1615:1626  return true */\n      swap3\n      pop\n      pop\n      pop\n      jump(tag_19)\n        /* \"advance-assembly.sol\":1604:1647  if(size>0){return true;}else{return false;} */\n    tag_20:\n        /* \"advance-assembly.sol\":1640:1645  false */\n      0x00\n        /* \"advance-assembly.sol\":1633:1645  return false */\n      swap3\n      pop\n      pop\n      pop\n        /* \"advance-assembly.sol\":1352:1655  function addToEVM2() public view returns(bool)... */\n    tag_19:\n      swap1\n      jump\t// out\n        /* \"advance-assembly.sol\":440:1282  function addToEVM() external... */\n    tag_13:\n      jump\t// out\n        /* \"#utility.yul\":7:97   */\n    tag_23:\n        /* \"#utility.yul\":41:48   */\n      0x00\n        /* \"#utility.yul\":84:89   */\n      dup2\n        /* \"#utility.yul\":77:90   */\n      iszero\n        /* \"#utility.yul\":70:91   */\n      iszero\n        /* \"#utility.yul\":59:91   */\n      swap1\n      pop\n        /* \"#utility.yul\":7:97   */\n      swap2\n      swap1\n      pop\n      jump\t// out\n        /* \"#utility.yul\":103:212   */\n    tag_24:\n        /* \"#utility.yul\":184:205   */\n      tag_28\n        /* \"#utility.yul\":199:204   */\n      dup2\n        /* \"#utility.yul\":184:205   */\n      tag_23\n      jump\t// in\n    tag_28:\n        /* \"#utility.yul\":179:182   */\n      dup3\n        /* \"#utility.yul\":172:206   */\n      mstore\n        /* \"#utility.yul\":103:212   */\n      pop\n      pop\n      jump\t// out\n        /* \"#utility.yul\":218:428   */\n    tag_11:\n        /* \"#utility.yul\":305:309   */\n      0x00\n        /* \"#utility.yul\":343:345   */\n      0x20\n        /* \"#utility.yul\":332:341   */\n      dup3\n        /* \"#utility.yul\":328:346   */\n      add\n        /* \"#utility.yul\":320:346   */\n      swap1\n      pop\n        /* \"#utility.yul\":356:421   */\n      tag_30\n        /* \"#utility.yul\":418:419   */\n      0x00\n        /* \"#utility.yul\":407:416   */\n      dup4\n        /* \"#utility.yul\":403:420   */\n      add\n        /* \"#utility.yul\":394:400   */\n      dup5\n        /* \"#utility.yul\":356:421   */\n      tag_24\n      jump\t// in\n    tag_30:\n        /* \"#utility.yul\":218:428   */\n      swap3\n      swap2\n      pop\n      pop\n      jump\t// out\n        /* \"#utility.yul\":434:614   */\n    tag_17:\n        /* \"#utility.yul\":482:559   */\n      0x4e487b7100000000000000000000000000000000000000000000000000000000\n        /* \"#utility.yul\":479:480   */\n      0x00\n        /* \"#utility.yul\":472:560   */\n      mstore\n        /* \"#utility.yul\":579:583   */\n      0x41\n        /* \"#utility.yul\":576:577   */\n      0x04\n        /* \"#utility.yul\":569:584   */\n      mstore\n        /* \"#utility.yul\":603:607   */\n      0x24\n        /* \"#utility.yul\":600:601   */\n      0x00\n        /* \"#utility.yul\":593:608   */\n      revert\n\n    auxdata: 0xa26469706673582212203442df969498fe9016d86a62031c1a2b3f83175b06593239180df84b20a0a05864736f6c63430008110033\n}\n",
				"bytecode": {
					"linkReferences": {},
					"object": "608060405234801561001057600080fd5b5061019b806100206000396000f3fe608060405234801561001057600080fd5b50600436106100415760003560e01c80634691c58f146100465780634fee737f14610050578063dadf8fee1461006e575b600080fd5b61004e610078565b005b6100586100d7565b604051610065919061011b565b60405180910390f35b6100766100fe565b005b6000600a67ffffffffffffffff81111561009557610094610136565b5b6040519080825280601f01601f1916602001820160405280156100c75781602001600182028036833780820191505090505b5090506000602082015190505050565b6000806000803b915060008211156100f4576001925050506100fb565b6000925050505b90565b565b60008115159050919050565b61011581610100565b82525050565b6000602082019050610130600083018461010c565b92915050565b7f4e487b7100000000000000000000000000000000000000000000000000000000600052604160045260246000fdfea26469706673582212203442df969498fe9016d86a62031c1a2b3f83175b06593239180df84b20a0a05864736f6c63430008110033",
					"opcodes": "PUSH1 0x80 PUSH1 0x40 MSTORE CALLVALUE DUP1 ISZERO PUSH2 0x10 JUMPI PUSH1 0x0 DUP1 REVERT JUMPDEST POP PUSH2 0x19B DUP1 PUSH2 0x20 PUSH1 0x0 CODECOPY PUSH1 0x0 RETURN INVALID PUSH1 0x80 PUSH1 0x40 MSTORE CALLVALUE DUP1 ISZERO PUSH2 0x10 JUMPI PUSH1 0x0 DUP1 REVERT JUMPDEST POP PUSH1 0x4 CALLDATASIZE LT PUSH2 0x41 JUMPI PUSH1 0x0 CALLDATALOAD PUSH1 0xE0 SHR DUP1 PUSH4 0x4691C58F EQ PUSH2 0x46 JUMPI DUP1 PUSH4 0x4FEE737F EQ PUSH2 0x50 JUMPI DUP1 PUSH4 0xDADF8FEE EQ PUSH2 0x6E JUMPI JUMPDEST PUSH1 0x0 DUP1 REVERT JUMPDEST PUSH2 0x4E PUSH2 0x78 JUMP JUMPDEST STOP JUMPDEST PUSH2 0x58 PUSH2 0xD7 JUMP JUMPDEST PUSH1 0x40 MLOAD PUSH2 0x65 SWAP2 SWAP1 PUSH2 0x11B JUMP JUMPDEST PUSH1 0x40 MLOAD DUP1 SWAP2 SUB SWAP1 RETURN JUMPDEST PUSH2 0x76 PUSH2 0xFE JUMP JUMPDEST STOP JUMPDEST PUSH1 0x0 PUSH1 0xA PUSH8 0xFFFFFFFFFFFFFFFF DUP2 GT ISZERO PUSH2 0x95 JUMPI PUSH2 0x94 PUSH2 0x136 JUMP JUMPDEST JUMPDEST PUSH1 0x40 MLOAD SWAP1 DUP1 DUP3 MSTORE DUP1 PUSH1 0x1F ADD PUSH1 0x1F NOT AND PUSH1 0x20 ADD DUP3 ADD PUSH1 0x40 MSTORE DUP1 ISZERO PUSH2 0xC7 JUMPI DUP2 PUSH1 0x20 ADD PUSH1 0x1 DUP3 MUL DUP1 CALLDATASIZE DUP4 CALLDATACOPY DUP1 DUP3 ADD SWAP2 POP POP SWAP1 POP JUMPDEST POP SWAP1 POP PUSH1 0x0 PUSH1 0x20 DUP3 ADD MLOAD SWAP1 POP POP POP JUMP JUMPDEST PUSH1 0x0 DUP1 PUSH1 0x0 DUP1 EXTCODESIZE SWAP2 POP PUSH1 0x0 DUP3 GT ISZERO PUSH2 0xF4 JUMPI PUSH1 0x1 SWAP3 POP POP POP PUSH2 0xFB JUMP JUMPDEST PUSH1 0x0 SWAP3 POP POP POP JUMPDEST SWAP1 JUMP JUMPDEST JUMP JUMPDEST PUSH1 0x0 DUP2 ISZERO ISZERO SWAP1 POP SWAP2 SWAP1 POP JUMP JUMPDEST PUSH2 0x115 DUP2 PUSH2 0x100 JUMP JUMPDEST DUP3 MSTORE POP POP JUMP JUMPDEST PUSH1 0x0 PUSH1 0x20 DUP3 ADD SWAP1 POP PUSH2 0x130 PUSH1 0x0 DUP4 ADD DUP5 PUSH2 0x10C JUMP JUMPDEST SWAP3 SWAP2 POP POP JUMP JUMPDEST PUSH32 0x4E487B7100000000000000000000000000000000000000000000000000000000 PUSH1 0x0 MSTORE PUSH1 0x41 PUSH1 0x4 MSTORE PUSH1 0x24 PUSH1 0x0 REVERT INVALID LOG2 PUSH5 0x6970667358 0x22 SLT KECCAK256 CALLVALUE TIMESTAMP 0xDF SWAP7 SWAP5 SWAP9 INVALID SWAP1 AND 0xD8 PUSH11 0x62031C1A2B3F83175B0659 ORIGIN CODECOPY XOR 0xD 0xF8 0x4B KECCAK256 LOG0 LOG0 PC PUSH5 0x736F6C6343 STOP ADDMOD GT STOP CALLER "
				},
				"gasEstimates": {
					"creation": {
						"codeDepositCost": "82200",
						"executionCost": "129",
						"totalCost": "82329"
					},
					"external": {
						"addToEVM()": "166",
						"addToEVM2()": "2998",
						"addToEVM3()": "323"
					}
				},
				"methodIdentifiers": {
					"addToEVM()": "dadf8fee",
					"addToEVM2()": "4fee737f",
					"addToEVM3()": "4691c58f"
				}
			},
			"storageLayout": {
				"storage": [],
				"types": null
			},
			"userdoc": {
				"kind": "user",
				"methods": {},
				"version": 1
			}
		}
	}
}