{
	"EntranceForAdvance.sol": {
		"D": {
			"abi": [
				{
					"inputs": [],
					"name": "readInfo",
					"outputs": [
						{
							"internalType": "uint256",
							"name": "",
							"type": "uint256"
						}
					],
					"stateMutability": "view",
					"type": "function"
				}
			],
			"devdoc": {
				"kind": "dev",
				"methods": {},
				"version": 1
			},
			"evm": {
				"assembly": "    /* \"EntranceForAdvance.sol\":2743:2878  contract D... */\n  mstore(0x40, 0x80)\n    /* \"EntranceForAdvance.sol\":2763:2770  new C() */\n  mload(0x40)\n  tag_1\n  swap1\n  tag_2\n  jump\t// in\ntag_1:\n  mload(0x40)\n  dup1\n  swap2\n  sub\n  swap1\n  0x00\n  create\n  dup1\n  iszero\n  dup1\n  iszero\n  tag_3\n  jumpi\n  returndatasize\n  0x00\n  dup1\n  returndatacopy\n  revert(0x00, returndatasize)\ntag_3:\n  pop\n    /* \"EntranceForAdvance.sol\":2758:2770  C c= new C() */\n  0x00\n  dup1\n  0x0100\n  exp\n  dup2\n  sload\n  dup2\n  0xffffffffffffffffffffffffffffffffffffffff\n  mul\n  not\n  and\n  swap1\n  dup4\n  0xffffffffffffffffffffffffffffffffffffffff\n  and\n  mul\n  or\n  swap1\n  sstore\n  pop\n    /* \"EntranceForAdvance.sol\":2743:2878  contract D... */\n  callvalue\n  dup1\n  iszero\n  tag_4\n  jumpi\n  0x00\n  dup1\n  revert\ntag_4:\n  pop\n  jump(tag_5)\ntag_2:\n  dataSize(sub_1)\n  dup1\n  dataOffset(sub_1)\n  dup4\n  codecopy\n  add\n  swap1\n  jump\t// out\ntag_5:\n  dataSize(sub_0)\n  dup1\n  dataOffset(sub_0)\n  0x00\n  codecopy\n  0x00\n  return\nstop\n\nsub_0: assembly {\n        /* \"EntranceForAdvance.sol\":2743:2878  contract D... */\n      mstore(0x40, 0x80)\n      callvalue\n      dup1\n      iszero\n      tag_1\n      jumpi\n      0x00\n      dup1\n      revert\n    tag_1:\n      pop\n      jumpi(tag_2, lt(calldatasize, 0x04))\n      shr(0xe0, calldataload(0x00))\n      dup1\n      0x3d88f137\n      eq\n      tag_3\n      jumpi\n    tag_2:\n      0x00\n      dup1\n      revert\n        /* \"EntranceForAdvance.sol\":2775:2876  function readInfo() public view returns(uint)... */\n    tag_3:\n      tag_4\n      tag_5\n      jump\t// in\n    tag_4:\n      mload(0x40)\n      tag_6\n      swap2\n      swap1\n      tag_7\n      jump\t// in\n    tag_6:\n      mload(0x40)\n      dup1\n      swap2\n      sub\n      swap1\n      return\n    tag_5:\n        /* \"EntranceForAdvance.sol\":2815:2819  uint */\n      0x00\n        /* \"EntranceForAdvance.sol\":2836:2837  c */\n      dup1\n      0x00\n      swap1\n      sload\n      swap1\n      0x0100\n      exp\n      swap1\n      div\n      0xffffffffffffffffffffffffffffffffffffffff\n      and\n        /* \"EntranceForAdvance.sol\":2836:2842  c.info */\n      0xffffffffffffffffffffffffffffffffffffffff\n      and\n      0x370158ea\n        /* \"EntranceForAdvance.sol\":2836:2844  c.info() */\n      mload(0x40)\n      dup2\n      0xffffffff\n      and\n      0xe0\n      shl\n      dup2\n      mstore\n      0x04\n      add\n      0x20\n      mload(0x40)\n      dup1\n      dup4\n      sub\n      dup2\n      dup7\n      gas\n      staticcall\n      iszero\n      dup1\n      iszero\n      tag_10\n      jumpi\n      returndatasize\n      0x00\n      dup1\n      returndatacopy\n      revert(0x00, returndatasize)\n    tag_10:\n      pop\n      pop\n      pop\n      pop\n      mload(0x40)\n      returndatasize\n      not(0x1f)\n      0x1f\n      dup3\n      add\n      and\n      dup3\n      add\n      dup1\n      0x40\n      mstore\n      pop\n      dup2\n      add\n      swap1\n      tag_11\n      swap2\n      swap1\n      tag_12\n      jump\t// in\n    tag_11:\n        /* \"EntranceForAdvance.sol\":2829:2844  return c.info() */\n      swap1\n      pop\n        /* \"EntranceForAdvance.sol\":2775:2876  function readInfo() public view returns(uint)... */\n      swap1\n      jump\t// out\n        /* \"#utility.yul\":7:84   */\n    tag_13:\n        /* \"#utility.yul\":44:51   */\n      0x00\n        /* \"#utility.yul\":73:78   */\n      dup2\n        /* \"#utility.yul\":62:78   */\n      swap1\n      pop\n        /* \"#utility.yul\":7:84   */\n      swap2\n      swap1\n      pop\n      jump\t// out\n        /* \"#utility.yul\":90:208   */\n    tag_14:\n        /* \"#utility.yul\":177:201   */\n      tag_23\n        /* \"#utility.yul\":195:200   */\n      dup2\n        /* \"#utility.yul\":177:201   */\n      tag_13\n      jump\t// in\n    tag_23:\n        /* \"#utility.yul\":172:175   */\n      dup3\n        /* \"#utility.yul\":165:202   */\n      mstore\n        /* \"#utility.yul\":90:208   */\n      pop\n      pop\n      jump\t// out\n        /* \"#utility.yul\":214:436   */\n    tag_7:\n        /* \"#utility.yul\":307:311   */\n      0x00\n        /* \"#utility.yul\":345:347   */\n      0x20\n        /* \"#utility.yul\":334:343   */\n      dup3\n        /* \"#utility.yul\":330:348   */\n      add\n        /* \"#utility.yul\":322:348   */\n      swap1\n      pop\n        /* \"#utility.yul\":358:429   */\n      tag_25\n        /* \"#utility.yul\":426:427   */\n      0x00\n        /* \"#utility.yul\":415:424   */\n      dup4\n        /* \"#utility.yul\":411:428   */\n      add\n        /* \"#utility.yul\":402:408   */\n      dup5\n        /* \"#utility.yul\":358:429   */\n      tag_14\n      jump\t// in\n    tag_25:\n        /* \"#utility.yul\":214:436   */\n      swap3\n      swap2\n      pop\n      pop\n      jump\t// out\n        /* \"#utility.yul\":523:640   */\n    tag_16:\n        /* \"#utility.yul\":632:633   */\n      0x00\n        /* \"#utility.yul\":629:630   */\n      dup1\n        /* \"#utility.yul\":622:634   */\n      revert\n        /* \"#utility.yul\":769:891   */\n    tag_18:\n        /* \"#utility.yul\":842:866   */\n      tag_30\n        /* \"#utility.yul\":860:865   */\n      dup2\n        /* \"#utility.yul\":842:866   */\n      tag_13\n      jump\t// in\n    tag_30:\n        /* \"#utility.yul\":835:840   */\n      dup2\n        /* \"#utility.yul\":832:867   */\n      eq\n        /* \"#utility.yul\":822:885   */\n      tag_31\n      jumpi\n        /* \"#utility.yul\":881:882   */\n      0x00\n        /* \"#utility.yul\":878:879   */\n      dup1\n        /* \"#utility.yul\":871:883   */\n      revert\n        /* \"#utility.yul\":822:885   */\n    tag_31:\n        /* \"#utility.yul\":769:891   */\n      pop\n      jump\t// out\n        /* \"#utility.yul\":897:1040   */\n    tag_19:\n        /* \"#utility.yul\":954:959   */\n      0x00\n        /* \"#utility.yul\":985:991   */\n      dup2\n        /* \"#utility.yul\":979:992   */\n      mload\n        /* \"#utility.yul\":970:992   */\n      swap1\n      pop\n        /* \"#utility.yul\":1001:1034   */\n      tag_33\n        /* \"#utility.yul\":1028:1033   */\n      dup2\n        /* \"#utility.yul\":1001:1034   */\n      tag_18\n      jump\t// in\n    tag_33:\n        /* \"#utility.yul\":897:1040   */\n      swap3\n      swap2\n      pop\n      pop\n      jump\t// out\n        /* \"#utility.yul\":1046:1397   */\n    tag_12:\n        /* \"#utility.yul\":1116:1122   */\n      0x00\n        /* \"#utility.yul\":1165:1167   */\n      0x20\n        /* \"#utility.yul\":1153:1162   */\n      dup3\n        /* \"#utility.yul\":1144:1151   */\n      dup5\n        /* \"#utility.yul\":1140:1163   */\n      sub\n        /* \"#utility.yul\":1136:1168   */\n      slt\n        /* \"#utility.yul\":1133:1252   */\n      iszero\n      tag_35\n      jumpi\n        /* \"#utility.yul\":1171:1250   */\n      tag_36\n      tag_16\n      jump\t// in\n    tag_36:\n        /* \"#utility.yul\":1133:1252   */\n    tag_35:\n        /* \"#utility.yul\":1291:1292   */\n      0x00\n        /* \"#utility.yul\":1316:1380   */\n      tag_37\n        /* \"#utility.yul\":1372:1379   */\n      dup5\n        /* \"#utility.yul\":1363:1369   */\n      dup3\n        /* \"#utility.yul\":1352:1361   */\n      dup6\n        /* \"#utility.yul\":1348:1370   */\n      add\n        /* \"#utility.yul\":1316:1380   */\n      tag_19\n      jump\t// in\n    tag_37:\n        /* \"#utility.yul\":1306:1380   */\n      swap2\n      pop\n        /* \"#utility.yul\":1262:1390   */\n      pop\n        /* \"#utility.yul\":1046:1397   */\n      swap3\n      swap2\n      pop\n      pop\n      jump\t// out\n\n    auxdata: 0xa2646970667358221220812a8942b7aef4a54550e915d078fabd0e0056c878da02c968f82c0b95d84e1c64736f6c63430008110033\n}\n\nsub_1: assembly {\n        /* \"EntranceForAdvance.sol\":2368:2741  contract C... */\n      mstore(0x40, 0x80)\n        /* \"EntranceForAdvance.sol\":2428:2468  constructor ()... */\n      callvalue\n      dup1\n      iszero\n      tag_1\n      jumpi\n      0x00\n      dup1\n      revert\n    tag_1:\n      pop\n        /* \"EntranceForAdvance.sol\":2460:2462  10 */\n      0x0a\n        /* \"EntranceForAdvance.sol\":2455:2459  info */\n      0x01\n        /* \"EntranceForAdvance.sol\":2455:2462  info=10 */\n      dup2\n      swap1\n      sstore\n      pop\n        /* \"EntranceForAdvance.sol\":2368:2741  contract C... */\n      dataSize(sub_0)\n      dup1\n      dataOffset(sub_0)\n      0x00\n      codecopy\n      0x00\n      return\n    stop\n\n    sub_0: assembly {\n            /* \"EntranceForAdvance.sol\":2368:2741  contract C... */\n          mstore(0x40, 0x80)\n          callvalue\n          dup1\n          iszero\n          tag_1\n          jumpi\n          0x00\n          dup1\n          revert\n        tag_1:\n          pop\n          jumpi(tag_2, lt(calldatasize, 0x04))\n          shr(0xe0, calldataload(0x00))\n          dup1\n          0x09e96008\n          eq\n          tag_3\n          jumpi\n          dup1\n          0x370158ea\n          eq\n          tag_4\n          jumpi\n          dup1\n          0x3bc5de30\n          eq\n          tag_5\n          jumpi\n        tag_2:\n          0x00\n          dup1\n          revert\n            /* \"EntranceForAdvance.sol\":2547:2593  function updateData(uint a) public { data=a; } */\n        tag_3:\n          tag_6\n          0x04\n          dup1\n          calldatasize\n          sub\n          dup2\n          add\n          swap1\n          tag_7\n          swap2\n          swap1\n          tag_8\n          jump\t// in\n        tag_7:\n          tag_9\n          jump\t// in\n        tag_6:\n          stop\n            /* \"EntranceForAdvance.sol\":2406:2422  uint public info */\n        tag_4:\n          tag_10\n          tag_11\n          jump\t// in\n        tag_10:\n          mload(0x40)\n          tag_12\n          swap2\n          swap1\n          tag_13\n          jump\t// in\n        tag_12:\n          mload(0x40)\n          dup1\n          swap2\n          sub\n          swap1\n          return\n            /* \"EntranceForAdvance.sol\":2598:2659  function getData() public view returns(uint) { return data; } */\n        tag_5:\n          tag_14\n          tag_15\n          jump\t// in\n        tag_14:\n          mload(0x40)\n          tag_16\n          swap2\n          swap1\n          tag_13\n          jump\t// in\n        tag_16:\n          mload(0x40)\n          dup1\n          swap2\n          sub\n          swap1\n          return\n            /* \"EntranceForAdvance.sol\":2547:2593  function updateData(uint a) public { data=a; } */\n        tag_9:\n            /* \"EntranceForAdvance.sol\":2589:2590  a */\n          dup1\n            /* \"EntranceForAdvance.sol\":2584:2588  data */\n          0x00\n            /* \"EntranceForAdvance.sol\":2584:2590  data=a */\n          dup2\n          swap1\n          sstore\n          pop\n            /* \"EntranceForAdvance.sol\":2547:2593  function updateData(uint a) public { data=a; } */\n          pop\n          jump\t// out\n            /* \"EntranceForAdvance.sol\":2406:2422  uint public info */\n        tag_11:\n          sload(0x01)\n          dup2\n          jump\t// out\n            /* \"EntranceForAdvance.sol\":2598:2659  function getData() public view returns(uint) { return data; } */\n        tag_15:\n            /* \"EntranceForAdvance.sol\":2637:2641  uint */\n          0x00\n            /* \"EntranceForAdvance.sol\":2652:2656  data */\n          dup1\n          sload\n            /* \"EntranceForAdvance.sol\":2645:2656  return data */\n          swap1\n          pop\n            /* \"EntranceForAdvance.sol\":2598:2659  function getData() public view returns(uint) { return data; } */\n          swap1\n          jump\t// out\n            /* \"#utility.yul\":88:205   */\n        tag_20:\n            /* \"#utility.yul\":197:198   */\n          0x00\n            /* \"#utility.yul\":194:195   */\n          dup1\n            /* \"#utility.yul\":187:199   */\n          revert\n            /* \"#utility.yul\":334:411   */\n        tag_22:\n            /* \"#utility.yul\":371:378   */\n          0x00\n            /* \"#utility.yul\":400:405   */\n          dup2\n            /* \"#utility.yul\":389:405   */\n          swap1\n          pop\n            /* \"#utility.yul\":334:411   */\n          swap2\n          swap1\n          pop\n          jump\t// out\n            /* \"#utility.yul\":417:539   */\n        tag_23:\n            /* \"#utility.yul\":490:514   */\n          tag_32\n            /* \"#utility.yul\":508:513   */\n          dup2\n            /* \"#utility.yul\":490:514   */\n          tag_22\n          jump\t// in\n        tag_32:\n            /* \"#utility.yul\":483:488   */\n          dup2\n            /* \"#utility.yul\":480:515   */\n          eq\n            /* \"#utility.yul\":470:533   */\n          tag_33\n          jumpi\n            /* \"#utility.yul\":529:530   */\n          0x00\n            /* \"#utility.yul\":526:527   */\n          dup1\n            /* \"#utility.yul\":519:531   */\n          revert\n            /* \"#utility.yul\":470:533   */\n        tag_33:\n            /* \"#utility.yul\":417:539   */\n          pop\n          jump\t// out\n            /* \"#utility.yul\":545:684   */\n        tag_24:\n            /* \"#utility.yul\":591:596   */\n          0x00\n            /* \"#utility.yul\":629:635   */\n          dup2\n            /* \"#utility.yul\":616:636   */\n          calldataload\n            /* \"#utility.yul\":607:636   */\n          swap1\n          pop\n            /* \"#utility.yul\":645:678   */\n          tag_35\n            /* \"#utility.yul\":672:677   */\n          dup2\n            /* \"#utility.yul\":645:678   */\n          tag_23\n          jump\t// in\n        tag_35:\n            /* \"#utility.yul\":545:684   */\n          swap3\n          swap2\n          pop\n          pop\n          jump\t// out\n            /* \"#utility.yul\":690:1019   */\n        tag_8:\n            /* \"#utility.yul\":749:755   */\n          0x00\n            /* \"#utility.yul\":798:800   */\n          0x20\n            /* \"#utility.yul\":786:795   */\n          dup3\n            /* \"#utility.yul\":777:784   */\n          dup5\n            /* \"#utility.yul\":773:796   */\n          sub\n            /* \"#utility.yul\":769:801   */\n          slt\n            /* \"#utility.yul\":766:885   */\n          iszero\n          tag_37\n          jumpi\n            /* \"#utility.yul\":804:883   */\n          tag_38\n          tag_20\n          jump\t// in\n        tag_38:\n            /* \"#utility.yul\":766:885   */\n        tag_37:\n            /* \"#utility.yul\":924:925   */\n          0x00\n            /* \"#utility.yul\":949:1002   */\n          tag_39\n            /* \"#utility.yul\":994:1001   */\n          dup5\n            /* \"#utility.yul\":985:991   */\n          dup3\n            /* \"#utility.yul\":974:983   */\n          dup6\n            /* \"#utility.yul\":970:992   */\n          add\n            /* \"#utility.yul\":949:1002   */\n          tag_24\n          jump\t// in\n        tag_39:\n            /* \"#utility.yul\":939:1002   */\n          swap2\n          pop\n            /* \"#utility.yul\":895:1012   */\n          pop\n            /* \"#utility.yul\":690:1019   */\n          swap3\n          swap2\n          pop\n          pop\n          jump\t// out\n            /* \"#utility.yul\":1025:1143   */\n        tag_25:\n            /* \"#utility.yul\":1112:1136   */\n          tag_41\n            /* \"#utility.yul\":1130:1135   */\n          dup2\n            /* \"#utility.yul\":1112:1136   */\n          tag_22\n          jump\t// in\n        tag_41:\n            /* \"#utility.yul\":1107:1110   */\n          dup3\n            /* \"#utility.yul\":1100:1137   */\n          mstore\n            /* \"#utility.yul\":1025:1143   */\n          pop\n          pop\n          jump\t// out\n            /* \"#utility.yul\":1149:1371   */\n        tag_13:\n            /* \"#utility.yul\":1242:1246   */\n          0x00\n            /* \"#utility.yul\":1280:1282   */\n          0x20\n            /* \"#utility.yul\":1269:1278   */\n          dup3\n            /* \"#utility.yul\":1265:1283   */\n          add\n            /* \"#utility.yul\":1257:1283   */\n          swap1\n          pop\n            /* \"#utility.yul\":1293:1364   */\n          tag_43\n            /* \"#utility.yul\":1361:1362   */\n          0x00\n            /* \"#utility.yul\":1350:1359   */\n          dup4\n            /* \"#utility.yul\":1346:1363   */\n          add\n            /* \"#utility.yul\":1337:1343   */\n          dup5\n            /* \"#utility.yul\":1293:1364   */\n          tag_25\n          jump\t// in\n        tag_43:\n            /* \"#utility.yul\":1149:1371   */\n          swap3\n          swap2\n          pop\n          pop\n          jump\t// out\n\n        auxdata: 0xa2646970667358221220d9362b90a4ae7d834be95765e9099eca319862c79bbd1a577c1841cbc6b99b7264736f6c63430008110033\n    }\n}\n",
				"bytecode": {
					"linkReferences": {},
					"object": "60806040526040516100109061007e565b604051809103906000f08015801561002c573d6000803e3d6000fd5b506000806101000a81548173ffffffffffffffffffffffffffffffffffffffff021916908373ffffffffffffffffffffffffffffffffffffffff16021790555034801561007857600080fd5b5061008b565b6101a78061024783390190565b6101ad8061009a6000396000f3fe608060405234801561001057600080fd5b506004361061002b5760003560e01c80633d88f13714610030575b600080fd5b61003861004e565b60405161004591906100fe565b60405180910390f35b60008060009054906101000a900473ffffffffffffffffffffffffffffffffffffffff1673ffffffffffffffffffffffffffffffffffffffff1663370158ea6040518163ffffffff1660e01b8152600401602060405180830381865afa1580156100bc573d6000803e3d6000fd5b505050506040513d601f19601f820116820180604052508101906100e0919061014a565b905090565b6000819050919050565b6100f8816100e5565b82525050565b600060208201905061011360008301846100ef565b92915050565b600080fd5b610127816100e5565b811461013257600080fd5b50565b6000815190506101448161011e565b92915050565b6000602082840312156101605761015f610119565b5b600061016e84828501610135565b9150509291505056fea2646970667358221220812a8942b7aef4a54550e915d078fabd0e0056c878da02c968f82c0b95d84e1c64736f6c63430008110033608060405234801561001057600080fd5b50600a60018190555061017f806100286000396000f3fe608060405234801561001057600080fd5b50600436106100415760003560e01c806309e9600814610046578063370158ea146100625780633bc5de3014610080575b600080fd5b610060600480360381019061005b91906100f2565b61009e565b005b61006a6100a8565b604051610077919061012e565b60405180910390f35b6100886100ae565b604051610095919061012e565b60405180910390f35b8060008190555050565b60015481565b60008054905090565b600080fd5b6000819050919050565b6100cf816100bc565b81146100da57600080fd5b50565b6000813590506100ec816100c6565b92915050565b600060208284031215610108576101076100b7565b5b6000610116848285016100dd565b91505092915050565b610128816100bc565b82525050565b6000602082019050610143600083018461011f565b9291505056fea2646970667358221220d9362b90a4ae7d834be95765e9099eca319862c79bbd1a577c1841cbc6b99b7264736f6c63430008110033",
					"opcodes": "PUSH1 0x80 PUSH1 0x40 MSTORE PUSH1 0x40 MLOAD PUSH2 0x10 SWAP1 PUSH2 0x7E JUMP JUMPDEST PUSH1 0x40 MLOAD DUP1 SWAP2 SUB SWAP1 PUSH1 0x0 CREATE DUP1 ISZERO DUP1 ISZERO PUSH2 0x2C JUMPI RETURNDATASIZE PUSH1 0x0 DUP1 RETURNDATACOPY RETURNDATASIZE PUSH1 0x0 REVERT JUMPDEST POP PUSH1 0x0 DUP1 PUSH2 0x100 EXP DUP2 SLOAD DUP2 PUSH20 0xFFFFFFFFFFFFFFFFFFFFFFFFFFFFFFFFFFFFFFFF MUL NOT AND SWAP1 DUP4 PUSH20 0xFFFFFFFFFFFFFFFFFFFFFFFFFFFFFFFFFFFFFFFF AND MUL OR SWAP1 SSTORE POP CALLVALUE DUP1 ISZERO PUSH2 0x78 JUMPI PUSH1 0x0 DUP1 REVERT JUMPDEST POP PUSH2 0x8B JUMP JUMPDEST PUSH2 0x1A7 DUP1 PUSH2 0x247 DUP4 CODECOPY ADD SWAP1 JUMP JUMPDEST PUSH2 0x1AD DUP1 PUSH2 0x9A PUSH1 0x0 CODECOPY PUSH1 0x0 RETURN INVALID PUSH1 0x80 PUSH1 0x40 MSTORE CALLVALUE DUP1 ISZERO PUSH2 0x10 JUMPI PUSH1 0x0 DUP1 REVERT JUMPDEST POP PUSH1 0x4 CALLDATASIZE LT PUSH2 0x2B JUMPI PUSH1 0x0 CALLDATALOAD PUSH1 0xE0 SHR DUP1 PUSH4 0x3D88F137 EQ PUSH2 0x30 JUMPI JUMPDEST PUSH1 0x0 DUP1 REVERT JUMPDEST PUSH2 0x38 PUSH2 0x4E JUMP JUMPDEST PUSH1 0x40 MLOAD PUSH2 0x45 SWAP2 SWAP1 PUSH2 0xFE JUMP JUMPDEST PUSH1 0x40 MLOAD DUP1 SWAP2 SUB SWAP1 RETURN JUMPDEST PUSH1 0x0 DUP1 PUSH1 0x0 SWAP1 SLOAD SWAP1 PUSH2 0x100 EXP SWAP1 DIV PUSH20 0xFFFFFFFFFFFFFFFFFFFFFFFFFFFFFFFFFFFFFFFF AND PUSH20 0xFFFFFFFFFFFFFFFFFFFFFFFFFFFFFFFFFFFFFFFF AND PUSH4 0x370158EA PUSH1 0x40 MLOAD DUP2 PUSH4 0xFFFFFFFF AND PUSH1 0xE0 SHL DUP2 MSTORE PUSH1 0x4 ADD PUSH1 0x20 PUSH1 0x40 MLOAD DUP1 DUP4 SUB DUP2 DUP7 GAS STATICCALL ISZERO DUP1 ISZERO PUSH2 0xBC JUMPI RETURNDATASIZE PUSH1 0x0 DUP1 RETURNDATACOPY RETURNDATASIZE PUSH1 0x0 REVERT JUMPDEST POP POP POP POP PUSH1 0x40 MLOAD RETURNDATASIZE PUSH1 0x1F NOT PUSH1 0x1F DUP3 ADD AND DUP3 ADD DUP1 PUSH1 0x40 MSTORE POP DUP2 ADD SWAP1 PUSH2 0xE0 SWAP2 SWAP1 PUSH2 0x14A JUMP JUMPDEST SWAP1 POP SWAP1 JUMP JUMPDEST PUSH1 0x0 DUP2 SWAP1 POP SWAP2 SWAP1 POP JUMP JUMPDEST PUSH2 0xF8 DUP2 PUSH2 0xE5 JUMP JUMPDEST DUP3 MSTORE POP POP JUMP JUMPDEST PUSH1 0x0 PUSH1 0x20 DUP3 ADD SWAP1 POP PUSH2 0x113 PUSH1 0x0 DUP4 ADD DUP5 PUSH2 0xEF JUMP JUMPDEST SWAP3 SWAP2 POP POP JUMP JUMPDEST PUSH1 0x0 DUP1 REVERT JUMPDEST PUSH2 0x127 DUP2 PUSH2 0xE5 JUMP JUMPDEST DUP2 EQ PUSH2 0x132 JUMPI PUSH1 0x0 DUP1 REVERT JUMPDEST POP JUMP JUMPDEST PUSH1 0x0 DUP2 MLOAD SWAP1 POP PUSH2 0x144 DUP2 PUSH2 0x11E JUMP JUMPDEST SWAP3 SWAP2 POP POP JUMP JUMPDEST PUSH1 0x0 PUSH1 0x20 DUP3 DUP5 SUB SLT ISZERO PUSH2 0x160 JUMPI PUSH2 0x15F PUSH2 0x119 JUMP JUMPDEST JUMPDEST PUSH1 0x0 PUSH2 0x16E DUP5 DUP3 DUP6 ADD PUSH2 0x135 JUMP JUMPDEST SWAP2 POP POP SWAP3 SWAP2 POP POP JUMP INVALID LOG2 PUSH5 0x6970667358 0x22 SLT KECCAK256 DUP2 0x2A DUP10 TIMESTAMP 0xB7 0xAE DELEGATECALL 0xA5 GASLIMIT POP 0xE9 ISZERO 0xD0 PUSH25 0xFABD0E0056C878DA02C968F82C0B95D84E1C64736F6C634300 ADDMOD GT STOP CALLER PUSH1 0x80 PUSH1 0x40 MSTORE CALLVALUE DUP1 ISZERO PUSH2 0x10 JUMPI PUSH1 0x0 DUP1 REVERT JUMPDEST POP PUSH1 0xA PUSH1 0x1 DUP2 SWAP1 SSTORE POP PUSH2 0x17F DUP1 PUSH2 0x28 PUSH1 0x0 CODECOPY PUSH1 0x0 RETURN INVALID PUSH1 0x80 PUSH1 0x40 MSTORE CALLVALUE DUP1 ISZERO PUSH2 0x10 JUMPI PUSH1 0x0 DUP1 REVERT JUMPDEST POP PUSH1 0x4 CALLDATASIZE LT PUSH2 0x41 JUMPI PUSH1 0x0 CALLDATALOAD PUSH1 0xE0 SHR DUP1 PUSH4 0x9E96008 EQ PUSH2 0x46 JUMPI DUP1 PUSH4 0x370158EA EQ PUSH2 0x62 JUMPI DUP1 PUSH4 0x3BC5DE30 EQ PUSH2 0x80 JUMPI JUMPDEST PUSH1 0x0 DUP1 REVERT JUMPDEST PUSH2 0x60 PUSH1 0x4 DUP1 CALLDATASIZE SUB DUP2 ADD SWAP1 PUSH2 0x5B SWAP2 SWAP1 PUSH2 0xF2 JUMP JUMPDEST PUSH2 0x9E JUMP JUMPDEST STOP JUMPDEST PUSH2 0x6A PUSH2 0xA8 JUMP JUMPDEST PUSH1 0x40 MLOAD PUSH2 0x77 SWAP2 SWAP1 PUSH2 0x12E JUMP JUMPDEST PUSH1 0x40 MLOAD DUP1 SWAP2 SUB SWAP1 RETURN JUMPDEST PUSH2 0x88 PUSH2 0xAE JUMP JUMPDEST PUSH1 0x40 MLOAD PUSH2 0x95 SWAP2 SWAP1 PUSH2 0x12E JUMP JUMPDEST PUSH1 0x40 MLOAD DUP1 SWAP2 SUB SWAP1 RETURN JUMPDEST DUP1 PUSH1 0x0 DUP2 SWAP1 SSTORE POP POP JUMP JUMPDEST PUSH1 0x1 SLOAD DUP2 JUMP JUMPDEST PUSH1 0x0 DUP1 SLOAD SWAP1 POP SWAP1 JUMP JUMPDEST PUSH1 0x0 DUP1 REVERT JUMPDEST PUSH1 0x0 DUP2 SWAP1 POP SWAP2 SWAP1 POP JUMP JUMPDEST PUSH2 0xCF DUP2 PUSH2 0xBC JUMP JUMPDEST DUP2 EQ PUSH2 0xDA JUMPI PUSH1 0x0 DUP1 REVERT JUMPDEST POP JUMP JUMPDEST PUSH1 0x0 DUP2 CALLDATALOAD SWAP1 POP PUSH2 0xEC DUP2 PUSH2 0xC6 JUMP JUMPDEST SWAP3 SWAP2 POP POP JUMP JUMPDEST PUSH1 0x0 PUSH1 0x20 DUP3 DUP5 SUB SLT ISZERO PUSH2 0x108 JUMPI PUSH2 0x107 PUSH2 0xB7 JUMP JUMPDEST JUMPDEST PUSH1 0x0 PUSH2 0x116 DUP5 DUP3 DUP6 ADD PUSH2 0xDD JUMP JUMPDEST SWAP2 POP POP SWAP3 SWAP2 POP POP JUMP JUMPDEST PUSH2 0x128 DUP2 PUSH2 0xBC JUMP JUMPDEST DUP3 MSTORE POP POP JUMP JUMPDEST PUSH1 0x0 PUSH1 0x20 DUP3 ADD SWAP1 POP PUSH2 0x143 PUSH1 0x0 DUP4 ADD DUP5 PUSH2 0x11F JUMP JUMPDEST SWAP3 SWAP2 POP POP JUMP INVALID LOG2 PUSH5 0x6970667358 0x22 SLT KECCAK256 0xD9 CALLDATASIZE 0x2B SWAP1 LOG4 0xAE PUSH30 0x834BE95765E9099ECA319862C79BBD1A577C1841CBC6B99B7264736F6C63 NUMBER STOP ADDMOD GT STOP CALLER "
				},
				"gasEstimates": {
					"creation": {
						"codeDepositCost": "85800",
						"executionCost": "infinite",
						"totalCost": "infinite"
					},
					"external": {
						"readInfo()": "infinite"
					}
				},
				"methodIdentifiers": {
					"readInfo()": "3d88f137"
				}
			},
			"storageLayout": {
				"storage": [
					{
						"astId": 65,
						"contract": "EntranceForAdvance.sol:D",
						"label": "c",
						"offset": 0,
						"slot": "0",
						"type": "t_contract(C)58"
					}
				],
				"types": {
					"t_contract(C)58": {
						"encoding": "inplace",
						"label": "contract C",
						"numberOfBytes": "20"
					}
				}
			},
			"userdoc": {
				"kind": "user",
				"methods": {},
				"version": 1
			}
		}
	}
}