{
	"advance-error-handling.sol": {
		"LearnErrorHandling": {
			"abi": [
				{
					"inputs": [],
					"name": "bringUmbrella",
					"outputs": [],
					"stateMutability": "nonpayable",
					"type": "function"
				},
				{
					"inputs": [],
					"name": "getCalc",
					"outputs": [
						{
							"internalType": "uint256",
							"name": "",
							"type": "uint256"
						}
					],
					"stateMutability": "view",
					"type": "function"
				},
				{
					"inputs": [],
					"name": "internalTestUnits",
					"outputs": [],
					"stateMutability": "nonpayable",
					"type": "function"
				},
				{
					"inputs": [],
					"name": "solarCalc",
					"outputs": [],
					"stateMutability": "nonpayable",
					"type": "function"
				},
				{
					"inputs": [],
					"name": "sunny",
					"outputs": [
						{
							"internalType": "bool",
							"name": "",
							"type": "bool"
						}
					],
					"stateMutability": "view",
					"type": "function"
				},
				{
					"inputs": [],
					"name": "umbrella",
					"outputs": [
						{
							"internalType": "bool",
							"name": "",
							"type": "bool"
						}
					],
					"stateMutability": "view",
					"type": "function"
				},
				{
					"inputs": [],
					"name": "weatherChanger",
					"outputs": [],
					"stateMutability": "nonpayable",
					"type": "function"
				}
			],
			"devdoc": {
				"kind": "dev",
				"methods": {},
				"version": 1
			},
			"evm": {
				"assembly": "    /* \"advance-error-handling.sol\":1189:2021  contract LearnErrorHandling... */\n  mstore(0x40, 0x80)\n    /* \"advance-error-handling.sol\":1242:1246  true */\n  0x01\n    /* \"advance-error-handling.sol\":1222:1246  bool public sunny = true */\n  0x00\n  dup1\n  0x0100\n  exp\n  dup2\n  sload\n  dup2\n  0xff\n  mul\n  not\n  and\n  swap1\n  dup4\n  iszero\n  iszero\n  mul\n  or\n  swap1\n  sstore\n  pop\n    /* \"advance-error-handling.sol\":1274:1279  false */\n  0x00\n    /* \"advance-error-handling.sol\":1251:1279  bool public umbrella = false */\n  dup1\n  exp(0x0100, 0x01)\n  dup2\n  sload\n  dup2\n  0xff\n  mul\n  not\n  and\n  swap1\n  dup4\n  iszero\n  iszero\n  mul\n  or\n  swap1\n  sstore\n  pop\n    /* \"advance-error-handling.sol\":1301:1302  0 */\n  0x00\n    /* \"advance-error-handling.sol\":1284:1302  uint finalCalc = 0 */\n  0x01\n  sstore\n    /* \"advance-error-handling.sol\":1189:2021  contract LearnErrorHandling... */\n  callvalue\n  dup1\n  iszero\n  tag_1\n  jumpi\n  0x00\n  dup1\n  revert\ntag_1:\n  pop\n  dataSize(sub_0)\n  dup1\n  dataOffset(sub_0)\n  0x00\n  codecopy\n  0x00\n  return\nstop\n\nsub_0: assembly {\n        /* \"advance-error-handling.sol\":1189:2021  contract LearnErrorHandling... */\n      mstore(0x40, 0x80)\n      callvalue\n      dup1\n      iszero\n      tag_1\n      jumpi\n      0x00\n      dup1\n      revert\n    tag_1:\n      pop\n      jumpi(tag_2, lt(calldatasize, 0x04))\n      shr(0xe0, calldataload(0x00))\n      dup1\n      0xab02dd7b\n      gt\n      tag_10\n      jumpi\n      dup1\n      0xab02dd7b\n      eq\n      tag_6\n      jumpi\n      dup1\n      0xc000dcdb\n      eq\n      tag_7\n      jumpi\n      dup1\n      0xe472c67c\n      eq\n      tag_8\n      jumpi\n      dup1\n      0xebaf0dca\n      eq\n      tag_9\n      jumpi\n      jump(tag_2)\n    tag_10:\n      dup1\n      0x66e811c6\n      eq\n      tag_3\n      jumpi\n      dup1\n      0x84914262\n      eq\n      tag_4\n      jumpi\n      dup1\n      0x911ec8f5\n      eq\n      tag_5\n      jumpi\n    tag_2:\n      0x00\n      dup1\n      revert\n        /* \"advance-error-handling.sol\":1839:2019  function bringUmbrella() public... */\n    tag_3:\n      tag_11\n      tag_12\n      jump\t// in\n    tag_11:\n      stop\n        /* \"advance-error-handling.sol\":1251:1279  bool public umbrella = false */\n    tag_4:\n      tag_13\n      tag_14\n      jump\t// in\n    tag_13:\n      mload(0x40)\n      tag_15\n      swap2\n      swap1\n      tag_16\n      jump\t// in\n    tag_15:\n      mload(0x40)\n      dup1\n      swap2\n      sub\n      swap1\n      return\n        /* \"advance-error-handling.sol\":1540:1616  function internalTestUnits() public... */\n    tag_5:\n      tag_17\n      tag_18\n      jump\t// in\n    tag_17:\n      stop\n        /* \"advance-error-handling.sol\":1222:1246  bool public sunny = true */\n    tag_6:\n      tag_19\n      tag_20\n      jump\t// in\n    tag_19:\n      mload(0x40)\n      tag_21\n      swap2\n      swap1\n      tag_16\n      jump\t// in\n    tag_21:\n      mload(0x40)\n      dup1\n      swap2\n      sub\n      swap1\n      return\n        /* \"advance-error-handling.sol\":1661:1726  function weatherChanger() public... */\n    tag_7:\n      tag_22\n      tag_23\n      jump\t// in\n    tag_22:\n      stop\n        /* \"advance-error-handling.sol\":1333:1501  function solarCalc() public... */\n    tag_8:\n      tag_24\n      tag_25\n      jump\t// in\n    tag_24:\n      stop\n        /* \"advance-error-handling.sol\":1753:1831  function getCalc() public view returns(uint)... */\n    tag_9:\n      tag_26\n      tag_27\n      jump\t// in\n    tag_26:\n      mload(0x40)\n      tag_28\n      swap2\n      swap1\n      tag_29\n      jump\t// in\n    tag_28:\n      mload(0x40)\n      dup1\n      swap2\n      sub\n      swap1\n      return\n        /* \"advance-error-handling.sol\":1839:2019  function bringUmbrella() public... */\n    tag_12:\n        /* \"advance-error-handling.sol\":1890:1895  sunny */\n      0x00\n      dup1\n      sload\n      swap1\n      0x0100\n      exp\n      swap1\n      div\n      0xff\n      and\n        /* \"advance-error-handling.sol\":1886:2014  if(!sunny)... */\n      tag_31\n      jumpi\n        /* \"advance-error-handling.sol\":1926:1930  true */\n      0x01\n        /* \"advance-error-handling.sol\":1917:1925  umbrella */\n      0x00\n      0x01\n        /* \"advance-error-handling.sol\":1917:1930  umbrella=true */\n      0x0100\n      exp\n      dup2\n      sload\n      dup2\n      0xff\n      mul\n      not\n      and\n      swap1\n      dup4\n      iszero\n      iszero\n      mul\n      or\n      swap1\n      sstore\n      pop\n        /* \"advance-error-handling.sol\":1886:2014  if(!sunny)... */\n      jump(tag_32)\n    tag_31:\n        /* \"advance-error-handling.sol\":1963:2004  revert('No need to bring umbrella today') */\n      mload(0x40)\n      0x08c379a000000000000000000000000000000000000000000000000000000000\n      dup2\n      mstore\n      0x04\n      add\n      tag_33\n      swap1\n      tag_34\n      jump\t// in\n    tag_33:\n      mload(0x40)\n      dup1\n      swap2\n      sub\n      swap1\n      revert\n        /* \"advance-error-handling.sol\":1886:2014  if(!sunny)... */\n    tag_32:\n        /* \"advance-error-handling.sol\":1839:2019  function bringUmbrella() public... */\n      jump\t// out\n        /* \"advance-error-handling.sol\":1251:1279  bool public umbrella = false */\n    tag_14:\n      0x00\n      0x01\n      swap1\n      sload\n      swap1\n      0x0100\n      exp\n      swap1\n      div\n      0xff\n      and\n      dup2\n      jump\t// out\n        /* \"advance-error-handling.sol\":1540:1616  function internalTestUnits() public... */\n    tag_18:\n        /* \"advance-error-handling.sol\":1608:1609  6 */\n      0x06\n        /* \"advance-error-handling.sol\":1595:1604  finalCalc */\n      sload(0x01)\n        /* \"advance-error-handling.sol\":1595:1609  finalCalc != 6 */\n      sub\n        /* \"advance-error-handling.sol\":1588:1610  assert(finalCalc != 6) */\n      tag_36\n      jumpi\n      tag_37\n      tag_38\n      jump\t// in\n    tag_37:\n    tag_36:\n        /* \"advance-error-handling.sol\":1540:1616  function internalTestUnits() public... */\n      jump\t// out\n        /* \"advance-error-handling.sol\":1222:1246  bool public sunny = true */\n    tag_20:\n      0x00\n      dup1\n      sload\n      swap1\n      0x0100\n      exp\n      swap1\n      div\n      0xff\n      and\n      dup2\n      jump\t// out\n        /* \"advance-error-handling.sol\":1661:1726  function weatherChanger() public... */\n    tag_23:\n        /* \"advance-error-handling.sol\":1715:1720  sunny */\n      0x00\n      dup1\n      sload\n      swap1\n      0x0100\n      exp\n      swap1\n      div\n      0xff\n      and\n        /* \"advance-error-handling.sol\":1714:1720  !sunny */\n      iszero\n        /* \"advance-error-handling.sol\":1706:1711  sunny */\n      0x00\n      dup1\n        /* \"advance-error-handling.sol\":1706:1720  sunny = !sunny */\n      0x0100\n      exp\n      dup2\n      sload\n      dup2\n      0xff\n      mul\n      not\n      and\n      swap1\n      dup4\n      iszero\n      iszero\n      mul\n      or\n      swap1\n      sstore\n      pop\n        /* \"advance-error-handling.sol\":1661:1726  function weatherChanger() public... */\n      jump\t// out\n        /* \"advance-error-handling.sol\":1333:1501  function solarCalc() public... */\n    tag_25:\n        /* \"advance-error-handling.sol\":1381:1386  sunny */\n      0x00\n      dup1\n      sload\n      swap1\n      0x0100\n      exp\n      swap1\n      div\n      0xff\n      and\n        /* \"advance-error-handling.sol\":1373:1411  require(sunny,\"it is not sunny today\") */\n      tag_41\n      jumpi\n      mload(0x40)\n      0x08c379a000000000000000000000000000000000000000000000000000000000\n      dup2\n      mstore\n      0x04\n      add\n      tag_42\n      swap1\n      tag_43\n      jump\t// in\n    tag_42:\n      mload(0x40)\n      dup1\n      swap2\n      sub\n      swap1\n      revert\n    tag_41:\n        /* \"advance-error-handling.sol\":1443:1444  3 */\n      0x03\n        /* \"advance-error-handling.sol\":1431:1440  finalCalc */\n      0x01\n      0x00\n        /* \"advance-error-handling.sol\":1431:1444  finalCalc +=3 */\n      dup3\n      dup3\n      sload\n      tag_44\n      swap2\n      swap1\n      tag_45\n      jump\t// in\n    tag_44:\n      swap3\n      pop\n      pop\n      dup2\n      swap1\n      sstore\n      pop\n        /* \"advance-error-handling.sol\":1473:1474  6 */\n      0x06\n        /* \"advance-error-handling.sol\":1460:1469  finalCalc */\n      sload(0x01)\n        /* \"advance-error-handling.sol\":1460:1474  finalCalc != 6 */\n      sub\n        /* \"advance-error-handling.sol\":1453:1475  assert(finalCalc != 6) */\n      tag_46\n      jumpi\n      tag_47\n      tag_38\n      jump\t// in\n    tag_47:\n    tag_46:\n        /* \"advance-error-handling.sol\":1333:1501  function solarCalc() public... */\n      jump\t// out\n        /* \"advance-error-handling.sol\":1753:1831  function getCalc() public view returns(uint)... */\n    tag_27:\n        /* \"advance-error-handling.sol\":1792:1796  uint */\n      0x00\n        /* \"advance-error-handling.sol\":1816:1825  finalCalc */\n      sload(0x01)\n        /* \"advance-error-handling.sol\":1809:1825  return finalCalc */\n      swap1\n      pop\n        /* \"advance-error-handling.sol\":1753:1831  function getCalc() public view returns(uint)... */\n      swap1\n      jump\t// out\n        /* \"#utility.yul\":7:97   */\n    tag_49:\n        /* \"#utility.yul\":41:48   */\n      0x00\n        /* \"#utility.yul\":84:89   */\n      dup2\n        /* \"#utility.yul\":77:90   */\n      iszero\n        /* \"#utility.yul\":70:91   */\n      iszero\n        /* \"#utility.yul\":59:91   */\n      swap1\n      pop\n        /* \"#utility.yul\":7:97   */\n      swap2\n      swap1\n      pop\n      jump\t// out\n        /* \"#utility.yul\":103:212   */\n    tag_50:\n        /* \"#utility.yul\":184:205   */\n      tag_62\n        /* \"#utility.yul\":199:204   */\n      dup2\n        /* \"#utility.yul\":184:205   */\n      tag_49\n      jump\t// in\n    tag_62:\n        /* \"#utility.yul\":179:182   */\n      dup3\n        /* \"#utility.yul\":172:206   */\n      mstore\n        /* \"#utility.yul\":103:212   */\n      pop\n      pop\n      jump\t// out\n        /* \"#utility.yul\":218:428   */\n    tag_16:\n        /* \"#utility.yul\":305:309   */\n      0x00\n        /* \"#utility.yul\":343:345   */\n      0x20\n        /* \"#utility.yul\":332:341   */\n      dup3\n        /* \"#utility.yul\":328:346   */\n      add\n        /* \"#utility.yul\":320:346   */\n      swap1\n      pop\n        /* \"#utility.yul\":356:421   */\n      tag_64\n        /* \"#utility.yul\":418:419   */\n      0x00\n        /* \"#utility.yul\":407:416   */\n      dup4\n        /* \"#utility.yul\":403:420   */\n      add\n        /* \"#utility.yul\":394:400   */\n      dup5\n        /* \"#utility.yul\":356:421   */\n      tag_50\n      jump\t// in\n    tag_64:\n        /* \"#utility.yul\":218:428   */\n      swap3\n      swap2\n      pop\n      pop\n      jump\t// out\n        /* \"#utility.yul\":434:511   */\n    tag_51:\n        /* \"#utility.yul\":471:478   */\n      0x00\n        /* \"#utility.yul\":500:505   */\n      dup2\n        /* \"#utility.yul\":489:505   */\n      swap1\n      pop\n        /* \"#utility.yul\":434:511   */\n      swap2\n      swap1\n      pop\n      jump\t// out\n        /* \"#utility.yul\":517:635   */\n    tag_52:\n        /* \"#utility.yul\":604:628   */\n      tag_67\n        /* \"#utility.yul\":622:627   */\n      dup2\n        /* \"#utility.yul\":604:628   */\n      tag_51\n      jump\t// in\n    tag_67:\n        /* \"#utility.yul\":599:602   */\n      dup3\n        /* \"#utility.yul\":592:629   */\n      mstore\n        /* \"#utility.yul\":517:635   */\n      pop\n      pop\n      jump\t// out\n        /* \"#utility.yul\":641:863   */\n    tag_29:\n        /* \"#utility.yul\":734:738   */\n      0x00\n        /* \"#utility.yul\":772:774   */\n      0x20\n        /* \"#utility.yul\":761:770   */\n      dup3\n        /* \"#utility.yul\":757:775   */\n      add\n        /* \"#utility.yul\":749:775   */\n      swap1\n      pop\n        /* \"#utility.yul\":785:856   */\n      tag_69\n        /* \"#utility.yul\":853:854   */\n      0x00\n        /* \"#utility.yul\":842:851   */\n      dup4\n        /* \"#utility.yul\":838:855   */\n      add\n        /* \"#utility.yul\":829:835   */\n      dup5\n        /* \"#utility.yul\":785:856   */\n      tag_52\n      jump\t// in\n    tag_69:\n        /* \"#utility.yul\":641:863   */\n      swap3\n      swap2\n      pop\n      pop\n      jump\t// out\n        /* \"#utility.yul\":869:1038   */\n    tag_53:\n        /* \"#utility.yul\":953:964   */\n      0x00\n        /* \"#utility.yul\":987:993   */\n      dup3\n        /* \"#utility.yul\":982:985   */\n      dup3\n        /* \"#utility.yul\":975:994   */\n      mstore\n        /* \"#utility.yul\":1027:1031   */\n      0x20\n        /* \"#utility.yul\":1022:1025   */\n      dup3\n        /* \"#utility.yul\":1018:1032   */\n      add\n        /* \"#utility.yul\":1003:1032   */\n      swap1\n      pop\n        /* \"#utility.yul\":869:1038   */\n      swap3\n      swap2\n      pop\n      pop\n      jump\t// out\n        /* \"#utility.yul\":1044:1225   */\n    tag_54:\n        /* \"#utility.yul\":1184:1217   */\n      0x4e6f206e65656420746f206272696e6720756d6272656c6c6120746f64617900\n        /* \"#utility.yul\":1180:1181   */\n      0x00\n        /* \"#utility.yul\":1172:1178   */\n      dup3\n        /* \"#utility.yul\":1168:1182   */\n      add\n        /* \"#utility.yul\":1161:1218   */\n      mstore\n        /* \"#utility.yul\":1044:1225   */\n      pop\n      jump\t// out\n        /* \"#utility.yul\":1231:1597   */\n    tag_55:\n        /* \"#utility.yul\":1373:1376   */\n      0x00\n        /* \"#utility.yul\":1394:1461   */\n      tag_73\n        /* \"#utility.yul\":1458:1460   */\n      0x1f\n        /* \"#utility.yul\":1453:1456   */\n      dup4\n        /* \"#utility.yul\":1394:1461   */\n      tag_53\n      jump\t// in\n    tag_73:\n        /* \"#utility.yul\":1387:1461   */\n      swap2\n      pop\n        /* \"#utility.yul\":1470:1563   */\n      tag_74\n        /* \"#utility.yul\":1559:1562   */\n      dup3\n        /* \"#utility.yul\":1470:1563   */\n      tag_54\n      jump\t// in\n    tag_74:\n        /* \"#utility.yul\":1588:1590   */\n      0x20\n        /* \"#utility.yul\":1583:1586   */\n      dup3\n        /* \"#utility.yul\":1579:1591   */\n      add\n        /* \"#utility.yul\":1572:1591   */\n      swap1\n      pop\n        /* \"#utility.yul\":1231:1597   */\n      swap2\n      swap1\n      pop\n      jump\t// out\n        /* \"#utility.yul\":1603:2022   */\n    tag_34:\n        /* \"#utility.yul\":1769:1773   */\n      0x00\n        /* \"#utility.yul\":1807:1809   */\n      0x20\n        /* \"#utility.yul\":1796:1805   */\n      dup3\n        /* \"#utility.yul\":1792:1810   */\n      add\n        /* \"#utility.yul\":1784:1810   */\n      swap1\n      pop\n        /* \"#utility.yul\":1856:1865   */\n      dup2\n        /* \"#utility.yul\":1850:1854   */\n      dup2\n        /* \"#utility.yul\":1846:1866   */\n      sub\n        /* \"#utility.yul\":1842:1843   */\n      0x00\n        /* \"#utility.yul\":1831:1840   */\n      dup4\n        /* \"#utility.yul\":1827:1844   */\n      add\n        /* \"#utility.yul\":1820:1867   */\n      mstore\n        /* \"#utility.yul\":1884:2015   */\n      tag_76\n        /* \"#utility.yul\":2010:2014   */\n      dup2\n        /* \"#utility.yul\":1884:2015   */\n      tag_55\n      jump\t// in\n    tag_76:\n        /* \"#utility.yul\":1876:2015   */\n      swap1\n      pop\n        /* \"#utility.yul\":1603:2022   */\n      swap2\n      swap1\n      pop\n      jump\t// out\n        /* \"#utility.yul\":2028:2208   */\n    tag_38:\n        /* \"#utility.yul\":2076:2153   */\n      0x4e487b7100000000000000000000000000000000000000000000000000000000\n        /* \"#utility.yul\":2073:2074   */\n      0x00\n        /* \"#utility.yul\":2066:2154   */\n      mstore\n        /* \"#utility.yul\":2173:2177   */\n      0x01\n        /* \"#utility.yul\":2170:2171   */\n      0x04\n        /* \"#utility.yul\":2163:2178   */\n      mstore\n        /* \"#utility.yul\":2197:2201   */\n      0x24\n        /* \"#utility.yul\":2194:2195   */\n      0x00\n        /* \"#utility.yul\":2187:2202   */\n      revert\n        /* \"#utility.yul\":2214:2385   */\n    tag_56:\n        /* \"#utility.yul\":2354:2377   */\n      0x6974206973206e6f742073756e6e7920746f6461790000000000000000000000\n        /* \"#utility.yul\":2350:2351   */\n      0x00\n        /* \"#utility.yul\":2342:2348   */\n      dup3\n        /* \"#utility.yul\":2338:2352   */\n      add\n        /* \"#utility.yul\":2331:2378   */\n      mstore\n        /* \"#utility.yul\":2214:2385   */\n      pop\n      jump\t// out\n        /* \"#utility.yul\":2391:2757   */\n    tag_57:\n        /* \"#utility.yul\":2533:2536   */\n      0x00\n        /* \"#utility.yul\":2554:2621   */\n      tag_80\n        /* \"#utility.yul\":2618:2620   */\n      0x15\n        /* \"#utility.yul\":2613:2616   */\n      dup4\n        /* \"#utility.yul\":2554:2621   */\n      tag_53\n      jump\t// in\n    tag_80:\n        /* \"#utility.yul\":2547:2621   */\n      swap2\n      pop\n        /* \"#utility.yul\":2630:2723   */\n      tag_81\n        /* \"#utility.yul\":2719:2722   */\n      dup3\n        /* \"#utility.yul\":2630:2723   */\n      tag_56\n      jump\t// in\n    tag_81:\n        /* \"#utility.yul\":2748:2750   */\n      0x20\n        /* \"#utility.yul\":2743:2746   */\n      dup3\n        /* \"#utility.yul\":2739:2751   */\n      add\n        /* \"#utility.yul\":2732:2751   */\n      swap1\n      pop\n        /* \"#utility.yul\":2391:2757   */\n      swap2\n      swap1\n      pop\n      jump\t// out\n        /* \"#utility.yul\":2763:3182   */\n    tag_43:\n        /* \"#utility.yul\":2929:2933   */\n      0x00\n        /* \"#utility.yul\":2967:2969   */\n      0x20\n        /* \"#utility.yul\":2956:2965   */\n      dup3\n        /* \"#utility.yul\":2952:2970   */\n      add\n        /* \"#utility.yul\":2944:2970   */\n      swap1\n      pop\n        /* \"#utility.yul\":3016:3025   */\n      dup2\n        /* \"#utility.yul\":3010:3014   */\n      dup2\n        /* \"#utility.yul\":3006:3026   */\n      sub\n        /* \"#utility.yul\":3002:3003   */\n      0x00\n        /* \"#utility.yul\":2991:3000   */\n      dup4\n        /* \"#utility.yul\":2987:3004   */\n      add\n        /* \"#utility.yul\":2980:3027   */\n      mstore\n        /* \"#utility.yul\":3044:3175   */\n      tag_83\n        /* \"#utility.yul\":3170:3174   */\n      dup2\n        /* \"#utility.yul\":3044:3175   */\n      tag_57\n      jump\t// in\n    tag_83:\n        /* \"#utility.yul\":3036:3175   */\n      swap1\n      pop\n        /* \"#utility.yul\":2763:3182   */\n      swap2\n      swap1\n      pop\n      jump\t// out\n        /* \"#utility.yul\":3188:3368   */\n    tag_58:\n        /* \"#utility.yul\":3236:3313   */\n      0x4e487b7100000000000000000000000000000000000000000000000000000000\n        /* \"#utility.yul\":3233:3234   */\n      0x00\n        /* \"#utility.yul\":3226:3314   */\n      mstore\n        /* \"#utility.yul\":3333:3337   */\n      0x11\n        /* \"#utility.yul\":3330:3331   */\n      0x04\n        /* \"#utility.yul\":3323:3338   */\n      mstore\n        /* \"#utility.yul\":3357:3361   */\n      0x24\n        /* \"#utility.yul\":3354:3355   */\n      0x00\n        /* \"#utility.yul\":3347:3362   */\n      revert\n        /* \"#utility.yul\":3374:3565   */\n    tag_45:\n        /* \"#utility.yul\":3414:3417   */\n      0x00\n        /* \"#utility.yul\":3433:3453   */\n      tag_86\n        /* \"#utility.yul\":3451:3452   */\n      dup3\n        /* \"#utility.yul\":3433:3453   */\n      tag_51\n      jump\t// in\n    tag_86:\n        /* \"#utility.yul\":3428:3453   */\n      swap2\n      pop\n        /* \"#utility.yul\":3467:3487   */\n      tag_87\n        /* \"#utility.yul\":3485:3486   */\n      dup4\n        /* \"#utility.yul\":3467:3487   */\n      tag_51\n      jump\t// in\n    tag_87:\n        /* \"#utility.yul\":3462:3487   */\n      swap3\n      pop\n        /* \"#utility.yul\":3510:3511   */\n      dup3\n        /* \"#utility.yul\":3507:3508   */\n      dup3\n        /* \"#utility.yul\":3503:3512   */\n      add\n        /* \"#utility.yul\":3496:3512   */\n      swap1\n      pop\n        /* \"#utility.yul\":3531:3534   */\n      dup1\n        /* \"#utility.yul\":3528:3529   */\n      dup3\n        /* \"#utility.yul\":3525:3535   */\n      gt\n        /* \"#utility.yul\":3522:3558   */\n      iszero\n      tag_88\n      jumpi\n        /* \"#utility.yul\":3538:3556   */\n      tag_89\n      tag_58\n      jump\t// in\n    tag_89:\n        /* \"#utility.yul\":3522:3558   */\n    tag_88:\n        /* \"#utility.yul\":3374:3565   */\n      swap3\n      swap2\n      pop\n      pop\n      jump\t// out\n\n    auxdata: 0xa2646970667358221220c688cf2f83879dddaeab36ababab0c8e403ed8ff4f621fa522fabc508ee796b464736f6c63430008110033\n}\n",
				"bytecode": {
					"linkReferences": {},
					"object": "608060405260016000806101000a81548160ff02191690831515021790555060008060016101000a81548160ff021916908315150217905550600060015534801561004957600080fd5b50610476806100596000396000f3fe608060405234801561001057600080fd5b506004361061007d5760003560e01c8063ab02dd7b1161005b578063ab02dd7b146100b4578063c000dcdb146100d2578063e472c67c146100dc578063ebaf0dca146100e65761007d565b806366e811c614610082578063849142621461008c578063911ec8f5146100aa575b600080fd5b61008a610104565b005b610094610173565b6040516100a19190610276565b60405180910390f35b6100b2610186565b005b6100bc61019b565b6040516100c99190610276565b60405180910390f35b6100da6101ac565b005b6100e46101d5565b005b6100ee610251565b6040516100fb91906102aa565b60405180910390f35b60008054906101000a900460ff16610136576001600060016101000a81548160ff021916908315150217905550610171565b6040517f08c379a000000000000000000000000000000000000000000000000000000000815260040161016890610322565b60405180910390fd5b565b600060019054906101000a900460ff1681565b60066001540361019957610198610342565b5b565b60008054906101000a900460ff1681565b60008054906101000a900460ff16156000806101000a81548160ff021916908315150217905550565b60008054906101000a900460ff16610222576040517f08c379a0000000000000000000000000000000000000000000000000000000008152600401610219906103bd565b60405180910390fd5b600360016000828254610235919061040c565b9250508190555060066001540361024f5761024e610342565b5b565b6000600154905090565b60008115159050919050565b6102708161025b565b82525050565b600060208201905061028b6000830184610267565b92915050565b6000819050919050565b6102a481610291565b82525050565b60006020820190506102bf600083018461029b565b92915050565b600082825260208201905092915050565b7f4e6f206e65656420746f206272696e6720756d6272656c6c6120746f64617900600082015250565b600061030c601f836102c5565b9150610317826102d6565b602082019050919050565b6000602082019050818103600083015261033b816102ff565b9050919050565b7f4e487b7100000000000000000000000000000000000000000000000000000000600052600160045260246000fd5b7f6974206973206e6f742073756e6e7920746f6461790000000000000000000000600082015250565b60006103a76015836102c5565b91506103b282610371565b602082019050919050565b600060208201905081810360008301526103d68161039a565b9050919050565b7f4e487b7100000000000000000000000000000000000000000000000000000000600052601160045260246000fd5b600061041782610291565b915061042283610291565b925082820190508082111561043a576104396103dd565b5b9291505056fea2646970667358221220c688cf2f83879dddaeab36ababab0c8e403ed8ff4f621fa522fabc508ee796b464736f6c63430008110033",
					"opcodes": "PUSH1 0x80 PUSH1 0x40 MSTORE PUSH1 0x1 PUSH1 0x0 DUP1 PUSH2 0x100 EXP DUP2 SLOAD DUP2 PUSH1 0xFF MUL NOT AND SWAP1 DUP4 ISZERO ISZERO MUL OR SWAP1 SSTORE POP PUSH1 0x0 DUP1 PUSH1 0x1 PUSH2 0x100 EXP DUP2 SLOAD DUP2 PUSH1 0xFF MUL NOT AND SWAP1 DUP4 ISZERO ISZERO MUL OR SWAP1 SSTORE POP PUSH1 0x0 PUSH1 0x1 SSTORE CALLVALUE DUP1 ISZERO PUSH2 0x49 JUMPI PUSH1 0x0 DUP1 REVERT JUMPDEST POP PUSH2 0x476 DUP1 PUSH2 0x59 PUSH1 0x0 CODECOPY PUSH1 0x0 RETURN INVALID PUSH1 0x80 PUSH1 0x40 MSTORE CALLVALUE DUP1 ISZERO PUSH2 0x10 JUMPI PUSH1 0x0 DUP1 REVERT JUMPDEST POP PUSH1 0x4 CALLDATASIZE LT PUSH2 0x7D JUMPI PUSH1 0x0 CALLDATALOAD PUSH1 0xE0 SHR DUP1 PUSH4 0xAB02DD7B GT PUSH2 0x5B JUMPI DUP1 PUSH4 0xAB02DD7B EQ PUSH2 0xB4 JUMPI DUP1 PUSH4 0xC000DCDB EQ PUSH2 0xD2 JUMPI DUP1 PUSH4 0xE472C67C EQ PUSH2 0xDC JUMPI DUP1 PUSH4 0xEBAF0DCA EQ PUSH2 0xE6 JUMPI PUSH2 0x7D JUMP JUMPDEST DUP1 PUSH4 0x66E811C6 EQ PUSH2 0x82 JUMPI DUP1 PUSH4 0x84914262 EQ PUSH2 0x8C JUMPI DUP1 PUSH4 0x911EC8F5 EQ PUSH2 0xAA JUMPI JUMPDEST PUSH1 0x0 DUP1 REVERT JUMPDEST PUSH2 0x8A PUSH2 0x104 JUMP JUMPDEST STOP JUMPDEST PUSH2 0x94 PUSH2 0x173 JUMP JUMPDEST PUSH1 0x40 MLOAD PUSH2 0xA1 SWAP2 SWAP1 PUSH2 0x276 JUMP JUMPDEST PUSH1 0x40 MLOAD DUP1 SWAP2 SUB SWAP1 RETURN JUMPDEST PUSH2 0xB2 PUSH2 0x186 JUMP JUMPDEST STOP JUMPDEST PUSH2 0xBC PUSH2 0x19B JUMP JUMPDEST PUSH1 0x40 MLOAD PUSH2 0xC9 SWAP2 SWAP1 PUSH2 0x276 JUMP JUMPDEST PUSH1 0x40 MLOAD DUP1 SWAP2 SUB SWAP1 RETURN JUMPDEST PUSH2 0xDA PUSH2 0x1AC JUMP JUMPDEST STOP JUMPDEST PUSH2 0xE4 PUSH2 0x1D5 JUMP JUMPDEST STOP JUMPDEST PUSH2 0xEE PUSH2 0x251 JUMP JUMPDEST PUSH1 0x40 MLOAD PUSH2 0xFB SWAP2 SWAP1 PUSH2 0x2AA JUMP JUMPDEST PUSH1 0x40 MLOAD DUP1 SWAP2 SUB SWAP1 RETURN JUMPDEST PUSH1 0x0 DUP1 SLOAD SWAP1 PUSH2 0x100 EXP SWAP1 DIV PUSH1 0xFF AND PUSH2 0x136 JUMPI PUSH1 0x1 PUSH1 0x0 PUSH1 0x1 PUSH2 0x100 EXP DUP2 SLOAD DUP2 PUSH1 0xFF MUL NOT AND SWAP1 DUP4 ISZERO ISZERO MUL OR SWAP1 SSTORE POP PUSH2 0x171 JUMP JUMPDEST PUSH1 0x40 MLOAD PUSH32 0x8C379A000000000000000000000000000000000000000000000000000000000 DUP2 MSTORE PUSH1 0x4 ADD PUSH2 0x168 SWAP1 PUSH2 0x322 JUMP JUMPDEST PUSH1 0x40 MLOAD DUP1 SWAP2 SUB SWAP1 REVERT JUMPDEST JUMP JUMPDEST PUSH1 0x0 PUSH1 0x1 SWAP1 SLOAD SWAP1 PUSH2 0x100 EXP SWAP1 DIV PUSH1 0xFF AND DUP2 JUMP JUMPDEST PUSH1 0x6 PUSH1 0x1 SLOAD SUB PUSH2 0x199 JUMPI PUSH2 0x198 PUSH2 0x342 JUMP JUMPDEST JUMPDEST JUMP JUMPDEST PUSH1 0x0 DUP1 SLOAD SWAP1 PUSH2 0x100 EXP SWAP1 DIV PUSH1 0xFF AND DUP2 JUMP JUMPDEST PUSH1 0x0 DUP1 SLOAD SWAP1 PUSH2 0x100 EXP SWAP1 DIV PUSH1 0xFF AND ISZERO PUSH1 0x0 DUP1 PUSH2 0x100 EXP DUP2 SLOAD DUP2 PUSH1 0xFF MUL NOT AND SWAP1 DUP4 ISZERO ISZERO MUL OR SWAP1 SSTORE POP JUMP JUMPDEST PUSH1 0x0 DUP1 SLOAD SWAP1 PUSH2 0x100 EXP SWAP1 DIV PUSH1 0xFF AND PUSH2 0x222 JUMPI PUSH1 0x40 MLOAD PUSH32 0x8C379A000000000000000000000000000000000000000000000000000000000 DUP2 MSTORE PUSH1 0x4 ADD PUSH2 0x219 SWAP1 PUSH2 0x3BD JUMP JUMPDEST PUSH1 0x40 MLOAD DUP1 SWAP2 SUB SWAP1 REVERT JUMPDEST PUSH1 0x3 PUSH1 0x1 PUSH1 0x0 DUP3 DUP3 SLOAD PUSH2 0x235 SWAP2 SWAP1 PUSH2 0x40C JUMP JUMPDEST SWAP3 POP POP DUP2 SWAP1 SSTORE POP PUSH1 0x6 PUSH1 0x1 SLOAD SUB PUSH2 0x24F JUMPI PUSH2 0x24E PUSH2 0x342 JUMP JUMPDEST JUMPDEST JUMP JUMPDEST PUSH1 0x0 PUSH1 0x1 SLOAD SWAP1 POP SWAP1 JUMP JUMPDEST PUSH1 0x0 DUP2 ISZERO ISZERO SWAP1 POP SWAP2 SWAP1 POP JUMP JUMPDEST PUSH2 0x270 DUP2 PUSH2 0x25B JUMP JUMPDEST DUP3 MSTORE POP POP JUMP JUMPDEST PUSH1 0x0 PUSH1 0x20 DUP3 ADD SWAP1 POP PUSH2 0x28B PUSH1 0x0 DUP4 ADD DUP5 PUSH2 0x267 JUMP JUMPDEST SWAP3 SWAP2 POP POP JUMP JUMPDEST PUSH1 0x0 DUP2 SWAP1 POP SWAP2 SWAP1 POP JUMP JUMPDEST PUSH2 0x2A4 DUP2 PUSH2 0x291 JUMP JUMPDEST DUP3 MSTORE POP POP JUMP JUMPDEST PUSH1 0x0 PUSH1 0x20 DUP3 ADD SWAP1 POP PUSH2 0x2BF PUSH1 0x0 DUP4 ADD DUP5 PUSH2 0x29B JUMP JUMPDEST SWAP3 SWAP2 POP POP JUMP JUMPDEST PUSH1 0x0 DUP3 DUP3 MSTORE PUSH1 0x20 DUP3 ADD SWAP1 POP SWAP3 SWAP2 POP POP JUMP JUMPDEST PUSH32 0x4E6F206E65656420746F206272696E6720756D6272656C6C6120746F64617900 PUSH1 0x0 DUP3 ADD MSTORE POP JUMP JUMPDEST PUSH1 0x0 PUSH2 0x30C PUSH1 0x1F DUP4 PUSH2 0x2C5 JUMP JUMPDEST SWAP2 POP PUSH2 0x317 DUP3 PUSH2 0x2D6 JUMP JUMPDEST PUSH1 0x20 DUP3 ADD SWAP1 POP SWAP2 SWAP1 POP JUMP JUMPDEST PUSH1 0x0 PUSH1 0x20 DUP3 ADD SWAP1 POP DUP2 DUP2 SUB PUSH1 0x0 DUP4 ADD MSTORE PUSH2 0x33B DUP2 PUSH2 0x2FF JUMP JUMPDEST SWAP1 POP SWAP2 SWAP1 POP JUMP JUMPDEST PUSH32 0x4E487B7100000000000000000000000000000000000000000000000000000000 PUSH1 0x0 MSTORE PUSH1 0x1 PUSH1 0x4 MSTORE PUSH1 0x24 PUSH1 0x0 REVERT JUMPDEST PUSH32 0x6974206973206E6F742073756E6E7920746F6461790000000000000000000000 PUSH1 0x0 DUP3 ADD MSTORE POP JUMP JUMPDEST PUSH1 0x0 PUSH2 0x3A7 PUSH1 0x15 DUP4 PUSH2 0x2C5 JUMP JUMPDEST SWAP2 POP PUSH2 0x3B2 DUP3 PUSH2 0x371 JUMP JUMPDEST PUSH1 0x20 DUP3 ADD SWAP1 POP SWAP2 SWAP1 POP JUMP JUMPDEST PUSH1 0x0 PUSH1 0x20 DUP3 ADD SWAP1 POP DUP2 DUP2 SUB PUSH1 0x0 DUP4 ADD MSTORE PUSH2 0x3D6 DUP2 PUSH2 0x39A JUMP JUMPDEST SWAP1 POP SWAP2 SWAP1 POP JUMP JUMPDEST PUSH32 0x4E487B7100000000000000000000000000000000000000000000000000000000 PUSH1 0x0 MSTORE PUSH1 0x11 PUSH1 0x4 MSTORE PUSH1 0x24 PUSH1 0x0 REVERT JUMPDEST PUSH1 0x0 PUSH2 0x417 DUP3 PUSH2 0x291 JUMP JUMPDEST SWAP2 POP PUSH2 0x422 DUP4 PUSH2 0x291 JUMP JUMPDEST SWAP3 POP DUP3 DUP3 ADD SWAP1 POP DUP1 DUP3 GT ISZERO PUSH2 0x43A JUMPI PUSH2 0x439 PUSH2 0x3DD JUMP JUMPDEST JUMPDEST SWAP3 SWAP2 POP POP JUMP INVALID LOG2 PUSH5 0x6970667358 0x22 SLT KECCAK256 0xC6 DUP9 0xCF 0x2F DUP4 DUP8 SWAP14 0xDD 0xAE 0xAB CALLDATASIZE 0xAB 0xAB 0xAB 0xC DUP15 BLOCKHASH RETURNDATACOPY 0xD8 SELFDESTRUCT 0x4F PUSH3 0x1FA522 STATICCALL 0xBC POP DUP15 0xE7 SWAP7 0xB4 PUSH5 0x736F6C6343 STOP ADDMOD GT STOP CALLER "
				},
				"gasEstimates": {
					"creation": {
						"codeDepositCost": "228400",
						"executionCost": "53859",
						"totalCost": "282259"
					},
					"external": {
						"bringUmbrella()": "26623",
						"getCalc()": "2503",
						"internalTestUnits()": "2341",
						"solarCalc()": "infinite",
						"sunny()": "2468",
						"umbrella()": "2544",
						"weatherChanger()": "26569"
					}
				},
				"methodIdentifiers": {
					"bringUmbrella()": "66e811c6",
					"getCalc()": "ebaf0dca",
					"internalTestUnits()": "911ec8f5",
					"solarCalc()": "e472c67c",
					"sunny()": "ab02dd7b",
					"umbrella()": "84914262",
					"weatherChanger()": "c000dcdb"
				}
			},
			"storageLayout": {
				"storage": [
					{
						"astId": 4,
						"contract": "advance-error-handling.sol:LearnErrorHandling",
						"label": "sunny",
						"offset": 0,
						"slot": "0",
						"type": "t_bool"
					},
					{
						"astId": 7,
						"contract": "advance-error-handling.sol:LearnErrorHandling",
						"label": "umbrella",
						"offset": 1,
						"slot": "0",
						"type": "t_bool"
					},
					{
						"astId": 10,
						"contract": "advance-error-handling.sol:LearnErrorHandling",
						"label": "finalCalc",
						"offset": 0,
						"slot": "1",
						"type": "t_uint256"
					}
				],
				"types": {
					"t_bool": {
						"encoding": "inplace",
						"label": "bool",
						"numberOfBytes": "1"
					},
					"t_uint256": {
						"encoding": "inplace",
						"label": "uint256",
						"numberOfBytes": "32"
					}
				}
			},
			"userdoc": {
				"kind": "user",
				"methods": {},
				"version": 1
			}
		}
	}
}