{
	"withdrawal-pattern-intro.sol": {
		"attacker": {
			"abi": [
				{
					"inputs": [
						{
							"internalType": "address",
							"name": "_v",
							"type": "address"
						}
					],
					"stateMutability": "nonpayable",
					"type": "constructor"
				},
				{
					"inputs": [],
					"name": "trickedYou",
					"outputs": [
						{
							"internalType": "bool",
							"name": "",
							"type": "bool"
						}
					],
					"stateMutability": "view",
					"type": "function"
				}
			],
			"devdoc": {
				"kind": "dev",
				"methods": {},
				"version": 1
			},
			"evm": {
				"assembly": "    /* \"withdrawal-pattern-intro.sol\":3111:3295  contract attacker... */\n  mstore(0x40, 0x80)\n    /* \"withdrawal-pattern-intro.sol\":3182:3293  constructor(address _v) public {... */\n  callvalue\n  dup1\n  iszero\n  tag_1\n  jumpi\n  0x00\n  dup1\n  revert\ntag_1:\n  pop\n  mload(0x40)\n  sub(codesize, bytecodeSize)\n  dup1\n  bytecodeSize\n  dup4\n  codecopy\n  dup2\n  dup2\n  add\n  0x40\n  mstore\n  dup2\n  add\n  swap1\n  tag_2\n  swap2\n  swap1\n  tag_3\n  jump\t// in\ntag_2:\n    /* \"withdrawal-pattern-intro.sol\":3237:3239  _v */\n  dup1\n    /* \"withdrawal-pattern-intro.sol\":3223:3229  victim */\n  0x00\n  0x01\n    /* \"withdrawal-pattern-intro.sol\":3223:3240  victim=Victim(_v) */\n  0x0100\n  exp\n  dup2\n  sload\n  dup2\n  0xffffffffffffffffffffffffffffffffffffffff\n  mul\n  not\n  and\n  swap1\n  dup4\n  0xffffffffffffffffffffffffffffffffffffffff\n  and\n  mul\n  or\n  swap1\n  sstore\n  pop\n    /* \"withdrawal-pattern-intro.sol\":3264:3270  victim */\n  0x00\n  0x01\n  swap1\n  sload\n  swap1\n  0x0100\n  exp\n  swap1\n  div\n  0xffffffffffffffffffffffffffffffffffffffff\n  and\n    /* \"withdrawal-pattern-intro.sol\":3264:3284  victim.isItAContract */\n  0xffffffffffffffffffffffffffffffffffffffff\n  and\n  0x63bae962\n    /* \"withdrawal-pattern-intro.sol\":3264:3286  victim.isItAContract() */\n  mload(0x40)\n  dup2\n  0xffffffff\n  and\n  0xe0\n  shl\n  dup2\n  mstore\n  0x04\n  add\n  0x20\n  mload(0x40)\n  dup1\n  dup4\n  sub\n  dup2\n  dup7\n  gas\n  staticcall\n  iszero\n  dup1\n  iszero\n  tag_7\n  jumpi\n  returndatasize\n  0x00\n  dup1\n  returndatacopy\n  revert(0x00, returndatasize)\ntag_7:\n  pop\n  pop\n  pop\n  pop\n  mload(0x40)\n  returndatasize\n  not(0x1f)\n  0x1f\n  dup3\n  add\n  and\n  dup3\n  add\n  dup1\n  0x40\n  mstore\n  pop\n  dup2\n  add\n  swap1\n  tag_8\n  swap2\n  swap1\n  tag_9\n  jump\t// in\ntag_8:\n    /* \"withdrawal-pattern-intro.sol\":3263:3286  !victim.isItAContract() */\n  iszero\n    /* \"withdrawal-pattern-intro.sol\":3250:3260  trickedYou */\n  0x00\n  dup1\n    /* \"withdrawal-pattern-intro.sol\":3250:3286  trickedYou = !victim.isItAContract() */\n  0x0100\n  exp\n  dup2\n  sload\n  dup2\n  0xff\n  mul\n  not\n  and\n  swap1\n  dup4\n  iszero\n  iszero\n  mul\n  or\n  swap1\n  sstore\n  pop\n    /* \"withdrawal-pattern-intro.sol\":3182:3293  constructor(address _v) public {... */\n  pop\n    /* \"withdrawal-pattern-intro.sol\":3111:3295  contract attacker... */\n  jump(tag_10)\n    /* \"#utility.yul\":88:205   */\ntag_12:\n    /* \"#utility.yul\":197:198   */\n  0x00\n    /* \"#utility.yul\":194:195   */\n  dup1\n    /* \"#utility.yul\":187:199   */\n  revert\n    /* \"#utility.yul\":334:460   */\ntag_14:\n    /* \"#utility.yul\":371:378   */\n  0x00\n    /* \"#utility.yul\":411:453   */\n  0xffffffffffffffffffffffffffffffffffffffff\n    /* \"#utility.yul\":404:409   */\n  dup3\n    /* \"#utility.yul\":400:454   */\n  and\n    /* \"#utility.yul\":389:454   */\n  swap1\n  pop\n    /* \"#utility.yul\":334:460   */\n  swap2\n  swap1\n  pop\n  jump\t// out\n    /* \"#utility.yul\":466:562   */\ntag_15:\n    /* \"#utility.yul\":503:510   */\n  0x00\n    /* \"#utility.yul\":532:556   */\n  tag_27\n    /* \"#utility.yul\":550:555   */\n  dup3\n    /* \"#utility.yul\":532:556   */\n  tag_14\n  jump\t// in\ntag_27:\n    /* \"#utility.yul\":521:556   */\n  swap1\n  pop\n    /* \"#utility.yul\":466:562   */\n  swap2\n  swap1\n  pop\n  jump\t// out\n    /* \"#utility.yul\":568:690   */\ntag_16:\n    /* \"#utility.yul\":641:665   */\n  tag_29\n    /* \"#utility.yul\":659:664   */\n  dup2\n    /* \"#utility.yul\":641:665   */\n  tag_15\n  jump\t// in\ntag_29:\n    /* \"#utility.yul\":634:639   */\n  dup2\n    /* \"#utility.yul\":631:666   */\n  eq\n    /* \"#utility.yul\":621:684   */\n  tag_30\n  jumpi\n    /* \"#utility.yul\":680:681   */\n  0x00\n    /* \"#utility.yul\":677:678   */\n  dup1\n    /* \"#utility.yul\":670:682   */\n  revert\n    /* \"#utility.yul\":621:684   */\ntag_30:\n    /* \"#utility.yul\":568:690   */\n  pop\n  jump\t// out\n    /* \"#utility.yul\":696:839   */\ntag_17:\n    /* \"#utility.yul\":753:758   */\n  0x00\n    /* \"#utility.yul\":784:790   */\n  dup2\n    /* \"#utility.yul\":778:791   */\n  mload\n    /* \"#utility.yul\":769:791   */\n  swap1\n  pop\n    /* \"#utility.yul\":800:833   */\n  tag_32\n    /* \"#utility.yul\":827:832   */\n  dup2\n    /* \"#utility.yul\":800:833   */\n  tag_16\n  jump\t// in\ntag_32:\n    /* \"#utility.yul\":696:839   */\n  swap3\n  swap2\n  pop\n  pop\n  jump\t// out\n    /* \"#utility.yul\":845:1196   */\ntag_3:\n    /* \"#utility.yul\":915:921   */\n  0x00\n    /* \"#utility.yul\":964:966   */\n  0x20\n    /* \"#utility.yul\":952:961   */\n  dup3\n    /* \"#utility.yul\":943:950   */\n  dup5\n    /* \"#utility.yul\":939:962   */\n  sub\n    /* \"#utility.yul\":935:967   */\n  slt\n    /* \"#utility.yul\":932:1051   */\n  iszero\n  tag_34\n  jumpi\n    /* \"#utility.yul\":970:1049   */\n  tag_35\n  tag_12\n  jump\t// in\ntag_35:\n    /* \"#utility.yul\":932:1051   */\ntag_34:\n    /* \"#utility.yul\":1090:1091   */\n  0x00\n    /* \"#utility.yul\":1115:1179   */\n  tag_36\n    /* \"#utility.yul\":1171:1178   */\n  dup5\n    /* \"#utility.yul\":1162:1168   */\n  dup3\n    /* \"#utility.yul\":1151:1160   */\n  dup6\n    /* \"#utility.yul\":1147:1169   */\n  add\n    /* \"#utility.yul\":1115:1179   */\n  tag_17\n  jump\t// in\ntag_36:\n    /* \"#utility.yul\":1105:1179   */\n  swap2\n  pop\n    /* \"#utility.yul\":1061:1189   */\n  pop\n    /* \"#utility.yul\":845:1196   */\n  swap3\n  swap2\n  pop\n  pop\n  jump\t// out\n    /* \"#utility.yul\":1202:1292   */\ntag_18:\n    /* \"#utility.yul\":1236:1243   */\n  0x00\n    /* \"#utility.yul\":1279:1284   */\n  dup2\n    /* \"#utility.yul\":1272:1285   */\n  iszero\n    /* \"#utility.yul\":1265:1286   */\n  iszero\n    /* \"#utility.yul\":1254:1286   */\n  swap1\n  pop\n    /* \"#utility.yul\":1202:1292   */\n  swap2\n  swap1\n  pop\n  jump\t// out\n    /* \"#utility.yul\":1298:1414   */\ntag_19:\n    /* \"#utility.yul\":1368:1389   */\n  tag_39\n    /* \"#utility.yul\":1383:1388   */\n  dup2\n    /* \"#utility.yul\":1368:1389   */\n  tag_18\n  jump\t// in\ntag_39:\n    /* \"#utility.yul\":1361:1366   */\n  dup2\n    /* \"#utility.yul\":1358:1390   */\n  eq\n    /* \"#utility.yul\":1348:1408   */\n  tag_40\n  jumpi\n    /* \"#utility.yul\":1404:1405   */\n  0x00\n    /* \"#utility.yul\":1401:1402   */\n  dup1\n    /* \"#utility.yul\":1394:1406   */\n  revert\n    /* \"#utility.yul\":1348:1408   */\ntag_40:\n    /* \"#utility.yul\":1298:1414   */\n  pop\n  jump\t// out\n    /* \"#utility.yul\":1420:1557   */\ntag_20:\n    /* \"#utility.yul\":1474:1479   */\n  0x00\n    /* \"#utility.yul\":1505:1511   */\n  dup2\n    /* \"#utility.yul\":1499:1512   */\n  mload\n    /* \"#utility.yul\":1490:1512   */\n  swap1\n  pop\n    /* \"#utility.yul\":1521:1551   */\n  tag_42\n    /* \"#utility.yul\":1545:1550   */\n  dup2\n    /* \"#utility.yul\":1521:1551   */\n  tag_19\n  jump\t// in\ntag_42:\n    /* \"#utility.yul\":1420:1557   */\n  swap3\n  swap2\n  pop\n  pop\n  jump\t// out\n    /* \"#utility.yul\":1563:1908   */\ntag_9:\n    /* \"#utility.yul\":1630:1636   */\n  0x00\n    /* \"#utility.yul\":1679:1681   */\n  0x20\n    /* \"#utility.yul\":1667:1676   */\n  dup3\n    /* \"#utility.yul\":1658:1665   */\n  dup5\n    /* \"#utility.yul\":1654:1677   */\n  sub\n    /* \"#utility.yul\":1650:1682   */\n  slt\n    /* \"#utility.yul\":1647:1766   */\n  iszero\n  tag_44\n  jumpi\n    /* \"#utility.yul\":1685:1764   */\n  tag_45\n  tag_12\n  jump\t// in\ntag_45:\n    /* \"#utility.yul\":1647:1766   */\ntag_44:\n    /* \"#utility.yul\":1805:1806   */\n  0x00\n    /* \"#utility.yul\":1830:1891   */\n  tag_46\n    /* \"#utility.yul\":1883:1890   */\n  dup5\n    /* \"#utility.yul\":1874:1880   */\n  dup3\n    /* \"#utility.yul\":1863:1872   */\n  dup6\n    /* \"#utility.yul\":1859:1881   */\n  add\n    /* \"#utility.yul\":1830:1891   */\n  tag_20\n  jump\t// in\ntag_46:\n    /* \"#utility.yul\":1820:1891   */\n  swap2\n  pop\n    /* \"#utility.yul\":1776:1901   */\n  pop\n    /* \"#utility.yul\":1563:1908   */\n  swap3\n  swap2\n  pop\n  pop\n  jump\t// out\n    /* \"withdrawal-pattern-intro.sol\":3111:3295  contract attacker... */\ntag_10:\n  dataSize(sub_0)\n  dup1\n  dataOffset(sub_0)\n  0x00\n  codecopy\n  0x00\n  return\nstop\n\nsub_0: assembly {\n        /* \"withdrawal-pattern-intro.sol\":3111:3295  contract attacker... */\n      mstore(0x40, 0x80)\n      callvalue\n      dup1\n      iszero\n      tag_1\n      jumpi\n      0x00\n      dup1\n      revert\n    tag_1:\n      pop\n      jumpi(tag_2, lt(calldatasize, 0x04))\n      shr(0xe0, calldataload(0x00))\n      dup1\n      0x406daca1\n      eq\n      tag_3\n      jumpi\n    tag_2:\n      0x00\n      dup1\n      revert\n        /* \"withdrawal-pattern-intro.sol\":3135:3157  bool public trickedYou */\n    tag_3:\n      tag_4\n      tag_5\n      jump\t// in\n    tag_4:\n      mload(0x40)\n      tag_6\n      swap2\n      swap1\n      tag_7\n      jump\t// in\n    tag_6:\n      mload(0x40)\n      dup1\n      swap2\n      sub\n      swap1\n      return\n    tag_5:\n      0x00\n      dup1\n      sload\n      swap1\n      0x0100\n      exp\n      swap1\n      div\n      0xff\n      and\n      dup2\n      jump\t// out\n        /* \"#utility.yul\":7:97   */\n    tag_8:\n        /* \"#utility.yul\":41:48   */\n      0x00\n        /* \"#utility.yul\":84:89   */\n      dup2\n        /* \"#utility.yul\":77:90   */\n      iszero\n        /* \"#utility.yul\":70:91   */\n      iszero\n        /* \"#utility.yul\":59:91   */\n      swap1\n      pop\n        /* \"#utility.yul\":7:97   */\n      swap2\n      swap1\n      pop\n      jump\t// out\n        /* \"#utility.yul\":103:212   */\n    tag_9:\n        /* \"#utility.yul\":184:205   */\n      tag_13\n        /* \"#utility.yul\":199:204   */\n      dup2\n        /* \"#utility.yul\":184:205   */\n      tag_8\n      jump\t// in\n    tag_13:\n        /* \"#utility.yul\":179:182   */\n      dup3\n        /* \"#utility.yul\":172:206   */\n      mstore\n        /* \"#utility.yul\":103:212   */\n      pop\n      pop\n      jump\t// out\n        /* \"#utility.yul\":218:428   */\n    tag_7:\n        /* \"#utility.yul\":305:309   */\n      0x00\n        /* \"#utility.yul\":343:345   */\n      0x20\n        /* \"#utility.yul\":332:341   */\n      dup3\n        /* \"#utility.yul\":328:346   */\n      add\n        /* \"#utility.yul\":320:346   */\n      swap1\n      pop\n        /* \"#utility.yul\":356:421   */\n      tag_15\n        /* \"#utility.yul\":418:419   */\n      0x00\n        /* \"#utility.yul\":407:416   */\n      dup4\n        /* \"#utility.yul\":403:420   */\n      add\n        /* \"#utility.yul\":394:400   */\n      dup5\n        /* \"#utility.yul\":356:421   */\n      tag_9\n      jump\t// in\n    tag_15:\n        /* \"#utility.yul\":218:428   */\n      swap3\n      swap2\n      pop\n      pop\n      jump\t// out\n\n    auxdata: 0xa2646970667358221220814adc48ad49f3b0589dfcbce4047e82d763e1bcfc99ff61293e08c7ef22982664736f6c63430008110033\n}\n",
				"bytecode": {
					"linkReferences": {},
					"object": "608060405234801561001057600080fd5b506040516102e63803806102e683398181016040528101906100329190610186565b80600060016101000a81548173ffffffffffffffffffffffffffffffffffffffff021916908373ffffffffffffffffffffffffffffffffffffffff160217905550600060019054906101000a900473ffffffffffffffffffffffffffffffffffffffff1673ffffffffffffffffffffffffffffffffffffffff166363bae9626040518163ffffffff1660e01b8152600401602060405180830381865afa1580156100e0573d6000803e3d6000fd5b505050506040513d601f19601f8201168201806040525081019061010491906101eb565b156000806101000a81548160ff02191690831515021790555050610218565b600080fd5b600073ffffffffffffffffffffffffffffffffffffffff82169050919050565b600061015382610128565b9050919050565b61016381610148565b811461016e57600080fd5b50565b6000815190506101808161015a565b92915050565b60006020828403121561019c5761019b610123565b5b60006101aa84828501610171565b91505092915050565b60008115159050919050565b6101c8816101b3565b81146101d357600080fd5b50565b6000815190506101e5816101bf565b92915050565b60006020828403121561020157610200610123565b5b600061020f848285016101d6565b91505092915050565b60c0806102266000396000f3fe6080604052348015600f57600080fd5b506004361060285760003560e01c8063406daca114602d575b600080fd5b60336047565b604051603e91906071565b60405180910390f35b60008054906101000a900460ff1681565b60008115159050919050565b606b816058565b82525050565b6000602082019050608460008301846064565b9291505056fea2646970667358221220814adc48ad49f3b0589dfcbce4047e82d763e1bcfc99ff61293e08c7ef22982664736f6c63430008110033",
					"opcodes": "PUSH1 0x80 PUSH1 0x40 MSTORE CALLVALUE DUP1 ISZERO PUSH2 0x10 JUMPI PUSH1 0x0 DUP1 REVERT JUMPDEST POP PUSH1 0x40 MLOAD PUSH2 0x2E6 CODESIZE SUB DUP1 PUSH2 0x2E6 DUP4 CODECOPY DUP2 DUP2 ADD PUSH1 0x40 MSTORE DUP2 ADD SWAP1 PUSH2 0x32 SWAP2 SWAP1 PUSH2 0x186 JUMP JUMPDEST DUP1 PUSH1 0x0 PUSH1 0x1 PUSH2 0x100 EXP DUP2 SLOAD DUP2 PUSH20 0xFFFFFFFFFFFFFFFFFFFFFFFFFFFFFFFFFFFFFFFF MUL NOT AND SWAP1 DUP4 PUSH20 0xFFFFFFFFFFFFFFFFFFFFFFFFFFFFFFFFFFFFFFFF AND MUL OR SWAP1 SSTORE POP PUSH1 0x0 PUSH1 0x1 SWAP1 SLOAD SWAP1 PUSH2 0x100 EXP SWAP1 DIV PUSH20 0xFFFFFFFFFFFFFFFFFFFFFFFFFFFFFFFFFFFFFFFF AND PUSH20 0xFFFFFFFFFFFFFFFFFFFFFFFFFFFFFFFFFFFFFFFF AND PUSH4 0x63BAE962 PUSH1 0x40 MLOAD DUP2 PUSH4 0xFFFFFFFF AND PUSH1 0xE0 SHL DUP2 MSTORE PUSH1 0x4 ADD PUSH1 0x20 PUSH1 0x40 MLOAD DUP1 DUP4 SUB DUP2 DUP7 GAS STATICCALL ISZERO DUP1 ISZERO PUSH2 0xE0 JUMPI RETURNDATASIZE PUSH1 0x0 DUP1 RETURNDATACOPY RETURNDATASIZE PUSH1 0x0 REVERT JUMPDEST POP POP POP POP PUSH1 0x40 MLOAD RETURNDATASIZE PUSH1 0x1F NOT PUSH1 0x1F DUP3 ADD AND DUP3 ADD DUP1 PUSH1 0x40 MSTORE POP DUP2 ADD SWAP1 PUSH2 0x104 SWAP2 SWAP1 PUSH2 0x1EB JUMP JUMPDEST ISZERO PUSH1 0x0 DUP1 PUSH2 0x100 EXP DUP2 SLOAD DUP2 PUSH1 0xFF MUL NOT AND SWAP1 DUP4 ISZERO ISZERO MUL OR SWAP1 SSTORE POP POP PUSH2 0x218 JUMP JUMPDEST PUSH1 0x0 DUP1 REVERT JUMPDEST PUSH1 0x0 PUSH20 0xFFFFFFFFFFFFFFFFFFFFFFFFFFFFFFFFFFFFFFFF DUP3 AND SWAP1 POP SWAP2 SWAP1 POP JUMP JUMPDEST PUSH1 0x0 PUSH2 0x153 DUP3 PUSH2 0x128 JUMP JUMPDEST SWAP1 POP SWAP2 SWAP1 POP JUMP JUMPDEST PUSH2 0x163 DUP2 PUSH2 0x148 JUMP JUMPDEST DUP2 EQ PUSH2 0x16E JUMPI PUSH1 0x0 DUP1 REVERT JUMPDEST POP JUMP JUMPDEST PUSH1 0x0 DUP2 MLOAD SWAP1 POP PUSH2 0x180 DUP2 PUSH2 0x15A JUMP JUMPDEST SWAP3 SWAP2 POP POP JUMP JUMPDEST PUSH1 0x0 PUSH1 0x20 DUP3 DUP5 SUB SLT ISZERO PUSH2 0x19C JUMPI PUSH2 0x19B PUSH2 0x123 JUMP JUMPDEST JUMPDEST PUSH1 0x0 PUSH2 0x1AA DUP5 DUP3 DUP6 ADD PUSH2 0x171 JUMP JUMPDEST SWAP2 POP POP SWAP3 SWAP2 POP POP JUMP JUMPDEST PUSH1 0x0 DUP2 ISZERO ISZERO SWAP1 POP SWAP2 SWAP1 POP JUMP JUMPDEST PUSH2 0x1C8 DUP2 PUSH2 0x1B3 JUMP JUMPDEST DUP2 EQ PUSH2 0x1D3 JUMPI PUSH1 0x0 DUP1 REVERT JUMPDEST POP JUMP JUMPDEST PUSH1 0x0 DUP2 MLOAD SWAP1 POP PUSH2 0x1E5 DUP2 PUSH2 0x1BF JUMP JUMPDEST SWAP3 SWAP2 POP POP JUMP JUMPDEST PUSH1 0x0 PUSH1 0x20 DUP3 DUP5 SUB SLT ISZERO PUSH2 0x201 JUMPI PUSH2 0x200 PUSH2 0x123 JUMP JUMPDEST JUMPDEST PUSH1 0x0 PUSH2 0x20F DUP5 DUP3 DUP6 ADD PUSH2 0x1D6 JUMP JUMPDEST SWAP2 POP POP SWAP3 SWAP2 POP POP JUMP JUMPDEST PUSH1 0xC0 DUP1 PUSH2 0x226 PUSH1 0x0 CODECOPY PUSH1 0x0 RETURN INVALID PUSH1 0x80 PUSH1 0x40 MSTORE CALLVALUE DUP1 ISZERO PUSH1 0xF JUMPI PUSH1 0x0 DUP1 REVERT JUMPDEST POP PUSH1 0x4 CALLDATASIZE LT PUSH1 0x28 JUMPI PUSH1 0x0 CALLDATALOAD PUSH1 0xE0 SHR DUP1 PUSH4 0x406DACA1 EQ PUSH1 0x2D JUMPI JUMPDEST PUSH1 0x0 DUP1 REVERT JUMPDEST PUSH1 0x33 PUSH1 0x47 JUMP JUMPDEST PUSH1 0x40 MLOAD PUSH1 0x3E SWAP2 SWAP1 PUSH1 0x71 JUMP JUMPDEST PUSH1 0x40 MLOAD DUP1 SWAP2 SUB SWAP1 RETURN JUMPDEST PUSH1 0x0 DUP1 SLOAD SWAP1 PUSH2 0x100 EXP SWAP1 DIV PUSH1 0xFF AND DUP2 JUMP JUMPDEST PUSH1 0x0 DUP2 ISZERO ISZERO SWAP1 POP SWAP2 SWAP1 POP JUMP JUMPDEST PUSH1 0x6B DUP2 PUSH1 0x58 JUMP JUMPDEST DUP3 MSTORE POP POP JUMP JUMPDEST PUSH1 0x0 PUSH1 0x20 DUP3 ADD SWAP1 POP PUSH1 0x84 PUSH1 0x0 DUP4 ADD DUP5 PUSH1 0x64 JUMP JUMPDEST SWAP3 SWAP2 POP POP JUMP INVALID LOG2 PUSH5 0x6970667358 0x22 SLT KECCAK256 DUP2 0x4A 0xDC BASEFEE 0xAD 0x49 RETURN 0xB0 PC SWAP14 0xFC 0xBC 0xE4 DIV PUSH31 0x82D763E1BCFC99FF61293E08C7EF22982664736F6C63430008110033000000 "
				},
				"gasEstimates": {
					"creation": {
						"codeDepositCost": "38400",
						"executionCost": "infinite",
						"totalCost": "infinite"
					},
					"external": {
						"trickedYou()": "2446"
					}
				},
				"methodIdentifiers": {
					"trickedYou()": "406daca1"
				}
			},
			"storageLayout": {
				"storage": [
					{
						"astId": 24,
						"contract": "withdrawal-pattern-intro.sol:attacker",
						"label": "trickedYou",
						"offset": 0,
						"slot": "0",
						"type": "t_bool"
					},
					{
						"astId": 27,
						"contract": "withdrawal-pattern-intro.sol:attacker",
						"label": "victim",
						"offset": 1,
						"slot": "0",
						"type": "t_contract(Victim)22"
					}
				],
				"types": {
					"t_bool": {
						"encoding": "inplace",
						"label": "bool",
						"numberOfBytes": "1"
					},
					"t_contract(Victim)22": {
						"encoding": "inplace",
						"label": "contract Victim",
						"numberOfBytes": "20"
					}
				}
			},
			"userdoc": {
				"kind": "user",
				"methods": {},
				"version": 1
			}
		}
	}
}