{
	"advance-libraries2.sol": {
		"test2": {
			"abi": [
				{
					"inputs": [],
					"stateMutability": "nonpayable",
					"type": "constructor"
				},
				{
					"inputs": [],
					"name": "isValuePresent",
					"outputs": [
						{
							"internalType": "uint256",
							"name": "",
							"type": "uint256"
						}
					],
					"stateMutability": "view",
					"type": "function"
				}
			],
			"devdoc": {
				"kind": "dev",
				"methods": {},
				"version": 1
			},
			"evm": {
				"assembly": "    /* \"advance-libraries2.sol\":1574:1950  contract test2... */\n  mstore(0x40, 0x80)\n    /* \"advance-libraries2.sol\":1694:1793  constructor() public... */\n  callvalue\n  dup1\n  iszero\n  tag_1\n  jumpi\n  0x00\n  dup1\n  revert\ntag_1:\n  pop\n    /* \"advance-libraries2.sol\":1729:1745  data=[1,2,3,4,5] */\n  mload(0x40)\n  dup1\n  0xa0\n  add\n  0x40\n  mstore\n  dup1\n    /* \"advance-libraries2.sol\":1735:1736  1 */\n  0x01\n    /* \"advance-libraries2.sol\":1729:1745  data=[1,2,3,4,5] */\n  0xff\n  and\n  dup2\n  mstore\n  0x20\n  add\n    /* \"advance-libraries2.sol\":1737:1738  2 */\n  0x02\n    /* \"advance-libraries2.sol\":1729:1745  data=[1,2,3,4,5] */\n  0xff\n  and\n  dup2\n  mstore\n  0x20\n  add\n    /* \"advance-libraries2.sol\":1739:1740  3 */\n  0x03\n    /* \"advance-libraries2.sol\":1729:1745  data=[1,2,3,4,5] */\n  0xff\n  and\n  dup2\n  mstore\n  0x20\n  add\n    /* \"advance-libraries2.sol\":1741:1742  4 */\n  0x04\n    /* \"advance-libraries2.sol\":1729:1745  data=[1,2,3,4,5] */\n  0xff\n  and\n  dup2\n  mstore\n  0x20\n  add\n    /* \"advance-libraries2.sol\":1743:1744  5 */\n  0x05\n    /* \"advance-libraries2.sol\":1729:1745  data=[1,2,3,4,5] */\n  0xff\n  and\n  dup2\n  mstore\n  pop\n    /* \"advance-libraries2.sol\":1729:1733  data */\n  0x00\n    /* \"advance-libraries2.sol\":1729:1745  data=[1,2,3,4,5] */\n  swap1\n  0x05\n  tag_4\n  swap3\n  swap2\n  swap1\n  tag_5\n  jump\t// in\ntag_4:\n  pop\n    /* \"advance-libraries2.sol\":1574:1950  contract test2... */\n  jump(tag_6)\ntag_5:\n  dup3\n  dup1\n  sload\n  dup3\n  dup3\n  sstore\n  swap1\n  0x00\n  mstore\n  keccak256(0x00, 0x20)\n  swap1\n  dup2\n  add\n  swap3\n  dup3\n  iszero\n  tag_7\n  jumpi\n  swap2\n  0x20\n  mul\n  dup3\n  add\ntag_8:\n  dup3\n  dup2\n  gt\n  iszero\n  tag_9\n  jumpi\n  dup3\n  mload\n  dup3\n  swap1\n  0xff\n  and\n  swap1\n  sstore\n  swap2\n  0x20\n  add\n  swap2\n  swap1\n  0x01\n  add\n  swap1\n  jump(tag_8)\ntag_9:\ntag_7:\n  pop\n  swap1\n  pop\n  tag_10\n  swap2\n  swap1\n  tag_11\n  jump\t// in\ntag_10:\n  pop\n  swap1\n  jump\t// out\ntag_11:\ntag_12:\n  dup1\n  dup3\n  gt\n  iszero\n  tag_13\n  jumpi\n  0x00\n  dup2\n  0x00\n  swap1\n  sstore\n  pop\n  0x01\n  add\n  jump(tag_12)\ntag_13:\n  pop\n  swap1\n  jump\t// out\ntag_6:\n  dataSize(sub_0)\n  dup1\n  dataOffset(sub_0)\n  0x00\n  codecopy\n  0x00\n  return\nstop\n\nsub_0: assembly {\n        /* \"advance-libraries2.sol\":1574:1950  contract test2... */\n      mstore(0x40, 0x80)\n      callvalue\n      dup1\n      iszero\n      tag_1\n      jumpi\n      0x00\n      dup1\n      revert\n    tag_1:\n      pop\n      jumpi(tag_2, lt(calldatasize, 0x04))\n      shr(0xe0, calldataload(0x00))\n      dup1\n      0x1d321459\n      eq\n      tag_3\n      jumpi\n    tag_2:\n      0x00\n      dup1\n      revert\n        /* \"advance-libraries2.sol\":1799:1948  function isValuePresent() external view returns(uint)... */\n    tag_3:\n      tag_4\n      tag_5\n      jump\t// in\n    tag_4:\n      mload(0x40)\n      tag_6\n      swap2\n      swap1\n      tag_7\n      jump\t// in\n    tag_6:\n      mload(0x40)\n      dup1\n      swap2\n      sub\n      swap1\n      return\n    tag_5:\n        /* \"advance-libraries2.sol\":1847:1851  uint */\n      0x00\n        /* \"advance-libraries2.sol\":1867:1877  uint value */\n      dup1\n        /* \"advance-libraries2.sol\":1878:1879  4 */\n      0x04\n        /* \"advance-libraries2.sol\":1867:1879  uint value=4 */\n      swap1\n      pop\n        /* \"advance-libraries2.sol\":1888:1898  uint index */\n      0x00\n        /* \"advance-libraries2.sol\":1901:1905  data */\n      dup1\n        /* \"advance-libraries2.sol\":1901:1913  data.indexOf */\n      linkerSymbol(\"b9ccc07e416bd4196acb47db2d23e72e72d8e739b08dc1e9e55600a7c8fccec0\")\n      0x24fef5c8\n      swap1\n      swap2\n        /* \"advance-libraries2.sol\":1914:1919  value */\n      dup5\n        /* \"advance-libraries2.sol\":1901:1920  data.indexOf(value) */\n      mload(0x40)\n      dup4\n      0xffffffff\n      and\n      0xe0\n      shl\n      dup2\n      mstore\n      0x04\n      add\n      tag_9\n      swap3\n      swap2\n      swap1\n      tag_10\n      jump\t// in\n    tag_9:\n      0x20\n      mload(0x40)\n      dup1\n      dup4\n      sub\n      dup2\n      dup7\n      gas\n      delegatecall\n      iszero\n      dup1\n      iszero\n      tag_12\n      jumpi\n      returndatasize\n      0x00\n      dup1\n      returndatacopy\n      revert(0x00, returndatasize)\n    tag_12:\n      pop\n      pop\n      pop\n      pop\n      mload(0x40)\n      returndatasize\n      not(0x1f)\n      0x1f\n      dup3\n      add\n      and\n      dup3\n      add\n      dup1\n      0x40\n      mstore\n      pop\n      dup2\n      add\n      swap1\n      tag_13\n      swap2\n      swap1\n      tag_14\n      jump\t// in\n    tag_13:\n        /* \"advance-libraries2.sol\":1888:1920  uint index = data.indexOf(value) */\n      swap1\n      pop\n        /* \"advance-libraries2.sol\":1936:1941  index */\n      dup1\n        /* \"advance-libraries2.sol\":1929:1941  return index */\n      swap3\n      pop\n      pop\n      pop\n        /* \"advance-libraries2.sol\":1799:1948  function isValuePresent() external view returns(uint)... */\n      swap1\n      jump\t// out\n        /* \"#utility.yul\":7:84   */\n    tag_15:\n        /* \"#utility.yul\":44:51   */\n      0x00\n        /* \"#utility.yul\":73:78   */\n      dup2\n        /* \"#utility.yul\":62:78   */\n      swap1\n      pop\n        /* \"#utility.yul\":7:84   */\n      swap2\n      swap1\n      pop\n      jump\t// out\n        /* \"#utility.yul\":90:208   */\n    tag_16:\n        /* \"#utility.yul\":177:201   */\n      tag_27\n        /* \"#utility.yul\":195:200   */\n      dup2\n        /* \"#utility.yul\":177:201   */\n      tag_15\n      jump\t// in\n    tag_27:\n        /* \"#utility.yul\":172:175   */\n      dup3\n        /* \"#utility.yul\":165:202   */\n      mstore\n        /* \"#utility.yul\":90:208   */\n      pop\n      pop\n      jump\t// out\n        /* \"#utility.yul\":214:436   */\n    tag_7:\n        /* \"#utility.yul\":307:311   */\n      0x00\n        /* \"#utility.yul\":345:347   */\n      0x20\n        /* \"#utility.yul\":334:343   */\n      dup3\n        /* \"#utility.yul\":330:348   */\n      add\n        /* \"#utility.yul\":322:348   */\n      swap1\n      pop\n        /* \"#utility.yul\":358:429   */\n      tag_29\n        /* \"#utility.yul\":426:427   */\n      0x00\n        /* \"#utility.yul\":415:424   */\n      dup4\n        /* \"#utility.yul\":411:428   */\n      add\n        /* \"#utility.yul\":402:408   */\n      dup5\n        /* \"#utility.yul\":358:429   */\n      tag_16\n      jump\t// in\n    tag_29:\n        /* \"#utility.yul\":214:436   */\n      swap3\n      swap2\n      pop\n      pop\n      jump\t// out\n        /* \"#utility.yul\":442:575   */\n    tag_17:\n        /* \"#utility.yul\":563:568   */\n      dup1\n        /* \"#utility.yul\":558:561   */\n      dup3\n        /* \"#utility.yul\":551:569   */\n      mstore\n        /* \"#utility.yul\":442:575   */\n      pop\n      pop\n      jump\t// out\n        /* \"#utility.yul\":581:707   */\n    tag_18:\n        /* \"#utility.yul\":676:700   */\n      tag_32\n        /* \"#utility.yul\":694:699   */\n      dup2\n        /* \"#utility.yul\":676:700   */\n      tag_15\n      jump\t// in\n    tag_32:\n        /* \"#utility.yul\":671:674   */\n      dup3\n        /* \"#utility.yul\":664:701   */\n      mstore\n        /* \"#utility.yul\":581:707   */\n      pop\n      pop\n      jump\t// out\n        /* \"#utility.yul\":713:1121   */\n    tag_10:\n        /* \"#utility.yul\":868:872   */\n      0x00\n        /* \"#utility.yul\":906:908   */\n      0x40\n        /* \"#utility.yul\":895:904   */\n      dup3\n        /* \"#utility.yul\":891:909   */\n      add\n        /* \"#utility.yul\":883:909   */\n      swap1\n      pop\n        /* \"#utility.yul\":919:1024   */\n      tag_34\n        /* \"#utility.yul\":1021:1022   */\n      0x00\n        /* \"#utility.yul\":1010:1019   */\n      dup4\n        /* \"#utility.yul\":1006:1023   */\n      add\n        /* \"#utility.yul\":997:1003   */\n      dup6\n        /* \"#utility.yul\":919:1024   */\n      tag_17\n      jump\t// in\n    tag_34:\n        /* \"#utility.yul\":1034:1114   */\n      tag_35\n        /* \"#utility.yul\":1110:1112   */\n      0x20\n        /* \"#utility.yul\":1099:1108   */\n      dup4\n        /* \"#utility.yul\":1095:1113   */\n      add\n        /* \"#utility.yul\":1086:1092   */\n      dup5\n        /* \"#utility.yul\":1034:1114   */\n      tag_18\n      jump\t// in\n    tag_35:\n        /* \"#utility.yul\":713:1121   */\n      swap4\n      swap3\n      pop\n      pop\n      pop\n      jump\t// out\n        /* \"#utility.yul\":1208:1325   */\n    tag_20:\n        /* \"#utility.yul\":1317:1318   */\n      0x00\n        /* \"#utility.yul\":1314:1315   */\n      dup1\n        /* \"#utility.yul\":1307:1319   */\n      revert\n        /* \"#utility.yul\":1454:1576   */\n    tag_22:\n        /* \"#utility.yul\":1527:1551   */\n      tag_40\n        /* \"#utility.yul\":1545:1550   */\n      dup2\n        /* \"#utility.yul\":1527:1551   */\n      tag_15\n      jump\t// in\n    tag_40:\n        /* \"#utility.yul\":1520:1525   */\n      dup2\n        /* \"#utility.yul\":1517:1552   */\n      eq\n        /* \"#utility.yul\":1507:1570   */\n      tag_41\n      jumpi\n        /* \"#utility.yul\":1566:1567   */\n      0x00\n        /* \"#utility.yul\":1563:1564   */\n      dup1\n        /* \"#utility.yul\":1556:1568   */\n      revert\n        /* \"#utility.yul\":1507:1570   */\n    tag_41:\n        /* \"#utility.yul\":1454:1576   */\n      pop\n      jump\t// out\n        /* \"#utility.yul\":1582:1725   */\n    tag_23:\n        /* \"#utility.yul\":1639:1644   */\n      0x00\n        /* \"#utility.yul\":1670:1676   */\n      dup2\n        /* \"#utility.yul\":1664:1677   */\n      mload\n        /* \"#utility.yul\":1655:1677   */\n      swap1\n      pop\n        /* \"#utility.yul\":1686:1719   */\n      tag_43\n        /* \"#utility.yul\":1713:1718   */\n      dup2\n        /* \"#utility.yul\":1686:1719   */\n      tag_22\n      jump\t// in\n    tag_43:\n        /* \"#utility.yul\":1582:1725   */\n      swap3\n      swap2\n      pop\n      pop\n      jump\t// out\n        /* \"#utility.yul\":1731:2082   */\n    tag_14:\n        /* \"#utility.yul\":1801:1807   */\n      0x00\n        /* \"#utility.yul\":1850:1852   */\n      0x20\n        /* \"#utility.yul\":1838:1847   */\n      dup3\n        /* \"#utility.yul\":1829:1836   */\n      dup5\n        /* \"#utility.yul\":1825:1848   */\n      sub\n        /* \"#utility.yul\":1821:1853   */\n      slt\n        /* \"#utility.yul\":1818:1937   */\n      iszero\n      tag_45\n      jumpi\n        /* \"#utility.yul\":1856:1935   */\n      tag_46\n      tag_20\n      jump\t// in\n    tag_46:\n        /* \"#utility.yul\":1818:1937   */\n    tag_45:\n        /* \"#utility.yul\":1976:1977   */\n      0x00\n        /* \"#utility.yul\":2001:2065   */\n      tag_47\n        /* \"#utility.yul\":2057:2064   */\n      dup5\n        /* \"#utility.yul\":2048:2054   */\n      dup3\n        /* \"#utility.yul\":2037:2046   */\n      dup6\n        /* \"#utility.yul\":2033:2055   */\n      add\n        /* \"#utility.yul\":2001:2065   */\n      tag_23\n      jump\t// in\n    tag_47:\n        /* \"#utility.yul\":1991:2065   */\n      swap2\n      pop\n        /* \"#utility.yul\":1947:2075   */\n      pop\n        /* \"#utility.yul\":1731:2082   */\n      swap3\n      swap2\n      pop\n      pop\n      jump\t// out\n\n    auxdata: 0xa2646970667358221220024320ee955a8b46f1d836ff4f6b1995376725612f4d225ad8cac0cba2b2dc5d64736f6c63430008110033\n}\n",
				"bytecode": {
					"linkReferences": {
						"advance-libraries2.sol": {
							"Search2": [
								{
									"length": 20,
									"start": 314
								}
							]
						}
					},
					"object": "608060405234801561001057600080fd5b506040518060a00160405280600160ff168152602001600260ff168152602001600360ff168152602001600460ff168152602001600560ff16815250600090600561005c929190610062565b506100d1565b8280548282559060005260206000209081019282156100a3579160200282015b828111156100a2578251829060ff16905591602001919060010190610082565b5b5090506100b091906100b4565b5090565b5b808211156100cd5760008160009055506001016100b5565b5090565b6101e4806100e06000396000f3fe608060405234801561001057600080fd5b506004361061002b5760003560e01c80631d32145914610030575b600080fd5b61003861004e565b60405161004591906100f6565b60405180910390f35b6000806004905060008073__$b9ccc07e416bd4196acb47db2d23e72e72$__6324fef5c89091846040518363ffffffff1660e01b8152600401610092929190610127565b602060405180830381865af41580156100af573d6000803e3d6000fd5b505050506040513d601f19601f820116820180604052508101906100d39190610181565b9050809250505090565b6000819050919050565b6100f0816100dd565b82525050565b600060208201905061010b60008301846100e7565b92915050565b8082525050565b610121816100dd565b82525050565b600060408201905061013c6000830185610111565b6101496020830184610118565b9392505050565b600080fd5b61015e816100dd565b811461016957600080fd5b50565b60008151905061017b81610155565b92915050565b60006020828403121561019757610196610150565b5b60006101a58482850161016c565b9150509291505056fea2646970667358221220024320ee955a8b46f1d836ff4f6b1995376725612f4d225ad8cac0cba2b2dc5d64736f6c63430008110033",
					"opcodes": "PUSH1 0x80 PUSH1 0x40 MSTORE CALLVALUE DUP1 ISZERO PUSH2 0x10 JUMPI PUSH1 0x0 DUP1 REVERT JUMPDEST POP PUSH1 0x40 MLOAD DUP1 PUSH1 0xA0 ADD PUSH1 0x40 MSTORE DUP1 PUSH1 0x1 PUSH1 0xFF AND DUP2 MSTORE PUSH1 0x20 ADD PUSH1 0x2 PUSH1 0xFF AND DUP2 MSTORE PUSH1 0x20 ADD PUSH1 0x3 PUSH1 0xFF AND DUP2 MSTORE PUSH1 0x20 ADD PUSH1 0x4 PUSH1 0xFF AND DUP2 MSTORE PUSH1 0x20 ADD PUSH1 0x5 PUSH1 0xFF AND DUP2 MSTORE POP PUSH1 0x0 SWAP1 PUSH1 0x5 PUSH2 0x5C SWAP3 SWAP2 SWAP1 PUSH2 0x62 JUMP JUMPDEST POP PUSH2 0xD1 JUMP JUMPDEST DUP3 DUP1 SLOAD DUP3 DUP3 SSTORE SWAP1 PUSH1 0x0 MSTORE PUSH1 0x20 PUSH1 0x0 KECCAK256 SWAP1 DUP2 ADD SWAP3 DUP3 ISZERO PUSH2 0xA3 JUMPI SWAP2 PUSH1 0x20 MUL DUP3 ADD JUMPDEST DUP3 DUP2 GT ISZERO PUSH2 0xA2 JUMPI DUP3 MLOAD DUP3 SWAP1 PUSH1 0xFF AND SWAP1 SSTORE SWAP2 PUSH1 0x20 ADD SWAP2 SWAP1 PUSH1 0x1 ADD SWAP1 PUSH2 0x82 JUMP JUMPDEST JUMPDEST POP SWAP1 POP PUSH2 0xB0 SWAP2 SWAP1 PUSH2 0xB4 JUMP JUMPDEST POP SWAP1 JUMP JUMPDEST JUMPDEST DUP1 DUP3 GT ISZERO PUSH2 0xCD JUMPI PUSH1 0x0 DUP2 PUSH1 0x0 SWAP1 SSTORE POP PUSH1 0x1 ADD PUSH2 0xB5 JUMP JUMPDEST POP SWAP1 JUMP JUMPDEST PUSH2 0x1E4 DUP1 PUSH2 0xE0 PUSH1 0x0 CODECOPY PUSH1 0x0 RETURN INVALID PUSH1 0x80 PUSH1 0x40 MSTORE CALLVALUE DUP1 ISZERO PUSH2 0x10 JUMPI PUSH1 0x0 DUP1 REVERT JUMPDEST POP PUSH1 0x4 CALLDATASIZE LT PUSH2 0x2B JUMPI PUSH1 0x0 CALLDATALOAD PUSH1 0xE0 SHR DUP1 PUSH4 0x1D321459 EQ PUSH2 0x30 JUMPI JUMPDEST PUSH1 0x0 DUP1 REVERT JUMPDEST PUSH2 0x38 PUSH2 0x4E JUMP JUMPDEST PUSH1 0x40 MLOAD PUSH2 0x45 SWAP2 SWAP1 PUSH2 0xF6 JUMP JUMPDEST PUSH1 0x40 MLOAD DUP1 SWAP2 SUB SWAP1 RETURN JUMPDEST PUSH1 0x0 DUP1 PUSH1 0x4 SWAP1 POP PUSH1 0x0 DUP1 PUSH20 0x0 PUSH4 0x24FEF5C8 SWAP1 SWAP2 DUP5 PUSH1 0x40 MLOAD DUP4 PUSH4 0xFFFFFFFF AND PUSH1 0xE0 SHL DUP2 MSTORE PUSH1 0x4 ADD PUSH2 0x92 SWAP3 SWAP2 SWAP1 PUSH2 0x127 JUMP JUMPDEST PUSH1 0x20 PUSH1 0x40 MLOAD DUP1 DUP4 SUB DUP2 DUP7 GAS DELEGATECALL ISZERO DUP1 ISZERO PUSH2 0xAF JUMPI RETURNDATASIZE PUSH1 0x0 DUP1 RETURNDATACOPY RETURNDATASIZE PUSH1 0x0 REVERT JUMPDEST POP POP POP POP PUSH1 0x40 MLOAD RETURNDATASIZE PUSH1 0x1F NOT PUSH1 0x1F DUP3 ADD AND DUP3 ADD DUP1 PUSH1 0x40 MSTORE POP DUP2 ADD SWAP1 PUSH2 0xD3 SWAP2 SWAP1 PUSH2 0x181 JUMP JUMPDEST SWAP1 POP DUP1 SWAP3 POP POP POP SWAP1 JUMP JUMPDEST PUSH1 0x0 DUP2 SWAP1 POP SWAP2 SWAP1 POP JUMP JUMPDEST PUSH2 0xF0 DUP2 PUSH2 0xDD JUMP JUMPDEST DUP3 MSTORE POP POP JUMP JUMPDEST PUSH1 0x0 PUSH1 0x20 DUP3 ADD SWAP1 POP PUSH2 0x10B PUSH1 0x0 DUP4 ADD DUP5 PUSH2 0xE7 JUMP JUMPDEST SWAP3 SWAP2 POP POP JUMP JUMPDEST DUP1 DUP3 MSTORE POP POP JUMP JUMPDEST PUSH2 0x121 DUP2 PUSH2 0xDD JUMP JUMPDEST DUP3 MSTORE POP POP JUMP JUMPDEST PUSH1 0x0 PUSH1 0x40 DUP3 ADD SWAP1 POP PUSH2 0x13C PUSH1 0x0 DUP4 ADD DUP6 PUSH2 0x111 JUMP JUMPDEST PUSH2 0x149 PUSH1 0x20 DUP4 ADD DUP5 PUSH2 0x118 JUMP JUMPDEST SWAP4 SWAP3 POP POP POP JUMP JUMPDEST PUSH1 0x0 DUP1 REVERT JUMPDEST PUSH2 0x15E DUP2 PUSH2 0xDD JUMP JUMPDEST DUP2 EQ PUSH2 0x169 JUMPI PUSH1 0x0 DUP1 REVERT JUMPDEST POP JUMP JUMPDEST PUSH1 0x0 DUP2 MLOAD SWAP1 POP PUSH2 0x17B DUP2 PUSH2 0x155 JUMP JUMPDEST SWAP3 SWAP2 POP POP JUMP JUMPDEST PUSH1 0x0 PUSH1 0x20 DUP3 DUP5 SUB SLT ISZERO PUSH2 0x197 JUMPI PUSH2 0x196 PUSH2 0x150 JUMP JUMPDEST JUMPDEST PUSH1 0x0 PUSH2 0x1A5 DUP5 DUP3 DUP6 ADD PUSH2 0x16C JUMP JUMPDEST SWAP2 POP POP SWAP3 SWAP2 POP POP JUMP INVALID LOG2 PUSH5 0x6970667358 0x22 SLT KECCAK256 MUL NUMBER KECCAK256 0xEE SWAP6 GAS DUP12 CHAINID CALL 0xD8 CALLDATASIZE SELFDESTRUCT 0x4F PUSH12 0x1995376725612F4D225AD8CA 0xC0 0xCB LOG2 0xB2 0xDC 0x5D PUSH5 0x736F6C6343 STOP ADDMOD GT STOP CALLER "
				},
				"gasEstimates": {
					"creation": {
						"codeDepositCost": "96800",
						"executionCost": "infinite",
						"totalCost": "infinite"
					},
					"external": {
						"isValuePresent()": "infinite"
					}
				},
				"methodIdentifiers": {
					"isValuePresent()": "1d321459"
				}
			},
			"storageLayout": {
				"storage": [
					{
						"astId": 113,
						"contract": "advance-libraries2.sol:test2",
						"label": "data",
						"offset": 0,
						"slot": "0",
						"type": "t_array(t_uint256)dyn_storage"
					}
				],
				"types": {
					"t_array(t_uint256)dyn_storage": {
						"base": "t_uint256",
						"encoding": "dynamic_array",
						"label": "uint256[]",
						"numberOfBytes": "32"
					},
					"t_uint256": {
						"encoding": "inplace",
						"label": "uint256",
						"numberOfBytes": "32"
					}
				}
			},
			"userdoc": {
				"kind": "user",
				"methods": {},
				"version": 1
			}
		}
	}
}